{
  "_format": "hh-sol-artifact-1",
  "contractName": "Usuaris",
  "sourceName": "contracts/Usuaris.sol",
  "abi": [
    {
      "inputs": [
        {
          "internalType": "address",
          "name": "_contracteMinisteri",
          "type": "address"
        },
        {
          "internalType": "address",
          "name": "_aRecepta",
          "type": "address"
        }
      ],
      "stateMutability": "nonpayable",
      "type": "constructor"
    },
    {
      "inputs": [
        {
          "internalType": "uint256",
          "name": "_idRecepta",
          "type": "uint256"
        },
        {
          "internalType": "address",
          "name": "_adFarmacia",
          "type": "address"
        }
      ],
      "name": "enviaReceptaAFarmacia",
      "outputs": [],
      "stateMutability": "nonpayable",
      "type": "function"
    },
    {
      "inputs": [
        {
          "internalType": "uint256",
          "name": "_idRecepta",
          "type": "uint256"
        }
      ],
      "name": "estatRecepta",
      "outputs": [
        {
          "internalType": "string",
          "name": "",
          "type": "string"
        }
      ],
      "stateMutability": "view",
      "type": "function"
    },
    {
      "inputs": [
        {
          "internalType": "uint256",
          "name": "_idRecepta",
          "type": "uint256"
        }
      ],
      "name": "rebutjaRecepta",
      "outputs": [],
      "stateMutability": "nonpayable",
      "type": "function"
    },
    {
      "inputs": [],
      "name": "visualitzaIDsReceptes",
      "outputs": [
        {
          "internalType": "uint256[]",
          "name": "",
          "type": "uint256[]"
        }
      ],
      "stateMutability": "view",
      "type": "function"
    },
    {
      "inputs": [
        {
          "internalType": "uint256",
          "name": "_idRecepta",
          "type": "uint256"
        }
      ],
      "name": "visualitzaRecepta",
      "outputs": [
        {
          "internalType": "string",
          "name": "nomMetge",
          "type": "string"
        },
        {
          "internalType": "string",
          "name": "medicament",
          "type": "string"
        },
        {
          "internalType": "string",
          "name": "ium",
          "type": "string"
        }
      ],
      "stateMutability": "view",
      "type": "function"
    }
  ],
  "bytecode": "0x608060405234801561001057600080fd5b50604051610b55380380610b5583398101604081905261002f9161007c565b600080546001600160a01b039384166001600160a01b031991821617909155600180549290931691161790556100af565b80516001600160a01b038116811461007757600080fd5b919050565b6000806040838503121561008f57600080fd5b61009883610060565b91506100a660208401610060565b90509250929050565b610a97806100be6000396000f3fe608060405234801561001057600080fd5b50600436106100575760003560e01c80632931add11461005c5780633c0e0e61146100855780634f15b8b5146100a757806381f1aad9146100bc578063b2392a1b146100d1575b600080fd5b61006f61006a36600461087e565b6100e4565b60405161007c9190610957565b60405180910390f35b61009861009336600461087e565b610215565b60405161007c9392919061096a565b6100af61034e565b60405161007c9190610913565b6100cf6100ca36600461087e565b610479565b005b6100cf6100df366004610897565b61057d565b600054604051636f2dcae360e11b815260609133916001600160a01b039091169063de5b95c6906101199084906004016108ff565b60206040518083038186803b15801561013157600080fd5b505afa158015610145573d6000803e3d6000fd5b505050506040513d601f19601f8201168201806040525081019061016991906107a1565b61018e5760405162461bcd60e51b8152600401610185906109ad565b60405180910390fd5b600154604051631d02a49f60e11b8152600481018590526001600160a01b0390911690633a05493e9060240160006040518083038186803b1580156101d257600080fd5b505afa1580156101e6573d6000803e3d6000fd5b505050506040513d6000823e601f3d908101601f1916820160405261020e91908101906107c3565b9392505050565b600054604051636f2dcae360e11b81526060918291829133916001600160a01b039091169063de5b95c69061024e9084906004016108ff565b60206040518083038186803b15801561026657600080fd5b505afa15801561027a573d6000803e3d6000fd5b505050506040513d601f19601f8201168201806040525081019061029e91906107a1565b6102ba5760405162461bcd60e51b8152600401610185906109ad565b600154604051632e1a647760e21b81526001600160a01b039091169063b86991dc906102ec90889033906004016109d4565b60006040518083038186803b15801561030457600080fd5b505afa158015610318573d6000803e3d6000fd5b505050506040513d6000823e601f3d908101601f1916820160405261034091908101906107f7565b935093509350509193909250565b600054604051636f2dcae360e11b815260609133916001600160a01b039091169063de5b95c6906103839084906004016108ff565b60206040518083038186803b15801561039b57600080fd5b505afa1580156103af573d6000803e3d6000fd5b505050506040513d601f19601f820116820180604052508101906103d391906107a1565b6103ef5760405162461bcd60e51b8152600401610185906109ad565b600154604051630d10857f60e11b81526001600160a01b0390911690631a210afe9061041f9033906004016108ff565b60006040518083038186803b15801561043757600080fd5b505afa15801561044b573d6000803e3d6000fd5b505050506040513d6000823e601f3d908101601f1916820160405261047391908101906106f5565b91505090565b600054604051636f2dcae360e11b815233916001600160a01b03169063de5b95c6906104a99084906004016108ff565b60206040518083038186803b1580156104c157600080fd5b505afa1580156104d5573d6000803e3d6000fd5b505050506040513d601f19601f820116820180604052508101906104f991906107a1565b6105155760405162461bcd60e51b8152600401610185906109ad565b60015460405163411e162760e01b81526001600160a01b039091169063411e16279061054790859033906004016109d4565b600060405180830381600087803b15801561056157600080fd5b505af1158015610575573d6000803e3d6000fd5b505050505050565b600054604051636f2dcae360e11b815233916001600160a01b03169063de5b95c6906105ad9084906004016108ff565b60206040518083038186803b1580156105c557600080fd5b505afa1580156105d9573d6000803e3d6000fd5b505050506040513d601f19601f820116820180604052508101906105fd91906107a1565b6106195760405162461bcd60e51b8152600401610185906109ad565b600154604051635d89cd6f60e11b8152600481018590523360248201526001600160a01b0384811660448301529091169063bb139ade90606401600060405180830381600087803b15801561066d57600080fd5b505af1158015610681573d6000803e3d6000fd5b50505050505050565b600082601f83011261069b57600080fd5b81516001600160401b038111156106b4576106b4610a4b565b6106c7601f8201601f19166020016109eb565b8181528460208386010111156106dc57600080fd5b6106ed826020830160208701610a1b565b949350505050565b6000602080838503121561070857600080fd5b82516001600160401b038082111561071f57600080fd5b818501915085601f83011261073357600080fd5b81518181111561074557610745610a4b565b8060051b91506107568483016109eb565b8181528481019084860184860187018a101561077157600080fd5b600095505b83861015610794578051835260019590950194918601918601610776565b5098975050505050505050565b6000602082840312156107b357600080fd5b8151801515811461020e57600080fd5b6000602082840312156107d557600080fd5b81516001600160401b038111156107eb57600080fd5b6106ed8482850161068a565b60008060006060848603121561080c57600080fd5b83516001600160401b038082111561082357600080fd5b61082f8783880161068a565b9450602086015191508082111561084557600080fd5b6108518783880161068a565b9350604086015191508082111561086757600080fd5b506108748682870161068a565b9150509250925092565b60006020828403121561089057600080fd5b5035919050565b600080604083850312156108aa57600080fd5b8235915060208301356001600160a01b03811681146108c857600080fd5b809150509250929050565b600081518084526108eb816020860160208601610a1b565b601f01601f19169290920160200192915050565b6001600160a01b0391909116815260200190565b6020808252825182820181905260009190848201906040850190845b8181101561094b5783518352928401929184019160010161092f565b50909695505050505050565b60208152600061020e60208301846108d3565b60608152600061097d60608301866108d3565b828103602084015261098f81866108d3565b905082810360408401526109a381856108d3565b9695505050505050565b6020808252600d908201526c4e6f6d6573207573756172697360981b604082015260600190565b9182526001600160a01b0316602082015260400190565b604051601f8201601f191681016001600160401b0381118282101715610a1357610a13610a4b565b604052919050565b60005b83811015610a36578181015183820152602001610a1e565b83811115610a45576000848401525b50505050565b634e487b7160e01b600052604160045260246000fdfea2646970667358221220369b1e407498aac5333430b3eb2668bb84a9f75861767036968b39220174c43c64736f6c63430008070033",
  "linkReferences": {},
  "deployedLinkReferences": {}
}