{
  "_format": "hh-sol-artifact-1",
  "contractName": "Farmacies",
  "sourceName": "contracts/Farmacies.sol",
  "abi": [
    {
      "inputs": [
        {
          "internalType": "address",
          "name": "_contracteMinisteri",
          "type": "address"
        },
        {
          "internalType": "address",
          "name": "_aRecepta",
          "type": "address"
        }
      ],
      "stateMutability": "nonpayable",
      "type": "constructor"
    },
    {
      "inputs": [
        {
          "internalType": "uint256",
          "name": "_idRecepta",
          "type": "uint256"
        }
      ],
      "name": "canviaEstatRecepta",
      "outputs": [],
      "stateMutability": "nonpayable",
      "type": "function"
    },
    {
      "inputs": [],
      "name": "enviaReceptesAlMinisteri",
      "outputs": [],
      "stateMutability": "nonpayable",
      "type": "function"
    },
    {
      "inputs": [
        {
          "internalType": "uint256",
          "name": "_idRecepta",
          "type": "uint256"
        }
      ],
      "name": "visualitzaRecepta",
      "outputs": [
        {
          "internalType": "string",
          "name": "valida",
          "type": "string"
        },
        {
          "internalType": "string",
          "name": "nomUsuari",
          "type": "string"
        },
        {
          "internalType": "string",
          "name": "nomMetge",
          "type": "string"
        },
        {
          "internalType": "string",
          "name": "medicament",
          "type": "string"
        },
        {
          "internalType": "string",
          "name": "ium",
          "type": "string"
        }
      ],
      "stateMutability": "view",
      "type": "function"
    }
  ],
  "bytecode": "0x608060405234801561001057600080fd5b506040516107ae3803806107ae83398101604081905261002f91610089565b600280546001600160a01b039384166001600160a01b03199182168117909255600080548216909217909155600180549290931691161790556100bc565b80516001600160a01b038116811461008457600080fd5b919050565b6000806040838503121561009c57600080fd5b6100a58361006d565b91506100b36020840161006d565b90509250929050565b6106e3806100cb6000396000f3fe608060405234801561001057600080fd5b50600436106100415760003560e01c80633c0e0e61146100465780639318a28314610073578063c59156461461007d575b600080fd5b610059610054366004610561565b610090565b60405161006a9594939291906105ba565b60405180910390f35b61007b6101db565b005b61007b61008b366004610561565b6102dc565b600054604051637358610960e11b8152606091829182918291829133916001600160a01b039091169063e6b0c212906100cd9084906004016105a6565b60206040518083038186803b1580156100e557600080fd5b505afa1580156100f9573d6000803e3d6000fd5b505050506040513d601f19601f8201168201806040525081019061011d9190610467565b6101425760405162461bcd60e51b815260040161013990610627565b60405180910390fd5b60015460405163c7514f7d60e01b81526001600160a01b039091169063c7514f7d90610174908a903390600401610650565b60006040518083038186803b15801561018c57600080fd5b505afa1580156101a0573d6000803e3d6000fd5b505050506040513d6000823e601f3d908101601f191682016040526101c89190810190610490565b939b929a50909850965090945092505050565b600054604051637358610960e11b815233916001600160a01b03169063e6b0c2129061020b9084906004016105a6565b60206040518083038186803b15801561022357600080fd5b505afa158015610237573d6000803e3d6000fd5b505050506040513d601f19601f8201168201806040525081019061025b9190610467565b6102775760405162461bcd60e51b815260040161013990610627565b600154604051632ed22fd160e01b81526001600160a01b0390911690632ed22fd1906102a79033906004016105a6565b600060405180830381600087803b1580156102c157600080fd5b505af11580156102d5573d6000803e3d6000fd5b5050505050565b600054604051637358610960e11b815233916001600160a01b03169063e6b0c2129061030c9084906004016105a6565b60206040518083038186803b15801561032457600080fd5b505afa158015610338573d6000803e3d6000fd5b505050506040513d601f19601f8201168201806040525081019061035c9190610467565b6103785760405162461bcd60e51b815260040161013990610627565b600154604051630337b17560e61b81526001600160a01b039091169063cdec5d40906103aa9085903390600401610650565b600060405180830381600087803b1580156103c457600080fd5b505af11580156103d8573d6000803e3d6000fd5b505050505050565b600082601f8301126103f157600080fd5b81516001600160401b038082111561040b5761040b610697565b604051601f8301601f19908116603f0116810190828211818310171561043357610433610697565b8160405283815286602085880101111561044c57600080fd5b61045d846020830160208901610667565b9695505050505050565b60006020828403121561047957600080fd5b8151801515811461048957600080fd5b9392505050565b600080600080600060a086880312156104a857600080fd5b85516001600160401b03808211156104bf57600080fd5b6104cb89838a016103e0565b965060208801519150808211156104e157600080fd5b6104ed89838a016103e0565b9550604088015191508082111561050357600080fd5b61050f89838a016103e0565b9450606088015191508082111561052557600080fd5b61053189838a016103e0565b9350608088015191508082111561054757600080fd5b50610554888289016103e0565b9150509295509295909350565b60006020828403121561057357600080fd5b5035919050565b60008151808452610592816020860160208601610667565b601f01601f19169290920160200192915050565b6001600160a01b0391909116815260200190565b60a0815260006105cd60a083018861057a565b82810360208401526105df818861057a565b905082810360408401526105f3818761057a565b90508281036060840152610607818661057a565b9050828103608084015261061b818561057a565b98975050505050505050565b6020808252600f908201526e4e6f6d6573206661726d616369657360881b604082015260600190565b9182526001600160a01b0316602082015260400190565b60005b8381101561068257818101518382015260200161066a565b83811115610691576000848401525b50505050565b634e487b7160e01b600052604160045260246000fdfea26469706673582212204b7b3c7a73a304280049aca784bf99a72d3fb6debfbeeb119978ff006a1aaa3a64736f6c63430008070033",
  "linkReferences": {},
  "deployedLinkReferences": {}
}