{
  "_format": "hh-sol-artifact-1",
  "contractName": "Farmacies",
  "sourceName": "contracts/Farmacies.sol",
  "abi": [
    {
      "inputs": [
        {
          "internalType": "address",
          "name": "_contracteMinisteri",
          "type": "address"
        },
        {
          "internalType": "address",
          "name": "_aRecepta",
          "type": "address"
        }
      ],
      "stateMutability": "nonpayable",
      "type": "constructor"
    },
    {
      "inputs": [],
      "name": "enviaReceptesAlMinisteri",
      "outputs": [],
      "stateMutability": "nonpayable",
      "type": "function"
    },
    {
      "inputs": [
        {
          "internalType": "uint256",
          "name": "_idRecepta",
          "type": "uint256"
        }
      ],
      "name": "visualitzaRecepta",
      "outputs": [
        {
          "internalType": "string",
          "name": "valida",
          "type": "string"
        },
        {
          "internalType": "string",
          "name": "nomUsuari",
          "type": "string"
        },
        {
          "internalType": "string",
          "name": "nomMetge",
          "type": "string"
        },
        {
          "internalType": "string",
          "name": "medicament",
          "type": "string"
        },
        {
          "internalType": "string",
          "name": "ium",
          "type": "string"
        }
      ],
      "stateMutability": "nonpayable",
      "type": "function"
    }
  ],
  "bytecode": "0x608060405234801561001057600080fd5b5060405161068438038061068483398101604081905261002f91610089565b600280546001600160a01b039384166001600160a01b03199182168117909255600080548216909217909155600180549290931691161790556100bc565b80516001600160a01b038116811461008457600080fd5b919050565b6000806040838503121561009c57600080fd5b6100a58361006d565b91506100b36020840161006d565b90509250929050565b6105b9806100cb6000396000f3fe608060405234801561001057600080fd5b50600436106100365760003560e01c80633c0e0e611461003b5780639318a28314610068575b600080fd5b61004e610049366004610435565b610072565b60405161005f95949392919061047a565b60405180910390f35b6100706101ba565b005b600054604051637358610960e11b8152336004820181905260609283928392839283926001600160a01b039091169063e6b0c2129060240160206040518083038186803b1580156100c257600080fd5b505afa1580156100d6573d6000803e3d6000fd5b505050506040513d601f19601f820116820180604052508101906100fa919061033a565b61011f5760405162461bcd60e51b8152600401610116906104e7565b60405180910390fd5b60015460405163c7514f7d60e01b8152600481018990523360248201526001600160a01b039091169063c7514f7d90604401600060405180830381600087803b15801561016b57600080fd5b505af115801561017f573d6000803e3d6000fd5b505050506040513d6000823e601f3d908101601f191682016040526101a79190810190610363565b939b929a50909850965090945092505050565b600054604051637358610960e11b81523360048201819052916001600160a01b03169063e6b0c2129060240160206040518083038186803b1580156101fe57600080fd5b505afa158015610212573d6000803e3d6000fd5b505050506040513d601f19601f82011682018060405250810190610236919061033a565b6102525760405162461bcd60e51b8152600401610116906104e7565b600154604051632ed22fd160e01b81523360048201526001600160a01b0390911690632ed22fd190602401600060405180830381600087803b15801561029757600080fd5b505af11580156102ab573d6000803e3d6000fd5b5050505050565b600082601f8301126102c357600080fd5b815167ffffffffffffffff808211156102de576102de61056d565b604051601f8301601f19908116603f011681019082821181831017156103065761030661056d565b8160405283815286602085880101111561031f57600080fd5b61033084602083016020890161053d565b9695505050505050565b60006020828403121561034c57600080fd5b8151801515811461035c57600080fd5b9392505050565b600080600080600060a0868803121561037b57600080fd5b855167ffffffffffffffff8082111561039357600080fd5b61039f89838a016102b2565b965060208801519150808211156103b557600080fd5b6103c189838a016102b2565b955060408801519150808211156103d757600080fd5b6103e389838a016102b2565b945060608801519150808211156103f957600080fd5b61040589838a016102b2565b9350608088015191508082111561041b57600080fd5b50610428888289016102b2565b9150509295509295909350565b60006020828403121561044757600080fd5b5035919050565b6000815180845261046681602086016020860161053d565b601f01601f19169290920160200192915050565b60a08152600061048d60a083018861044e565b828103602084015261049f818861044e565b905082810360408401526104b3818761044e565b905082810360608401526104c7818661044e565b905082810360808401526104db818561044e565b98975050505050505050565b60208082526036908201527f4e6f6d6573206c6573206661726d61636965732076616c69646164657320706f6040820152753232b71032bc32b1baba3090363090333ab731b4b79760511b606082015260800190565b60005b83811015610558578181015183820152602001610540565b83811115610567576000848401525b50505050565b634e487b7160e01b600052604160045260246000fdfea2646970667358221220ded438c5818f902d4bcab8f154b84d27232f50eb643436223f7b95c3c278dd9064736f6c63430008070033",
  "linkReferences": {},
  "deployedLinkReferences": {}
}