{
  "_format": "hh-sol-artifact-1",
  "contractName": "Farmacies",
  "sourceName": "contracts/Farmacies.sol",
  "abi": [
    {
      "inputs": [
        {
          "internalType": "address",
          "name": "_contracteMinisteri",
          "type": "address"
        },
        {
          "internalType": "address",
          "name": "_aRecepta",
          "type": "address"
        }
      ],
      "stateMutability": "nonpayable",
      "type": "constructor"
    },
    {
      "inputs": [],
      "name": "enviaReceptesAlMinisteri",
      "outputs": [],
      "stateMutability": "nonpayable",
      "type": "function"
    },
    {
      "inputs": [
        {
          "internalType": "uint256",
          "name": "_idRecepta",
          "type": "uint256"
        }
      ],
      "name": "visualitzaRecepta",
      "outputs": [
        {
          "internalType": "string",
          "name": "valida",
          "type": "string"
        },
        {
          "internalType": "string",
          "name": "nomUsuari",
          "type": "string"
        },
        {
          "internalType": "string",
          "name": "nomMetge",
          "type": "string"
        },
        {
          "internalType": "string",
          "name": "medicament",
          "type": "string"
        },
        {
          "internalType": "string",
          "name": "ium",
          "type": "string"
        }
      ],
      "stateMutability": "nonpayable",
      "type": "function"
    }
  ],
  "bytecode": "0x608060405234801561001057600080fd5b5060405161067738038061067783398101604081905261002f91610089565b600280546001600160a01b039384166001600160a01b03199182168117909255600080548216909217909155600180549290931691161790556100bc565b80516001600160a01b038116811461008457600080fd5b919050565b6000806040838503121561009c57600080fd5b6100a58361006d565b91506100b36020840161006d565b90509250929050565b6105ac806100cb6000396000f3fe608060405234801561001057600080fd5b50600436106100365760003560e01c80633c0e0e611461003b5780639318a28314610068575b600080fd5b61004e610049366004610441565b610072565b60405161005f95949392919061049a565b60405180910390f35b6100706101bf565b005b600054604051637358610960e11b8152606091829182918291829133916001600160a01b039091169063e6b0c212906100af908490600401610486565b60206040518083038186803b1580156100c757600080fd5b505afa1580156100db573d6000803e3d6000fd5b505050506040513d601f19601f820116820180604052508101906100ff9190610347565b6101245760405162461bcd60e51b815260040161011b90610507565b60405180910390fd5b60015460405163c7514f7d60e01b8152600481018990523360248201526001600160a01b039091169063c7514f7d90604401600060405180830381600087803b15801561017057600080fd5b505af1158015610184573d6000803e3d6000fd5b505050506040513d6000823e601f3d908101601f191682016040526101ac9190810190610370565b939b929a50909850965090945092505050565b600054604051637358610960e11b815233916001600160a01b03169063e6b0c212906101ef908490600401610486565b60206040518083038186803b15801561020757600080fd5b505afa15801561021b573d6000803e3d6000fd5b505050506040513d601f19601f8201168201806040525081019061023f9190610347565b61025b5760405162461bcd60e51b815260040161011b90610507565b600154604051632ed22fd160e01b81526001600160a01b0390911690632ed22fd19061028b903390600401610486565b600060405180830381600087803b1580156102a557600080fd5b505af11580156102b9573d6000803e3d6000fd5b5050505050565b600082601f8301126102d157600080fd5b81516001600160401b03808211156102eb576102eb610560565b604051601f8301601f19908116603f0116810190828211818310171561031357610313610560565b8160405283815286602085880101111561032c57600080fd5b61033d846020830160208901610530565b9695505050505050565b60006020828403121561035957600080fd5b8151801515811461036957600080fd5b9392505050565b600080600080600060a0868803121561038857600080fd5b85516001600160401b038082111561039f57600080fd5b6103ab89838a016102c0565b965060208801519150808211156103c157600080fd5b6103cd89838a016102c0565b955060408801519150808211156103e357600080fd5b6103ef89838a016102c0565b9450606088015191508082111561040557600080fd5b61041189838a016102c0565b9350608088015191508082111561042757600080fd5b50610434888289016102c0565b9150509295509295909350565b60006020828403121561045357600080fd5b5035919050565b60008151808452610472816020860160208601610530565b601f01601f19169290920160200192915050565b6001600160a01b0391909116815260200190565b60a0815260006104ad60a083018861045a565b82810360208401526104bf818861045a565b905082810360408401526104d3818761045a565b905082810360608401526104e7818661045a565b905082810360808401526104fb818561045a565b98975050505050505050565b6020808252600f908201526e4e6f6d6573206661726d616369657360881b604082015260600190565b60005b8381101561054b578181015183820152602001610533565b8381111561055a576000848401525b50505050565b634e487b7160e01b600052604160045260246000fdfea264697066735822122091faacb94925e6b911826bddf1b70a7fe1504b112242278db92b3dfdb4c72e1264736f6c63430008070033",
  "linkReferences": {},
  "deployedLinkReferences": {}
}