{
  "_format": "hh-sol-artifact-1",
  "contractName": "Ministeri",
  "sourceName": "contracts/Ministeri.sol",
  "abi": [
    {
      "inputs": [],
      "stateMutability": "nonpayable",
      "type": "constructor"
    },
    {
      "inputs": [],
      "name": "CREAACTORS",
      "outputs": [],
      "stateMutability": "nonpayable",
      "type": "function"
    },
    {
      "inputs": [
        {
          "internalType": "address",
          "name": "_aFarmacia",
          "type": "address"
        }
      ],
      "name": "baixaFarmacia",
      "outputs": [],
      "stateMutability": "nonpayable",
      "type": "function"
    },
    {
      "inputs": [
        {
          "internalType": "address",
          "name": "_aHospital",
          "type": "address"
        }
      ],
      "name": "baixaHospital",
      "outputs": [],
      "stateMutability": "nonpayable",
      "type": "function"
    },
    {
      "inputs": [
        {
          "internalType": "address",
          "name": "_aUsuari",
          "type": "address"
        }
      ],
      "name": "baixaUsuari",
      "outputs": [],
      "stateMutability": "nonpayable",
      "type": "function"
    },
    {
      "inputs": [
        {
          "internalType": "address",
          "name": "_aFarmacia",
          "type": "address"
        },
        {
          "internalType": "string",
          "name": "_nom",
          "type": "string"
        }
      ],
      "name": "creaFarmacia",
      "outputs": [],
      "stateMutability": "nonpayable",
      "type": "function"
    },
    {
      "inputs": [
        {
          "internalType": "address",
          "name": "_aHospital",
          "type": "address"
        },
        {
          "internalType": "string",
          "name": "_nom",
          "type": "string"
        }
      ],
      "name": "creaHospital",
      "outputs": [],
      "stateMutability": "nonpayable",
      "type": "function"
    },
    {
      "inputs": [
        {
          "internalType": "address",
          "name": "_aUsuari",
          "type": "address"
        },
        {
          "internalType": "string",
          "name": "_nom",
          "type": "string"
        }
      ],
      "name": "creaUsuari",
      "outputs": [],
      "stateMutability": "nonpayable",
      "type": "function"
    },
    {
      "inputs": [],
      "name": "despelegaTotsElsSC",
      "outputs": [
        {
          "internalType": "address",
          "name": "hospital",
          "type": "address"
        },
        {
          "internalType": "address",
          "name": "farmacies",
          "type": "address"
        },
        {
          "internalType": "address",
          "name": "usuaris",
          "type": "address"
        },
        {
          "internalType": "address",
          "name": "metges",
          "type": "address"
        },
        {
          "internalType": "address",
          "name": "token",
          "type": "address"
        }
      ],
      "stateMutability": "nonpayable",
      "type": "function"
    },
    {
      "inputs": [
        {
          "internalType": "address",
          "name": "_address",
          "type": "address"
        }
      ],
      "name": "estatFarmacia",
      "outputs": [
        {
          "internalType": "bool",
          "name": "",
          "type": "bool"
        }
      ],
      "stateMutability": "view",
      "type": "function"
    },
    {
      "inputs": [
        {
          "internalType": "address",
          "name": "_address",
          "type": "address"
        }
      ],
      "name": "estatHopital",
      "outputs": [
        {
          "internalType": "bool",
          "name": "",
          "type": "bool"
        }
      ],
      "stateMutability": "view",
      "type": "function"
    },
    {
      "inputs": [
        {
          "internalType": "address",
          "name": "_address",
          "type": "address"
        }
      ],
      "name": "estatUsuari",
      "outputs": [
        {
          "internalType": "bool",
          "name": "",
          "type": "bool"
        }
      ],
      "stateMutability": "view",
      "type": "function"
    },
    {
      "inputs": [
        {
          "internalType": "address",
          "name": "_idUsuari",
          "type": "address"
        }
      ],
      "name": "nomUsuari",
      "outputs": [
        {
          "internalType": "string",
          "name": "",
          "type": "string"
        }
      ],
      "stateMutability": "view",
      "type": "function"
    }
  ],
  "bytecode": "0x608060405234801561001057600080fd5b50600080546001600160a01b0319908116301790915560038054821633179055600480549091167392482ba45a4d2186dafb486b322c6d0b88410fe71790556171218061005e6000396000f3fe60806040523480156200001157600080fd5b5060043610620000c35760003560e01c8063a632bd9f116200007a578063a632bd9f1462000195578063ad5bf9b9146200019f578063c2a0102514620001b6578063de5b95c614620001cd578063e6b0c21214620001f5578063f9158a76146200020c57600080fd5b8063209cc94314620000c857806330adbdd514620001115780633e5bea03146200012a578063670ff713146200014157806387d7a8c31462000167578063a08ccc4f146200017e575b600080fd5b620000d262000223565b604080516001600160a01b03968716815294861660208601529285169284019290925283166060830152909116608082015260a0015b60405180910390f35b6200012862000122366004620011d3565b620006c0565b005b620001286200013b366004620011f8565b620007c2565b6200015862000152366004620011d3565b620008c3565b604051620001089190620012c6565b6200012862000178366004620011f8565b620009f5565b620001286200018f366004620011f8565b62000aa2565b6200012862000b51565b62000128620001b0366004620011d3565b62000c1d565b62000128620001c7366004620011d3565b62000d1b565b620001e4620001de366004620011d3565b62000e19565b604051901515815260200162000108565b620001e462000206366004620011d3565b62000f10565b620001e46200021d366004620011d3565b62000fed565b600354600090819081908190819033906001600160a01b03168114620002665760405162461bcd60e51b81526004016200025d906200131e565b60405180910390fd5b6000546040516001600160a01b03909116906200028390620010ca565b6001600160a01b039091168152602001604051809103906000f080158015620002b0573d6000803e3d6000fd5b50600680546001600160a01b039283166001600160a01b03199182168117909255600180549091168217905560035460005460405191841693169190620002f790620010d8565b6001600160a01b03938416815291831660208301529091166040820152606001604051809103906000f08015801562000334573d6000803e3d6000fd5b50600580546001600160a01b039283166001600160a01b031991821681179092556002805490911682179055600154604051638719fedd60e01b8152600481019290925290911690638719fedd90602401600060405180830381600087803b158015620003a057600080fd5b505af1158015620003b5573d6000803e3d6000fd5b50506006546005546040516001600160a01b03928316945091169150620003dc90620010e6565b6001600160a01b03928316815291166020820152604001604051809103906000f08015801562000410573d6000803e3d6000fd5b50600980546001600160a01b0319166001600160a01b03928316908117909155600154604051632f9cf00160e21b815260048101929092529091169063be73c00490602401600060405180830381600087803b1580156200047057600080fd5b505af115801562000485573d6000803e3d6000fd5b5050600254600954604051632f9cf00160e21b81526001600160a01b0391821660048201529116925063be73c0049150602401600060405180830381600087803b158015620004d357600080fd5b505af1158015620004e8573d6000803e3d6000fd5b50506000546005546040516001600160a01b039283169450911691506200050f90620010f4565b6001600160a01b03928316815291166020820152604001604051809103906000f08015801562000543573d6000803e3d6000fd5b50600780546001600160a01b0319166001600160a01b039283169081179091556002546040516354476d3b60e11b815260048101929092529091169063a88eda7690602401600060405180830381600087803b158015620005a357600080fd5b505af1158015620005b8573d6000803e3d6000fd5b50506000546005546040516001600160a01b03928316945091169150620005df9062001102565b6001600160a01b03928316815291166020820152604001604051809103906000f08015801562000613573d6000803e3d6000fd5b50600880546001600160a01b0319166001600160a01b0392831690811790915560025460405163782799a760e11b815260048101929092529091169063f04f334e90602401600060405180830381600087803b1580156200067357600080fd5b505af115801562000688573d6000803e3d6000fd5b50506006546007546008546009546005546001600160a01b039485169d9385169c509184169a50831698509190911695509350505050565b60035433906001600160a01b03168114620006ef5760405162461bcd60e51b81526004016200025d906200131e565b6001600160a01b0382166000908152600a602052604081205460ff1660018111156200071f576200071f62001410565b14620007945760405162461bcd60e51b815260206004820152603c60248201527f4e6f6d657320657320706f64656e20646f6e617220646520626169786120656c60448201527f7320686f73706974616c7320616d622065737461742022616c7461220000000060648201526084016200025d565b6001600160a01b0382166000908152600a6020526040902080546001919060ff191682805b02179055505050565b60088151116200084e5760405162461bcd60e51b815260206004820152604a60248201527f53276861206427696e646963617220756e206e6f6d2073656e6365722064652060448201527f6c277573756172692e204578656d706c653a20224e6f6d204c6c696e6174676560648201526910263634b730ba33b29160b11b608482015260a4016200025d565b604080518082018252600080825260208083018590526001600160a01b0386168252600b9052919091208151815483929190829060ff1916600183818111156200089c576200089c62001410565b02179055506020828101518051620008bb926001850192019062001110565b505050505050565b60055460609033906001600160a01b0316811480620008ef57506008546001600160a01b038281169116145b806200090857506006546001600160a01b038281169116145b806200092157506007546001600160a01b038281169116145b620009405760405162461bcd60e51b81526004016200025d9062001368565b6001600160a01b0383166000908152600b6020526040902060010180546200096890620013d9565b80601f01602080910402602001604051908101604052809291908181526020018280546200099690620013d9565b8015620009e75780601f10620009bb57610100808354040283529160200191620009e7565b820191906000526020600020905b815481529060010190602001808311620009c957829003601f168201915b505050505091505b50919050565b600281511162000a545760405162461bcd60e51b8152602060048201526024808201527f53276861206427696e646963617220756e206e6f6d20706572206c27486f73706044820152631a5d185b60e21b60648201526084016200025d565b604080518082018252600080825260208083018590526001600160a01b0386168252600a9052919091208151815483929190829060ff1916600183818111156200089c576200089c62001410565b600281511162000b035760405162461bcd60e51b815260206004820152602560248201527f53276861206427696e646963617220756e206e6f6d20706572206c61206661726044820152646d6163696160d81b60648201526084016200025d565b604080518082018252600080825260208083018590526001600160a01b0386168252600c9052919091208151815483929190829060ff1916600183818111156200089c576200089c62001410565b62000b9573ab8483f64d9c6d1ecf9b849ae677dd3315835cb26040518060400160405280600c81526020016b1b9bdb481a1bdcdc1a5d185b60a21b815250620009f5565b62000bd9734b20993bc481177ec7e8f571cecae8a9e22c02db6040518060400160405280600c81526020016b6e6f6d206661726d6163696160a01b81525062000aa2565b62000c1b7378731d3ca6b7e34ac0f824c42a7cc18a495cabab6040518060400160405280600a8152602001696e6f6d2075737561726960b01b815250620007c2565b565b60035433906001600160a01b0316811462000c4c5760405162461bcd60e51b81526004016200025d906200131e565b6001600160a01b0382166000908152600c602052604081205460ff16600181111562000c7c5762000c7c62001410565b1462000cf15760405162461bcd60e51b815260206004820152603c60248201527f4e6f6d657320657320706f64656e20646f6e6172206465206261697861206c6560448201527f73206661726d616369657320616d622065737461742022616c7461220000000060648201526084016200025d565b6001600160a01b0382166000908152600c6020526040902080546001919060ff19168280620007b9565b60035433906001600160a01b0316811462000d4a5760405162461bcd60e51b81526004016200025d906200131e565b6001600160a01b0382166000908152600b602052604081205460ff16600181111562000d7a5762000d7a62001410565b1462000def5760405162461bcd60e51b815260206004820152603a60248201527f4e6f6d657320657320706f64656e20646f6e617220646520626169786120656c60448201527f73207573756172697320616d622065737461742022616c74612200000000000060648201526084016200025d565b6001600160a01b0382166000908152600b6020526040902080546001919060ff19168280620007b9565b60055460009033906001600160a01b031681148062000e4557506008546001600160a01b038281169116145b8062000e5e57506006546001600160a01b038281169116145b8062000e7757506007546001600160a01b038281169116145b62000e965760405162461bcd60e51b81526004016200025d9062001368565b6001600160a01b0383166000908152600b60205260409020600101805462000ebe90620013d9565b15905062000f07576001600160a01b0383166000908152600b602052604081205460ff16600181111562000ef65762000ef662001410565b141562000f075760019150620009ef565b50600092915050565b60055460009033906001600160a01b031681148062000f3c57506008546001600160a01b038281169116145b8062000f5557506006546001600160a01b038281169116145b8062000f6e57506007546001600160a01b038281169116145b62000f8d5760405162461bcd60e51b81526004016200025d9062001368565b6001600160a01b0383166000908152600c60205260409020600101805462000fb590620013d9565b15905062000f07576001600160a01b0383166000908152600c602052604081205460ff16600181111562000ef65762000ef662001410565b60055460009033906001600160a01b03168114806200101957506008546001600160a01b038281169116145b806200103257506006546001600160a01b038281169116145b806200104b57506007546001600160a01b038281169116145b6200106a5760405162461bcd60e51b81526004016200025d9062001368565b6001600160a01b0383166000908152600a6020526040902060010180546200109290620013d9565b15905062000f07576001600160a01b0383166000908152600a602052604081205460ff16600181111562000ef65762000ef662001410565b611143806200143d83390190565b61354d806200258083390190565b6104598062005acd83390190565b6106848062005f2683390190565b610b4280620065aa83390190565b8280546200111e90620013d9565b90600052602060002090601f0160209004810192826200114257600085556200118d565b82601f106200115d57805160ff19168380011785556200118d565b828001600101855582156200118d579182015b828111156200118d57825182559160200191906001019062001170565b506200119b9291506200119f565b5090565b5b808211156200119b5760008155600101620011a0565b80356001600160a01b0381168114620011ce57600080fd5b919050565b600060208284031215620011e657600080fd5b620011f182620011b6565b9392505050565b600080604083850312156200120c57600080fd5b6200121783620011b6565b9150602083013567ffffffffffffffff808211156200123557600080fd5b818501915085601f8301126200124a57600080fd5b8135818111156200125f576200125f62001426565b604051601f8201601f19908116603f011681019083821181831017156200128a576200128a62001426565b81604052828152886020848701011115620012a457600080fd5b8260208601602083013760006020848301015280955050505050509250929050565b600060208083528351808285015260005b81811015620012f557858101830151858201604001528201620012d7565b8181111562001308576000604083870101525b50601f01601f1916929092016040019392505050565b6020808252602a908201527f4e6f6d657320656c206d696e69737465726920706f7420657865637574617220604082015269363090333ab731b4b79760b11b606082015260800190565b6020808252604b908201527f4e6f6d6573206c657320616472656365732064656c7320534320646573706c6160408201527f676174732070656c206d696e6973746572692074656e656e206163636573206160608201526a10363090333ab731b4b79760a91b608082015260a00190565b600181811c90821680620013ee57607f821691505b60208210811415620009ef57634e487b7160e01b600052602260045260246000fd5b634e487b7160e01b600052602160045260246000fd5b634e487b7160e01b600052604160045260246000fdfe608060405234801561001057600080fd5b5060405161114338038061114383398101604081905261002f9161005e565b600080546001600160a01b039092166001600160a01b031992831681179091556001805490921617905561008e565b60006020828403121561007057600080fd5b81516001600160a01b038116811461008757600080fd5b9392505050565b6110a68061009d6000396000f3fe608060405234801561001057600080fd5b50600436106100885760003560e01c80636cb69e271161005b5780636cb69e27146100e657806370d93aaa146101095780638719fedd1461011f578063be73c0041461013257600080fd5b80633b3ae18b1461008d578063495673a2146100975780634ada9fdb146100c05780636898993a146100d3575b600080fd5b610095610145565b005b6100aa6100a5366004610c67565b61018b565b6040516100b79190610ea8565b60405180910390f35b6100956100ce366004610c67565b6102c2565b6100956100e1366004610c89565b610538565b6100f96100f4366004610c67565b6107a3565b60405190151581526020016100b7565b61011161097c565b6040516100b7929190610f18565b61009561012d366004610c67565b610ae5565b610095610140366004610c67565b610b34565b61018973617f2e2fd72fd9d5503197092ac168c91465e7f2604051806040016040528060098152602001686e6f6d206d6574676560b81b81525063075bcd15610538565b565b60035460609033906001600160a01b031681146102155760405162461bcd60e51b815260206004820152603760248201527f4e6f6d657320656c7320636f6e7472616374657320646520746f6b656e73207060448201527f6f64656e2065786563757461206c612066756e63696f2e00000000000000000060648201526084015b60405180910390fd5b6001600160a01b0383166000908152600460205260409020600101805461023b90610fa8565b80601f016020809104026020016040519081016040528092919081815260200182805461026790610fa8565b80156102b45780601f10610289576101008083540402835291602001916102b4565b820191906000526020600020905b81548152906001019060200180831161029757829003601f168201915b505050505091505b50919050565b600054604051637c8ac53b60e11b81523360048201819052839290916001600160a01b039091169063f9158a769060240160206040518083038186803b15801561030b57600080fd5b505afa15801561031f573d6000803e3d6000fd5b505050506040513d601f19601f820116820180604052508101906103439190610d54565b6103ae5760405162461bcd60e51b815260206004820152603660248201527f4e6f6d657320656c7320686f73706974616c732076616c696461747320706f6460448201527532b71032bc32b1baba30b910363090333ab731b4b79760511b606482015260840161020c565b6001600160a01b038083166000908152600460205260409020600301548282169116146104435760405162461bcd60e51b815260206004820152603860248201527f4e6f6d6573206c27686f73706974616c2071756520686120637265617420656c60448201527f206d6574676520656c20706f74206d6f646966696361722e0000000000000000606482015260840161020c565b6001600160a01b0383166000908152600460209081526040808320805460ff60a01b1916600160a01b1790553383526005909152812080549161048583610f91565b90915550506001600160a01b03831660009081526006602090815260408083205433845260059092529091206001018054829081106104c6576104c6611044565b6000918252602080832090910180546001600160a01b03191690556001600160a01b03861682526004905260409081902090517fecfff8ae273df87d97eb650a0f3bde6adf5e795c28c73b524a2374650312b5859161052a91879160010190610def565b60405180910390a150505050565b60088251116105995760405162461bcd60e51b815260206004820152602760248201527f53276861206427696e646963617220756e206e6f6d20636f6d706c65742070656044820152666c206d6574676560c81b606482015260840161020c565b6105a281610b83565b60ff166009146106095760405162461bcd60e51b815260206004820152602c60248201527f456c206e756d65726f20646520636f6c2e6c656769617420686120646520746560448201526b6e697220392078696672657360a01b606482015260840161020c565b61063b6040805160a0810190915260008082526020820190815260606020820181905260006040830181905291015290565b600060208281018281526040808501879052606085018690523360808601526001600160a01b03888116855260049093529092208351815492166001600160a01b0319831681178255925184939192909183916001600160a81b03191617600160a01b8360018111156106b0576106b061102e565b0217905550604082015180516106d0916001840191602090910190610bb2565b5060608201516002820155608090910151600390910180546001600160a01b0319166001600160a01b0390921691909117905533600090815260056020526040812080549161071e83610fdd565b9091555050336000908152600560208181526040808420600190810180546001600160a01b038b168088526006865284882082905595855291820181558552919093200180546001600160a01b0319169091179055517f479f0a6864197d48e4ec2a1c8b765c7e42affc0b1b13db176a606f5718b033bf9061052a9086908690610dc3565b60035460009033906001600160a01b03168114806107ce57506001546001600160a01b038281169116145b806107e657506002546001600160a01b038281169116145b6108725760405162461bcd60e51b815260206004820152605160248201527f4e6f6d657320656c7320636f6e7472616374657320526563657074612c20566f60448201527f6c616e742c204d696e697374657269206f204d657467657320706f64656e20656064820152703c32b1baba3090363090333ab731b4b79760791b608482015260a40161020c565b6001600160a01b0383811660009081526004602081905260408083206003015492549051637c8ac53b60e11b81529284169183018290529092169063f9158a769060240160206040518083038186803b1580156108ce57600080fd5b505afa1580156108e2573d6000803e3d6000fd5b505050506040513d601f19601f820116820180604052508101906109069190610d54565b15610972576001600160a01b038416600090815260046020526040902060020154156109725760006001600160a01b038516600090815260046020526040902054600160a01b900460ff1660018111156109625761096261102e565b14156109725760019250506102bc565b5060009392505050565b60008054604051637c8ac53b60e11b8152336004820181905260609290916001600160a01b039091169063f9158a769060240160206040518083038186803b1580156109c757600080fd5b505afa1580156109db573d6000803e3d6000fd5b505050506040513d601f19601f820116820180604052508101906109ff9190610d54565b610a695760405162461bcd60e51b815260206004820152603560248201527f4e6f6d657320656c7320686f73706974616c732076616c696461747320706f6460448201527432b71032bc32b1baba3090363090333ab731b4b79760591b606482015260840161020c565b336000908152600560209081526040918290208054600190910180548451818502810185019095528085529193909290918391830182828015610ad557602002820191906000526020600020905b81546001600160a01b03168152600190910190602001808311610ab7575b5050505050905092509250509091565b60015433906001600160a01b03168114610b115760405162461bcd60e51b815260040161020c90610ebb565b50600380546001600160a01b0319166001600160a01b0392909216919091179055565b60015433906001600160a01b03168114610b605760405162461bcd60e51b815260040161020c90610ebb565b50600280546001600160a01b0319166001600160a01b0392909216919091179055565b6000805b8215610bac57610b98600a84610f6f565b925080610ba481610ff8565b915050610b87565b92915050565b828054610bbe90610fa8565b90600052602060002090601f016020900481019282610be05760008555610c26565b82601f10610bf957805160ff1916838001178555610c26565b82800160010185558215610c26579182015b82811115610c26578251825591602001919060010190610c0b565b50610c32929150610c36565b5090565b5b80821115610c325760008155600101610c37565b80356001600160a01b0381168114610c6257600080fd5b919050565b600060208284031215610c7957600080fd5b610c8282610c4b565b9392505050565b600080600060608486031215610c9e57600080fd5b610ca784610c4b565b9250602084013567ffffffffffffffff80821115610cc457600080fd5b818601915086601f830112610cd857600080fd5b813581811115610cea57610cea61105a565b604051601f8201601f19908116603f01168101908382118183101715610d1257610d1261105a565b81604052828152896020848701011115610d2b57600080fd5b826020860160208301376000602084830101528096505050505050604084013590509250925092565b600060208284031215610d6657600080fd5b81518015158114610c8257600080fd5b6000815180845260005b81811015610d9c57602081850181015186830182015201610d80565b81811115610dae576000602083870101525b50601f01601f19169290920160200192915050565b6001600160a01b0383168152604060208201819052600090610de790830184610d76565b949350505050565b60018060a01b0383168152600060206040818401526000845481600182811c915080831680610e1f57607f831692505b858310811415610e3d57634e487b7160e01b85526022600452602485fd5b6040880183905260608801818015610e5c5760018114610e6d57610e98565b60ff19861682528782019650610e98565b60008b81526020902060005b86811015610e9257815484820152908501908901610e79565b83019750505b50949a9950505050505050505050565b602081526000610c826020830184610d76565b60208082526037908201527f4e6f6d657320656c20636f6e7472616374652064656c204d696e69737465726960408201527f20706f742065786563757461206c612066756e63696f2e000000000000000000606082015260800190565b6000604082018483526020604081850152818551808452606086019150828701935060005b81811015610f625784516001600160a01b031683529383019391830191600101610f3d565b5090979650505050505050565b600082610f8c57634e487b7160e01b600052601260045260246000fd5b500490565b600081610fa057610fa0611018565b506000190190565b600181811c90821680610fbc57607f821691505b602082108114156102bc57634e487b7160e01b600052602260045260246000fd5b6000600019821415610ff157610ff1611018565b5060010190565b600060ff821660ff81141561100f5761100f611018565b60010192915050565b634e487b7160e01b600052601160045260246000fd5b634e487b7160e01b600052602160045260246000fd5b634e487b7160e01b600052603260045260246000fd5b634e487b7160e01b600052604160045260246000fdfea2646970667358221220be7f47ac887c0435e76469f43e6aaac3b35c8b431f7819fc9fbc5199db7b100064736f6c6343000807003360806040523480156200001157600080fd5b506040516200354d3803806200354d833981016040819052620000349162000222565b604051806040016040528060078152602001665265636570746160c81b815250604051806040016040528060048152602001631490d41560e21b8152506200008b620000856200010b60201b60201c565b6200010f565b8151620000a09060019060208501906200015f565b508051620000b69060029060208401906200015f565b5050600d80546001600160a01b039485166001600160a01b03199182168117909255600e805494861694821694909417909355600880548416909117905550600c8054939092169216919091179055620002a9565b3390565b600080546001600160a01b038381166001600160a01b0319831681178455604051919092169283917f8be0079c531659141344cd1fd0a4f28419497f9722a3daafe3b4186f6b6457e09190a35050565b8280546200016d906200026c565b90600052602060002090601f016020900481019282620001915760008555620001dc565b82601f10620001ac57805160ff1916838001178555620001dc565b82800160010185558215620001dc579182015b82811115620001dc578251825591602001919060010190620001bf565b50620001ea929150620001ee565b5090565b5b80821115620001ea5760008155600101620001ef565b80516001600160a01b03811681146200021d57600080fd5b919050565b6000806000606084860312156200023857600080fd5b620002438462000205565b9250620002536020850162000205565b9150620002636040850162000205565b90509250925092565b600181811c908216806200028157607f821691505b60208210811415620002a357634e487b7160e01b600052602260045260246000fd5b50919050565b61329480620002b96000396000f3fe608060405234801561001057600080fd5b50600436106101a95760003560e01c8063715018a6116100f9578063bb139ade11610097578063c87b56dd11610071578063c87b56dd146103b7578063e985e9c5146103ca578063f04f334e14610406578063f2fde38b1461041957600080fd5b8063bb139ade1461036d578063be73c00414610380578063c7514f7d1461039357600080fd5b8063a22cb465116100d3578063a22cb46514610312578063a88eda7614610325578063b86991dc14610338578063b88d4fde1461035a57600080fd5b8063715018a6146102f15780638da5cb5b146102f957806395d89b411461030a57600080fd5b806323b872dd11610166578063411e162711610140578063411e16271461029757806342842e0e146102aa5780636352211e146102bd57806370a08231146102d057600080fd5b806323b872dd1461025e5780632ed22fd1146102715780633a05493e1461028457600080fd5b806301ffc9a7146101ae57806306fdde03146101d6578063081812fc146101eb578063095ea7b3146102165780631a210afe1461022b57806322fde8171461024b575b600080fd5b6101c16101bc366004612c27565b61042c565b60405190151581526020015b60405180910390f35b6101de61047e565b6040516101cd9190612e45565b6101fe6101f9366004612cd8565b610510565b6040516001600160a01b0390911681526020016101cd565b610229610224366004612be0565b6105aa565b005b61023e6102393660046129e3565b6106c0565b6040516101cd9190612e01565b610229610259366004612a31565b61075b565b61022961026c366004612af1565b610b42565b61022961027f3660046129e3565b610b73565b6101de610292366004612cd8565b610d2d565b6102296102a5366004612d0a565b610e7a565b6102296102b8366004612af1565b61100e565b6101fe6102cb366004612cd8565b611029565b6102e36102de3660046129e3565b6110a0565b6040519081526020016101cd565b610229611127565b6000546001600160a01b03166101fe565b6101de61118d565b610229610320366004612ba9565b61119c565b6102296103333660046129e3565b6111ab565b61034b610346366004612d0a565b6111fa565b6040516101cd93929190612e58565b610229610368366004612b2d565b6114eb565b61022961037b366004612d2d565b61151d565b61022961038e3660046129e3565b6117e6565b6103a66103a1366004612d0a565b611835565b6040516101cd959493929190612e91565b6101de6103c5366004612cd8565b611e82565b6101c16103d83660046129fe565b6001600160a01b03918216600090815260066020908152604080832093909416825291909152205460ff1690565b6102296104143660046129e3565b611f6a565b6102296104273660046129e3565b611fb9565b60006001600160e01b031982166380ac58cd60e01b148061045d57506001600160e01b03198216635b5e139f60e01b145b8061047857506301ffc9a760e01b6001600160e01b03198316145b92915050565b60606001805461048d90613168565b80601f01602080910402602001604051908101604052809291908181526020018280546104b990613168565b80156105065780601f106104db57610100808354040283529160200191610506565b820191906000526020600020905b8154815290600101906020018083116104e957829003601f168201915b5050505050905090565b6000818152600360205260408120546001600160a01b031661058e5760405162461bcd60e51b815260206004820152602c60248201527f4552433732313a20617070726f76656420717565727920666f72206e6f6e657860448201526b34b9ba32b73a103a37b5b2b760a11b60648201526084015b60405180910390fd5b506000908152600560205260409020546001600160a01b031690565b60006105b582611029565b9050806001600160a01b0316836001600160a01b031614156106235760405162461bcd60e51b815260206004820152602160248201527f4552433732313a20617070726f76616c20746f2063757272656e74206f776e656044820152603960f91b6064820152608401610585565b336001600160a01b038216148061063f575061063f81336103d8565b6106b15760405162461bcd60e51b815260206004820152603860248201527f4552433732313a20617070726f76652063616c6c6572206973206e6f74206f7760448201527f6e6572206e6f7220617070726f76656420666f7220616c6c00000000000000006064820152608401610585565b6106bb8383612084565b505050565b600b5460609033906001600160a01b031681146106ef5760405162461bcd60e51b815260040161058590613032565b6001600160a01b0383166000908152601060209081526040918290208054835181840281018401909452808452909183018282801561074d57602002820191906000526020600020905b815481526020019060010190808311610739575b505050505091505b50919050565b60095433906001600160a01b031681146107875760405162461bcd60e51b815260040161058590613032565b6004610791875190565b116108125760405162461bcd60e51b815260206004820152604560248201527f53276861206427696e646963617220756e206e6f6d206465206d65646963616d60448201527f656e74202864697374616e636961206d696e696d612064652035206361726163606482015264746572732960d81b608482015260a401610585565b8451600d146108725760405162461bcd60e51b815260206004820152602660248201527f456c20636f646920756e69632049554d2068612064652074656e69722031332060448201526564696769747360d01b6064820152608401610585565b6108be6040805160c0810190915280600081526020016000815260200160006001600160a01b0316815260200160006001600160a01b0316815260200160608152602001606081525090565b6108cc600780546001019055565b60006108d760075490565b60008352905061ffff8616158015906108f3575060008560ff16115b8015610902575060008460ff16115b156109ba5773__$73785166eb94af412e1735ba7ee7be91af$__638c8d98a0878761092e8860016130ec565b6040516001600160e01b031960e086901b16815261ffff909316600484015260ff918216602484015216604482015260640160206040518083038186803b15801561097857600080fd5b505af415801561098c573d6000803e3d6000fd5b505050506040513d601f19601f820116820180604052508101906109b09190612cf1565b60208301526109c5565b637fffffff60208301525b6001600160a01b03808b16604080850191909152908a1660608401526080830189905260a083018890526000828152600f602052208251815484929190829060ff19166001836003811115610a1c57610a1c6131f8565b0217905550602082810151600183015560408301516002830180546001600160a01b039283166001600160a01b031991821617909155606085015160038501805491909316911617905560808301518051610a7d92600485019201906128bf565b5060a08201518051610a999160058401916020909101906128bf565b50905050610aab8260400151826120f2565b604080830180516001600160a01b0390811660009081526010602081815285832054878452601182528684205584519093168252825283812080546001810182559082529190200183905551606084015191517ffca24d952cfca0b05b2f6468d1ac6dc9f680d1fa92a15d82e8273c21d56a12c292610b2e929185908d90612dc4565b60405180910390a150505050505050505050565b610b4c3382612234565b610b685760405162461bcd60e51b815260040161058590612fe1565b6106bb83838361232b565b600a5433906001600160a01b03168114610bf55760405162461bcd60e51b815260206004820152603e60248201527f4e6f6d657320656c20636f6e747261637465206465206c6573206661726d616360448201527f69657320706f742063726964617220617175657374612066756e63696f2e00006064820152608401610585565b6001600160a01b038216600090815260106020908152604080832080548251818502810185019093528083529192909190830182828015610c5557602002820191906000526020600020905b815481526020019060010190808311610c41575b5050505050905060005b8151811015610d27576002600f6000848481518110610c8057610c8061320e565b60209081029190910181015182528101919091526040016000205460ff166003811115610caf57610caf6131f8565b1415610cf357610cee84600c60009054906101000a90046001600160a01b0316848481518110610ce157610ce161320e565b6020026020010151610b42565b610d15565b610d15828281518110610d0857610d0861320e565b60200260200101516124c7565b80610d1f8161319d565b915050610c5f565b50505050565b600b5460609033906001600160a01b03168114610d5c5760405162461bcd60e51b815260040161058590613032565b6000838152600f602052604081205460ff166003811115610d7f57610d7f6131f8565b1415610dab576040518060400160405280600681526020016563726561646160d01b8152509150610755565b60016000848152600f602052604090205460ff166003811115610dd057610dd06131f8565b1415610dfd57604051806040016040528060078152602001661c195b99195b9d60ca1b8152509150610755565b60026000848152600f602052604090205460ff166003811115610e2257610e226131f8565b1415610e5157604051806040016040528060098152602001687472616d697461646160b81b8152509150610755565b6040518060400160405280600981526020016872656275746a61646160b81b8152509150610755565b818133816001600160a01b0316610e9084611029565b6001600160a01b031614610eb65760405162461bcd60e51b815260040161058590612f50565b600b546001600160a01b03828116911614610ee35760405162461bcd60e51b815260040161058590612f99565b6000858152600f602052604081205460ff166003811115610f0657610f066131f8565b14610f615760405162461bcd60e51b815260206004820152602560248201527f4e6f6d6573206c657320726563657074657320616d622065737461742022437260448201526432b0b2309160d91b6064820152608401610585565b6000858152600f60209081526040808320805460ff1916600317905560118252808320546001600160a01b03881684526010909252909120805482908110610fab57610fab61320e565b90600052602060002001600090557f095b52377ad9e2908b2c5c20d65e52fd55d9d43a6ab83b33c212824d44c390568587604051610ffe9291906001600160a01b03929092168252602082015260400190565b60405180910390a1505050505050565b6106bb838383604051806020016040528060008152506114eb565b6000818152600360205260408120546001600160a01b0316806104785760405162461bcd60e51b815260206004820152602960248201527f4552433732313a206f776e657220717565727920666f72206e6f6e657869737460448201526832b73a103a37b5b2b760b91b6064820152608401610585565b60006001600160a01b03821661110b5760405162461bcd60e51b815260206004820152602a60248201527f4552433732313a2062616c616e636520717565727920666f7220746865207a65604482015269726f206164647265737360b01b6064820152608401610585565b506001600160a01b031660009081526004602052604090205490565b6000546001600160a01b031633146111815760405162461bcd60e51b815260206004820181905260248201527f4f776e61626c653a2063616c6c6572206973206e6f7420746865206f776e65726044820152606401610585565b61118b6000612562565b565b60606002805461048d90613168565b6111a73383836125b2565b5050565b60085433906001600160a01b031681146111d75760405162461bcd60e51b815260040161058590613032565b50600a80546001600160a01b0319166001600160a01b0392909216919091179055565b600b546060908190819033906001600160a01b0316811461122d5760405162461bcd60e51b815260040161058590613032565b846001600160a01b031661124087611029565b6001600160a01b0316146112b45760405162461bcd60e51b815260206004820152603560248201527f4e6f6d657320656c2070726f7069657461726920706f74207665757265206c6560448201527473206461646573206465206c61207265636570746160581b6064820152608401610585565b6000868152600f6020526040808220815160c081019092528054829060ff1660038111156112e4576112e46131f8565b60038111156112f5576112f56131f8565b81526001820154602082015260028201546001600160a01b039081166040830152600383015416606082015260048201805460809092019161133690613168565b80601f016020809104026020016040519081016040528092919081815260200182805461136290613168565b80156113af5780601f10611384576101008083540402835291602001916113af565b820191906000526020600020905b81548152906001019060200180831161139257829003601f168201915b505050505081526020016005820180546113c890613168565b80601f01602080910402602001604051908101604052809291908181526020018280546113f490613168565b80156114415780601f1061141657610100808354040283529160200191611441565b820191906000526020600020905b81548152906001019060200180831161142457829003601f168201915b505050919092525050600e5460608301516040516324ab39d160e11b81526001600160a01b039182166004820152939450169163495673a2915060240160006040518083038186803b15801561149657600080fd5b505afa1580156114aa573d6000803e3d6000fd5b505050506040513d6000823e601f3d908101601f191682016040526114d29190810190612c61565b81608001518260a0015194509450945050509250925092565b6114f53383612234565b6115115760405162461bcd60e51b815260040161058590612fe1565b610d2784848484612681565b828233816001600160a01b031661153384611029565b6001600160a01b0316146115595760405162461bcd60e51b815260040161058590612f50565b600b546001600160a01b038281169116146115865760405162461bcd60e51b815260040161058590612f99565b6000868152600f602052604081205460ff1660038111156115a9576115a96131f8565b146116145760405162461bcd60e51b815260206004820152603560248201527f4e6f6d657320657320706f64656e20656e76696172206c65732072656365707460448201527432b99030b6b11032b9ba30ba101121b932b0b2309160591b6064820152608401610585565b600d54604051637358610960e11b81526001600160a01b0386811660048301529091169063e6b0c2129060240160206040518083038186803b15801561165957600080fd5b505afa15801561166d573d6000803e3d6000fd5b505050506040513d601f19601f820116820180604052508101906116919190612c0a565b6116fc5760405162461bcd60e51b815260206004820152603660248201527f4e6f6d657320657320706f64656e20656e7669617220656c7320746f6b656e736044820152752061206661726d61636965732076616c69646164657360501b6064820152608401610585565b611707858588610b42565b6000868152600f60209081526040808320805460ff1916600117905560118252808320546001600160a01b038916845260109092529091208054829081106117515761175161320e565b60009182526020808320919091018290556001600160a01b038781168084526010808452604080862080548e885260118752828820819055928652600183018155865294849020018b90558351918a168252918101919091529081018890527feb0bacd58049a440cc15c1dc8bea43072220b4e2b5d1e3febca8c15bb9d9dc369060600160405180910390a150505050505050565b60085433906001600160a01b031681146118125760405162461bcd60e51b815260040161058590613032565b50600980546001600160a01b0319166001600160a01b0392909216919091179055565b600a5460609081908190819081903390889088906001600160a01b031683146118b65760405162461bcd60e51b815260206004820152602d60248201527f4e6f6d6573206c6573206661726d616369657320706f64656e2065786563757460448201526c30b910363090333ab731b4b79760991b6064820152608401610585565b806001600160a01b03166118c983611029565b6001600160a01b0316146118ef5760405162461bcd60e51b815260040161058590612f50565b600160008b8152600f602052604090205460ff166003811115611914576119146131f8565b146119875760405162461bcd60e51b815260206004820152603b60248201527f4e6f6d6573206c657320726563657074657320616d622065737461742022506560448201527f6e64656e742220657320706f64656e2076697375616c69747a617200000000006064820152608401610585565b60008a8152600f6020526040808220815160c081019092528054829060ff1660038111156119b7576119b76131f8565b60038111156119c8576119c86131f8565b81526001820154602082015260028201546001600160a01b0390811660408301526003830154166060820152600482018054608090920191611a0990613168565b80601f0160208091040260200160405190810160405280929190818152602001828054611a3590613168565b8015611a825780601f10611a5757610100808354040283529160200191611a82565b820191906000526020600020905b815481529060010190602001808311611a6557829003601f168201915b50505050508152602001600582018054611a9b90613168565b80601f0160208091040260200160405190810160405280929190818152602001828054611ac790613168565b8015611b145780601f10611ae957610100808354040283529160200191611b14565b820191906000526020600020905b815481529060010190602001808311611af757829003601f168201915b5050509190925250505060008c8152600f6020526040902060010154909150421015611cda5760008b8152600f60209081526040808320805460ff191660021790556011825280832054848201516001600160a01b031684526010909252909120805482908110611b8757611b8761320e565b6000918252602082200155600d54604083810151905163670ff71360e01b81526001600160a01b03918216600482015291169063670ff7139060240160006040518083038186803b158015611bdb57600080fd5b505afa158015611bef573d6000803e3d6000fd5b505050506040513d6000823e601f3d908101601f19168201604052611c179190810190612c61565b600e5460608401516040516324ab39d160e11b81526001600160a01b03918216600482015291169063495673a29060240160006040518083038186803b158015611c6057600080fd5b505afa158015611c74573d6000803e3d6000fd5b505050506040513d6000823e601f3d908101601f19168201604052611c9c9190810190612c61565b83608001518460a001516040518060400160405280600681526020016556616c69646160d01b81525093929190995099509950995099505050611e75565b60008b8152600f60209081526040808320805460ff191660031790556011825280832054848201516001600160a01b031684526010909252909120805482908110611d2757611d2761320e565b6000918252602082200155600d54604083810151905163670ff71360e01b81526001600160a01b03918216600482015291169063670ff7139060240160006040518083038186803b158015611d7b57600080fd5b505afa158015611d8f573d6000803e3d6000fd5b505050506040513d6000823e601f3d908101601f19168201604052611db79190810190612c61565b600e5460608401516040516324ab39d160e11b81526001600160a01b03918216600482015291169063495673a29060240160006040518083038186803b158015611e0057600080fd5b505afa158015611e14573d6000803e3d6000fd5b505050506040513d6000823e601f3d908101601f19168201604052611e3c9190810190612c61565b608084015160a090940151604080518082019091526008815267436164756361646160c01b60208201529c50919a509850919650909450505b5050509295509295909350565b6000818152600360205260409020546060906001600160a01b0316611f015760405162461bcd60e51b815260206004820152602f60248201527f4552433732314d657461646174613a2055524920717565727920666f72206e6f60448201526e3732bc34b9ba32b73a103a37b5b2b760891b6064820152608401610585565b6000611f1860408051602081019091526000815290565b90506000815111611f385760405180602001604052806000815250611f63565b80611f42846126b4565b604051602001611f53929190612d95565b6040516020818303038152906040525b9392505050565b60085433906001600160a01b03168114611f965760405162461bcd60e51b815260040161058590613032565b50600b80546001600160a01b0319166001600160a01b0392909216919091179055565b6000546001600160a01b031633146120135760405162461bcd60e51b815260206004820181905260248201527f4f776e61626c653a2063616c6c6572206973206e6f7420746865206f776e65726044820152606401610585565b6001600160a01b0381166120785760405162461bcd60e51b815260206004820152602660248201527f4f776e61626c653a206e6577206f776e657220697320746865207a65726f206160448201526564647265737360d01b6064820152608401610585565b61208181612562565b50565b600081815260056020526040902080546001600160a01b0319166001600160a01b03841690811790915581906120b982611029565b6001600160a01b03167f8c5be1e5ebec7d5bd14f71427d1e84f3dd0314c0f7b2291e5b200ac8c7c3b92560405160405180910390a45050565b6001600160a01b0382166121485760405162461bcd60e51b815260206004820181905260248201527f4552433732313a206d696e7420746f20746865207a65726f20616464726573736044820152606401610585565b6000818152600360205260409020546001600160a01b0316156121ad5760405162461bcd60e51b815260206004820152601c60248201527f4552433732313a20746f6b656e20616c7265616479206d696e746564000000006044820152606401610585565b6001600160a01b03821660009081526004602052604081208054600192906121d69084906130d4565b909155505060008181526003602052604080822080546001600160a01b0319166001600160a01b03861690811790915590518392907fddf252ad1be2c89b69c2b068fc378daa952ba7f163c4a11628f55a4df523b3ef908290a45050565b6000818152600360205260408120546001600160a01b03166122ad5760405162461bcd60e51b815260206004820152602c60248201527f4552433732313a206f70657261746f7220717565727920666f72206e6f6e657860448201526b34b9ba32b73a103a37b5b2b760a11b6064820152608401610585565b60006122b883611029565b9050806001600160a01b0316846001600160a01b031614806122ff57506001600160a01b0380821660009081526006602090815260408083209388168352929052205460ff165b806123235750836001600160a01b031661231884610510565b6001600160a01b0316145b949350505050565b826001600160a01b031661233e82611029565b6001600160a01b0316146123a25760405162461bcd60e51b815260206004820152602560248201527f4552433732313a207472616e736665722066726f6d20696e636f72726563742060448201526437bbb732b960d91b6064820152608401610585565b6001600160a01b0382166124045760405162461bcd60e51b8152602060048201526024808201527f4552433732313a207472616e7366657220746f20746865207a65726f206164646044820152637265737360e01b6064820152608401610585565b61240f600082612084565b6001600160a01b0383166000908152600460205260408120805460019290612438908490613125565b90915550506001600160a01b03821660009081526004602052604081208054600192906124669084906130d4565b909155505060008181526003602052604080822080546001600160a01b0319166001600160a01b0386811691821790925591518493918716917fddf252ad1be2c89b69c2b068fc378daa952ba7f163c4a11628f55a4df523b3ef91a4505050565b60006124d282611029565b90506124df600083612084565b6001600160a01b0381166000908152600460205260408120805460019290612508908490613125565b909155505060008281526003602052604080822080546001600160a01b0319169055518391906001600160a01b038416907fddf252ad1be2c89b69c2b068fc378daa952ba7f163c4a11628f55a4df523b3ef908390a45050565b600080546001600160a01b038381166001600160a01b0319831681178455604051919092169283917f8be0079c531659141344cd1fd0a4f28419497f9722a3daafe3b4186f6b6457e09190a35050565b816001600160a01b0316836001600160a01b031614156126145760405162461bcd60e51b815260206004820152601960248201527f4552433732313a20617070726f766520746f2063616c6c6572000000000000006044820152606401610585565b6001600160a01b03838116600081815260066020908152604080832094871680845294825291829020805460ff191686151590811790915591519182527f17307eab39ab6107e8899845ad3d59bd9653f200f220920489ca2b5937696c31910160405180910390a3505050565b61268c84848461232b565b612698848484846127b2565b610d275760405162461bcd60e51b815260040161058590612efe565b6060816126d85750506040805180820190915260018152600360fc1b602082015290565b8160005b811561270257806126ec8161319d565b91506126fb9050600a83613111565b91506126dc565b60008167ffffffffffffffff81111561271d5761271d613224565b6040519080825280601f01601f191660200182016040528015612747576020820181803683370190505b5090505b84156123235761275c600183613125565b9150612769600a866131b8565b6127749060306130d4565b60f81b8183815181106127895761278961320e565b60200101906001600160f81b031916908160001a9053506127ab600a86613111565b945061274b565b60006001600160a01b0384163b156128b457604051630a85bd0160e11b81526001600160a01b0385169063150b7a02906127f6903390899088908890600401612dc4565b602060405180830381600087803b15801561281057600080fd5b505af1925050508015612840575060408051601f3d908101601f1916820190925261283d91810190612c44565b60015b61289a573d80801561286e576040519150601f19603f3d011682016040523d82523d6000602084013e612873565b606091505b5080516128925760405162461bcd60e51b815260040161058590612efe565b805181602001fd5b6001600160e01b031916630a85bd0160e11b149050612323565b506001949350505050565b8280546128cb90613168565b90600052602060002090601f0160209004810192826128ed5760008555612933565b82601f1061290657805160ff1916838001178555612933565b82800160010185558215612933579182015b82811115612933578251825591602001919060010190612918565b5061293f929150612943565b5090565b5b8082111561293f5760008155600101612944565b600061296b612966846130ac565b61307b565b905082815283838301111561297f57600080fd5b828260208301376000602084830101529392505050565b80356001600160a01b03811681146129ad57600080fd5b919050565b600082601f8301126129c357600080fd5b611f6383833560208501612958565b803560ff811681146129ad57600080fd5b6000602082840312156129f557600080fd5b611f6382612996565b60008060408385031215612a1157600080fd5b612a1a83612996565b9150612a2860208401612996565b90509250929050565b600080600080600080600060e0888a031215612a4c57600080fd5b612a5588612996565b9650612a6360208901612996565b9550604088013567ffffffffffffffff80821115612a8057600080fd5b612a8c8b838c016129b2565b965060608a0135915080821115612aa257600080fd5b50612aaf8a828b016129b2565b945050608088013561ffff81168114612ac757600080fd5b9250612ad560a089016129d2565b9150612ae360c089016129d2565b905092959891949750929550565b600080600060608486031215612b0657600080fd5b612b0f84612996565b9250612b1d60208501612996565b9150604084013590509250925092565b60008060008060808587031215612b4357600080fd5b612b4c85612996565b9350612b5a60208601612996565b925060408501359150606085013567ffffffffffffffff811115612b7d57600080fd5b8501601f81018713612b8e57600080fd5b612b9d87823560208401612958565b91505092959194509250565b60008060408385031215612bbc57600080fd5b612bc583612996565b91506020830135612bd58161323a565b809150509250929050565b60008060408385031215612bf357600080fd5b612bfc83612996565b946020939093013593505050565b600060208284031215612c1c57600080fd5b8151611f638161323a565b600060208284031215612c3957600080fd5b8135611f6381613248565b600060208284031215612c5657600080fd5b8151611f6381613248565b600060208284031215612c7357600080fd5b815167ffffffffffffffff811115612c8a57600080fd5b8201601f81018413612c9b57600080fd5b8051612ca9612966826130ac565b818152856020838501011115612cbe57600080fd5b612ccf82602083016020860161313c565b95945050505050565b600060208284031215612cea57600080fd5b5035919050565b600060208284031215612d0357600080fd5b5051919050565b60008060408385031215612d1d57600080fd5b82359150612a2860208401612996565b600080600060608486031215612d4257600080fd5b83359250612d5260208501612996565b9150612d6060408501612996565b90509250925092565b60008151808452612d8181602086016020860161313c565b601f01601f19169290920160200192915050565b60008351612da781846020880161313c565b835190830190612dbb81836020880161313c565b01949350505050565b6001600160a01b0385811682528416602082015260408101839052608060608201819052600090612df790830184612d69565b9695505050505050565b6020808252825182820181905260009190848201906040850190845b81811015612e3957835183529284019291840191600101612e1d565b50909695505050505050565b602081526000611f636020830184612d69565b606081526000612e6b6060830186612d69565b8281036020840152612e7d8186612d69565b90508281036040840152612df78185612d69565b60a081526000612ea460a0830188612d69565b8281036020840152612eb68188612d69565b90508281036040840152612eca8187612d69565b90508281036060840152612ede8186612d69565b90508281036080840152612ef28185612d69565b98975050505050505050565b60208082526032908201527f4552433732313a207472616e7366657220746f206e6f6e20455243373231526560408201527131b2b4bb32b91034b6b83632b6b2b73a32b960711b606082015260800190565b60208082526029908201527f4e6f6d657320656c2070726f706965746172692074652061636365732061206c6040820152683090333ab731b4b79760b91b606082015260800190565b60208082526028908201527f4e6f6d6573206c27534320557375617269732074652061636365732061206c6160408201526710333ab731b4b79760c11b606082015260800190565b60208082526031908201527f4552433732313a207472616e736665722063616c6c6572206973206e6f74206f6040820152701ddb995c881b9bdc88185c1c1c9bdd9959607a1b606082015260800190565b60208082526029908201527f4e6f2074656e6975207065726d69736f7320706572206578656375746172206c6040820152683090333ab731b4b79760b91b606082015260800190565b604051601f8201601f1916810167ffffffffffffffff811182821017156130a4576130a4613224565b604052919050565b600067ffffffffffffffff8211156130c6576130c6613224565b50601f01601f191660200190565b600082198211156130e7576130e76131cc565b500190565b600060ff821660ff84168060ff03821115613109576131096131cc565b019392505050565b600082613120576131206131e2565b500490565b600082821015613137576131376131cc565b500390565b60005b8381101561315757818101518382015260200161313f565b83811115610d275750506000910152565b600181811c9082168061317c57607f821691505b6020821081141561075557634e487b7160e01b600052602260045260246000fd5b60006000198214156131b1576131b16131cc565b5060010190565b6000826131c7576131c76131e2565b500690565b634e487b7160e01b600052601160045260246000fd5b634e487b7160e01b600052601260045260246000fd5b634e487b7160e01b600052602160045260246000fd5b634e487b7160e01b600052603260045260246000fd5b634e487b7160e01b600052604160045260246000fd5b801515811461208157600080fd5b6001600160e01b03198116811461208157600080fdfea2646970667358221220db2c340d338ec2752c6abf6d93ad4544176c628996908541aca3bc961c10d79564736f6c63430008070033608060405234801561001057600080fd5b5060405161045938038061045983398101604081905261002f9161007c565b600080546001600160a01b039384166001600160a01b031991821617909155600180549290931691161790556100af565b80516001600160a01b038116811461007757600080fd5b919050565b6000806040838503121561008f57600080fd5b61009883610060565b91506100a660208401610060565b90509250929050565b61039b806100be6000396000f3fe608060405234801561001057600080fd5b50600436106100365760003560e01c806369977c221461003b578063e167d62614610045575b600080fd5b610043610058565b005b6100436100533660046101e0565b6100c7565b6100c57378731d3ca6b7e34ac0f824c42a7cc18a495cabab6040518060400160405280600a8152602001696e6f6d206661726d616360b01b8152506040518060400160405280600d81526020016c3132333435363738393031323360981b8152506107e66006601c6100c7565b565b6001546040516322fde81760e01b81526001600160a01b03909116906322fde8179061010390899033908a908a908a908a908a906004016102e9565b600060405180830381600087803b15801561011d57600080fd5b505af1158015610131573d6000803e3d6000fd5b50505050505050505050565b600082601f83011261014e57600080fd5b813567ffffffffffffffff808211156101695761016961034f565b604051601f8301601f19908116603f011681019082821181831017156101915761019161034f565b816040528381528660208588010111156101aa57600080fd5b836020870160208301376000602085830101528094505050505092915050565b803560ff811681146101db57600080fd5b919050565b60008060008060008060c087890312156101f957600080fd5b86356001600160a01b038116811461021057600080fd5b9550602087013567ffffffffffffffff8082111561022d57600080fd5b6102398a838b0161013d565b9650604089013591508082111561024f57600080fd5b5061025c89828a0161013d565b945050606087013561ffff8116811461027457600080fd5b9250610282608088016101ca565b915061029060a088016101ca565b90509295509295509295565b6000815180845260005b818110156102c2576020818501810151868301820152016102a6565b818111156102d4576000602083870101525b50601f01601f19169290920160200192915050565b6001600160a01b0388811682528716602082015260e0604082018190526000906103159083018861029c565b8281036060840152610327818861029c565b61ffff969096166080840152505060ff92831660a0820152911660c090910152949350505050565b634e487b7160e01b600052604160045260246000fdfea264697066735822122073ead0f709feea8225dc99bc8021c150bb177d94fb2a4136598f2dcd9bdaff5464736f6c63430008070033608060405234801561001057600080fd5b5060405161068438038061068483398101604081905261002f91610089565b600280546001600160a01b039384166001600160a01b03199182168117909255600080548216909217909155600180549290931691161790556100bc565b80516001600160a01b038116811461008457600080fd5b919050565b6000806040838503121561009c57600080fd5b6100a58361006d565b91506100b36020840161006d565b90509250929050565b6105b9806100cb6000396000f3fe608060405234801561001057600080fd5b50600436106100365760003560e01c80633c0e0e611461003b5780639318a28314610068575b600080fd5b61004e610049366004610435565b610072565b60405161005f95949392919061047a565b60405180910390f35b6100706101ba565b005b600054604051637358610960e11b8152336004820181905260609283928392839283926001600160a01b039091169063e6b0c2129060240160206040518083038186803b1580156100c257600080fd5b505afa1580156100d6573d6000803e3d6000fd5b505050506040513d601f19601f820116820180604052508101906100fa919061033a565b61011f5760405162461bcd60e51b8152600401610116906104e7565b60405180910390fd5b60015460405163c7514f7d60e01b8152600481018990523360248201526001600160a01b039091169063c7514f7d90604401600060405180830381600087803b15801561016b57600080fd5b505af115801561017f573d6000803e3d6000fd5b505050506040513d6000823e601f3d908101601f191682016040526101a79190810190610363565b939b929a50909850965090945092505050565b600054604051637358610960e11b81523360048201819052916001600160a01b03169063e6b0c2129060240160206040518083038186803b1580156101fe57600080fd5b505afa158015610212573d6000803e3d6000fd5b505050506040513d601f19601f82011682018060405250810190610236919061033a565b6102525760405162461bcd60e51b8152600401610116906104e7565b600154604051632ed22fd160e01b81523360048201526001600160a01b0390911690632ed22fd190602401600060405180830381600087803b15801561029757600080fd5b505af11580156102ab573d6000803e3d6000fd5b5050505050565b600082601f8301126102c357600080fd5b815167ffffffffffffffff808211156102de576102de61056d565b604051601f8301601f19908116603f011681019082821181831017156103065761030661056d565b8160405283815286602085880101111561031f57600080fd5b61033084602083016020890161053d565b9695505050505050565b60006020828403121561034c57600080fd5b8151801515811461035c57600080fd5b9392505050565b600080600080600060a0868803121561037b57600080fd5b855167ffffffffffffffff8082111561039357600080fd5b61039f89838a016102b2565b965060208801519150808211156103b557600080fd5b6103c189838a016102b2565b955060408801519150808211156103d757600080fd5b6103e389838a016102b2565b945060608801519150808211156103f957600080fd5b61040589838a016102b2565b9350608088015191508082111561041b57600080fd5b50610428888289016102b2565b9150509295509295909350565b60006020828403121561044757600080fd5b5035919050565b6000815180845261046681602086016020860161053d565b601f01601f19169290920160200192915050565b60a08152600061048d60a083018861044e565b828103602084015261049f818861044e565b905082810360408401526104b3818761044e565b905082810360608401526104c7818661044e565b905082810360808401526104db818561044e565b98975050505050505050565b60208082526036908201527f4e6f6d6573206c6573206661726d61636965732076616c69646164657320706f6040820152753232b71032bc32b1baba3090363090333ab731b4b79760511b606082015260800190565b60005b83811015610558578181015183820152602001610540565b83811115610567576000848401525b50505050565b634e487b7160e01b600052604160045260246000fdfea2646970667358221220ded438c5818f902d4bcab8f154b84d27232f50eb643436223f7b95c3c278dd9064736f6c63430008070033608060405234801561001057600080fd5b50604051610b42380380610b4283398101604081905261002f9161007c565b600080546001600160a01b039384166001600160a01b031991821617909155600180549290931691161790556100af565b80516001600160a01b038116811461007757600080fd5b919050565b6000806040838503121561008f57600080fd5b61009883610060565b91506100a660208401610060565b90509250929050565b610a84806100be6000396000f3fe608060405234801561001057600080fd5b50600436106100575760003560e01c80632931add11461005c5780633c0e0e61146100855780634f15b8b5146100a757806381f1aad9146100bc578063b2392a1b146100d1575b600080fd5b61006f61006a366004610869565b6100e4565b60405161007c919061092e565b60405180910390f35b610098610093366004610869565b610212565b60405161007c93929190610941565b6100af610345565b60405161007c91906108ea565b6100cf6100ca366004610869565b610468565b005b6100cf6100df366004610882565b610568565b600054604051636f2dcae360e11b8152336004820181905260609290916001600160a01b039091169063de5b95c69060240160206040518083038186803b15801561012e57600080fd5b505afa158015610142573d6000803e3d6000fd5b505050506040513d601f19601f82011682018060405250810190610166919061078a565b61018b5760405162461bcd60e51b815260040161018290610984565b60405180910390fd5b600154604051631d02a49f60e11b8152600481018590526001600160a01b0390911690633a05493e9060240160006040518083038186803b1580156101cf57600080fd5b505afa1580156101e3573d6000803e3d6000fd5b505050506040513d6000823e601f3d908101601f1916820160405261020b91908101906107ac565b9392505050565b600054604051636f2dcae360e11b8152336004820181905260609283928392916001600160a01b03169063de5b95c69060240160206040518083038186803b15801561025d57600080fd5b505afa158015610271573d6000803e3d6000fd5b505050506040513d601f19601f82011682018060405250810190610295919061078a565b6102b15760405162461bcd60e51b815260040161018290610984565b600154604051632e1a647760e21b8152600481018790523360248201526001600160a01b039091169063b86991dc9060440160006040518083038186803b1580156102fb57600080fd5b505afa15801561030f573d6000803e3d6000fd5b505050506040513d6000823e601f3d908101601f1916820160405261033791908101906107e1565b935093509350509193909250565b600054604051636f2dcae360e11b8152336004820181905260609290916001600160a01b039091169063de5b95c69060240160206040518083038186803b15801561038f57600080fd5b505afa1580156103a3573d6000803e3d6000fd5b505050506040513d601f19601f820116820180604052508101906103c7919061078a565b6103e35760405162461bcd60e51b815260040161018290610984565b600154604051630d10857f60e11b81523360048201526001600160a01b0390911690631a210afe9060240160006040518083038186803b15801561042657600080fd5b505afa15801561043a573d6000803e3d6000fd5b505050506040513d6000823e601f3d908101601f1916820160405261046291908101906106dd565b91505090565b600054604051636f2dcae360e11b81523360048201819052916001600160a01b03169063de5b95c69060240160206040518083038186803b1580156104ac57600080fd5b505afa1580156104c0573d6000803e3d6000fd5b505050506040513d601f19601f820116820180604052508101906104e4919061078a565b6105005760405162461bcd60e51b815260040161018290610984565b60015460405163411e162760e01b8152600481018490523360248201526001600160a01b039091169063411e162790604401600060405180830381600087803b15801561054c57600080fd5b505af1158015610560573d6000803e3d6000fd5b505050505050565b600054604051636f2dcae360e11b81523360048201819052916001600160a01b03169063de5b95c69060240160206040518083038186803b1580156105ac57600080fd5b505afa1580156105c0573d6000803e3d6000fd5b505050506040513d601f19601f820116820180604052508101906105e4919061078a565b6106005760405162461bcd60e51b815260040161018290610984565b600154604051635d89cd6f60e11b8152600481018590523360248201526001600160a01b0384811660448301529091169063bb139ade90606401600060405180830381600087803b15801561065457600080fd5b505af1158015610668573d6000803e3d6000fd5b50505050505050565b600082601f83011261068257600080fd5b815167ffffffffffffffff81111561069c5761069c610a38565b6106af601f8201601f19166020016109d7565b8181528460208386010111156106c457600080fd5b6106d5826020830160208701610a08565b949350505050565b600060208083850312156106f057600080fd5b825167ffffffffffffffff8082111561070857600080fd5b818501915085601f83011261071c57600080fd5b81518181111561072e5761072e610a38565b8060051b915061073f8483016109d7565b8181528481019084860184860187018a101561075a57600080fd5b600095505b8386101561077d57805183526001959095019491860191860161075f565b5098975050505050505050565b60006020828403121561079c57600080fd5b8151801515811461020b57600080fd5b6000602082840312156107be57600080fd5b815167ffffffffffffffff8111156107d557600080fd5b6106d584828501610671565b6000806000606084860312156107f657600080fd5b835167ffffffffffffffff8082111561080e57600080fd5b61081a87838801610671565b9450602086015191508082111561083057600080fd5b61083c87838801610671565b9350604086015191508082111561085257600080fd5b5061085f86828701610671565b9150509250925092565b60006020828403121561087b57600080fd5b5035919050565b6000806040838503121561089557600080fd5b8235915060208301356001600160a01b03811681146108b357600080fd5b809150509250929050565b600081518084526108d6816020860160208601610a08565b601f01601f19169290920160200192915050565b6020808252825182820181905260009190848201906040850190845b8181101561092257835183529284019291840191600101610906565b50909695505050505050565b60208152600061020b60208301846108be565b60608152600061095460608301866108be565b828103602084015261096681866108be565b9050828103604084015261097a81856108be565b9695505050505050565b60208082526033908201527f4e6f6d657320656c7320757375617269732076616c696461747320706f64656e6040820152721032bc32b1baba3090363090333ab731b4b79760691b606082015260800190565b604051601f8201601f1916810167ffffffffffffffff81118282101715610a0057610a00610a38565b604052919050565b60005b83811015610a23578181015183820152602001610a0b565b83811115610a32576000848401525b50505050565b634e487b7160e01b600052604160045260246000fdfea2646970667358221220b36dba27fe158c52d25e93155067772bb0e2e5cfa00f85c85f6fe3f35d2d84c164736f6c63430008070033a2646970667358221220299d091a48f01ccf3dd92e82f6c67854b5584c909f78c7359022180dfde5838064736f6c63430008070033",
  "linkReferences": {
    "contracts/DateTime.sol": {
      "DateTime": [
        {
          "length": 20,
          "start": 12704
        }
      ]
    }
  },
  "deployedLinkReferences": {
    "contracts/DateTime.sol": {
      "DateTime": [
        {
          "length": 20,
          "start": 12610
        }
      ]
    }
  }
}