{
  "_format": "hh-sol-artifact-1",
  "contractName": "Ministeri",
  "sourceName": "contracts/Ministeri.sol",
  "abi": [
    {
      "inputs": [
        {
          "internalType": "address",
          "name": "_aTokenRecepta",
          "type": "address"
        }
      ],
      "stateMutability": "nonpayable",
      "type": "constructor"
    },
    {
      "inputs": [],
      "name": "aFarmacies",
      "outputs": [
        {
          "internalType": "address",
          "name": "",
          "type": "address"
        }
      ],
      "stateMutability": "view",
      "type": "function"
    },
    {
      "inputs": [],
      "name": "aHospitals",
      "outputs": [
        {
          "internalType": "address",
          "name": "",
          "type": "address"
        }
      ],
      "stateMutability": "view",
      "type": "function"
    },
    {
      "inputs": [],
      "name": "aMetges",
      "outputs": [
        {
          "internalType": "address",
          "name": "",
          "type": "address"
        }
      ],
      "stateMutability": "view",
      "type": "function"
    },
    {
      "inputs": [],
      "name": "aTokenRecepta",
      "outputs": [
        {
          "internalType": "address",
          "name": "",
          "type": "address"
        }
      ],
      "stateMutability": "view",
      "type": "function"
    },
    {
      "inputs": [],
      "name": "aUsuaris",
      "outputs": [
        {
          "internalType": "address",
          "name": "",
          "type": "address"
        }
      ],
      "stateMutability": "view",
      "type": "function"
    },
    {
      "inputs": [
        {
          "internalType": "address",
          "name": "_aFarmacia",
          "type": "address"
        }
      ],
      "name": "baixaFarmacia",
      "outputs": [],
      "stateMutability": "nonpayable",
      "type": "function"
    },
    {
      "inputs": [
        {
          "internalType": "address",
          "name": "_aHospital",
          "type": "address"
        }
      ],
      "name": "baixaHospital",
      "outputs": [],
      "stateMutability": "nonpayable",
      "type": "function"
    },
    {
      "inputs": [
        {
          "internalType": "address",
          "name": "_aUsuari",
          "type": "address"
        }
      ],
      "name": "baixaUsuari",
      "outputs": [],
      "stateMutability": "nonpayable",
      "type": "function"
    },
    {
      "inputs": [],
      "name": "contractesDesplegats",
      "outputs": [
        {
          "internalType": "bool",
          "name": "",
          "type": "bool"
        }
      ],
      "stateMutability": "view",
      "type": "function"
    },
    {
      "inputs": [
        {
          "internalType": "address",
          "name": "_aFarmacia",
          "type": "address"
        },
        {
          "internalType": "string",
          "name": "_nom",
          "type": "string"
        }
      ],
      "name": "creaFarmacia",
      "outputs": [],
      "stateMutability": "nonpayable",
      "type": "function"
    },
    {
      "inputs": [
        {
          "internalType": "address",
          "name": "_aHospital",
          "type": "address"
        },
        {
          "internalType": "string",
          "name": "_nom",
          "type": "string"
        }
      ],
      "name": "creaHospital",
      "outputs": [],
      "stateMutability": "nonpayable",
      "type": "function"
    },
    {
      "inputs": [
        {
          "internalType": "address",
          "name": "_aUsuari",
          "type": "address"
        },
        {
          "internalType": "string",
          "name": "_nom",
          "type": "string"
        }
      ],
      "name": "creaUsuari",
      "outputs": [],
      "stateMutability": "nonpayable",
      "type": "function"
    },
    {
      "inputs": [],
      "name": "despelegaTotsElsSC",
      "outputs": [
        {
          "internalType": "address",
          "name": "hospital",
          "type": "address"
        },
        {
          "internalType": "address",
          "name": "farmacies",
          "type": "address"
        },
        {
          "internalType": "address",
          "name": "usuaris",
          "type": "address"
        },
        {
          "internalType": "address",
          "name": "metges",
          "type": "address"
        }
      ],
      "stateMutability": "nonpayable",
      "type": "function"
    },
    {
      "inputs": [
        {
          "internalType": "address",
          "name": "_address",
          "type": "address"
        }
      ],
      "name": "estatFarmacia",
      "outputs": [
        {
          "internalType": "bool",
          "name": "",
          "type": "bool"
        }
      ],
      "stateMutability": "view",
      "type": "function"
    },
    {
      "inputs": [
        {
          "internalType": "address",
          "name": "_address",
          "type": "address"
        }
      ],
      "name": "estatHopital",
      "outputs": [
        {
          "internalType": "bool",
          "name": "",
          "type": "bool"
        }
      ],
      "stateMutability": "view",
      "type": "function"
    },
    {
      "inputs": [
        {
          "internalType": "address",
          "name": "_address",
          "type": "address"
        }
      ],
      "name": "estatUsuari",
      "outputs": [
        {
          "internalType": "bool",
          "name": "",
          "type": "bool"
        }
      ],
      "stateMutability": "view",
      "type": "function"
    },
    {
      "inputs": [
        {
          "internalType": "address",
          "name": "_idUsuari",
          "type": "address"
        }
      ],
      "name": "nomUsuari",
      "outputs": [
        {
          "internalType": "string",
          "name": "",
          "type": "string"
        }
      ],
      "stateMutability": "view",
      "type": "function"
    }
  ],
  "bytecode": "0x60806040526008805460ff60a01b1916905534801561001d57600080fd5b506040516137bd3803806137bd83398101604081905261003c91610083565b600080546001600160a01b0319908116301790915560038054821633179055600480546001600160a01b0393909316928216831790556002805490911690911790556100b3565b60006020828403121561009557600080fd5b81516001600160a01b03811681146100ac57600080fd5b9392505050565b6136fb806100c26000396000f3fe608060405234801561001057600080fd5b50600436106100db5760003560e01c8063209cc943146100e057806321cb36171461012057806330adbdd5146101405780633e5bea031461015557806343f984e614610168578063670ff7131461017b57806387d7a8c31461019b578063a08ccc4f146101ae578063ad5bf9b9146101c1578063c2a01025146101d4578063de5b95c6146101e7578063de896fa21461020a578063e6b0c2121461021d578063e6f9992a14610230578063e836c6bb14610243578063f26d2dc014610257578063f9158a761461026a575b600080fd5b6100e861027d565b604080516001600160a01b03958616815293851660208501529184169183019190915290911660608201526080015b60405180910390f35b600654610133906001600160a01b031681565b60405161011791906110d5565b61015361014e366004610ff2565b610743565b005b610153610163366004611014565b610814565b600854610133906001600160a01b031681565b61018e610189366004610ff2565b6108ce565b6040516101179190611103565b6101536101a9366004611014565b6109f2565b6101536101bc366004611014565b610a5d565b6101536101cf366004610ff2565b610ac8565b6101536101e2366004610ff2565b610b97565b6101fa6101f5366004610ff2565b610c66565b6040519015158152602001610117565b600554610133906001600160a01b031681565b6101fa61022b366004610ff2565b610d4f565b600754610133906001600160a01b031681565b6008546101fa90600160a01b900460ff1681565b600454610133906001600160a01b031681565b6101fa610278366004610ff2565b610e20565b60035460009081908190819033906001600160a01b031681146102bb5760405162461bcd60e51b81526004016102b290611185565b60405180910390fd5b600854600160a01b900460ff16156103305760405162461bcd60e51b815260206004820152603260248201527f4e6f6d657320657320706f64656e20646573706c6167617220756e612076656760448201527161646120656c7320636f6e7472616374657360701b60648201526084016102b2565b6000546040516001600160a01b039091169061034b90610ef1565b61035591906110d5565b604051809103906000f080158015610371573d6000803e3d6000fd5b50600580546001600160a01b039283166001600160a01b03199182168117909255600180549091168217905560025460005460405163a2fc059b60e01b81529184169363a2fc059b936103cb9392909116916004016110e9565b600060405180830381600087803b1580156103e557600080fd5b505af11580156103f9573d6000803e3d6000fd5b505060015460048054604051638719fedd60e01b81526001600160a01b039384169550638719fedd94506104319390911691016110d5565b600060405180830381600087803b15801561044b57600080fd5b505af115801561045f573d6000803e3d6000fd5b50506005546004546040516001600160a01b0392831694509116915061048490610efe565b61048f9291906110e9565b604051809103906000f0801580156104ab573d6000803e3d6000fd5b50600880546001600160a01b0319166001600160a01b03928316908117909155600154604051632f9cf00160e21b815292169163be73c004916104f0916004016110d5565b600060405180830381600087803b15801561050a57600080fd5b505af115801561051e573d6000803e3d6000fd5b5050600254600854604051632f9cf00160e21b81526001600160a01b03928316945063be73c004935061055792909116906004016110d5565b600060405180830381600087803b15801561057157600080fd5b505af1158015610585573d6000803e3d6000fd5b50506000546004546040516001600160a01b039283169450911691506105aa90610f0b565b6105b59291906110e9565b604051809103906000f0801580156105d1573d6000803e3d6000fd5b50600680546001600160a01b0319166001600160a01b039283169081179091556002546040516354476d3b60e11b815292169163a88eda7691610616916004016110d5565b600060405180830381600087803b15801561063057600080fd5b505af1158015610644573d6000803e3d6000fd5b50506000546004546040516001600160a01b0392831694509116915061066990610f18565b6106749291906110e9565b604051809103906000f080158015610690573d6000803e3d6000fd5b50600780546001600160a01b0319166001600160a01b0392831690811790915560025460405163782799a760e11b815292169163f04f334e916106d5916004016110d5565b600060405180830381600087803b1580156106ef57600080fd5b505af1158015610703573d6000803e3d6000fd5b505060088054600160a01b60ff60a01b198216179091556005546006546007546001600160a01b039283169b9183169a5082169850911695509350505050565b60035433906001600160a01b0316811461076f5760405162461bcd60e51b81526004016102b290611185565b6001600160a01b03821660009081526009602052604081205460ff16600181111561079c5761079c611210565b146107e65760405162461bcd60e51b815260206004820152601a6024820152792437b9b834ba30b61030b6b11032b9ba30ba10113130b4bc309160311b60448201526064016102b2565b6001600160a01b038216600090815260096020526040902080546001919060ff191682805b02179055505050565b600881511161085f5760405162461bcd60e51b8152602060048201526017602482015276496e6469636172206e6f6d2069206c6c696e617467657360481b60448201526064016102b2565b610867610f25565b600080825260208083018490526001600160a01b0385168252600a9052604090208151815483929190829060ff1916600183818111156108a9576108a9611210565b021790555060208281015180516108c69260018501920190610f3d565b505050505050565b60045460609033906001600160a01b03168114806108f957506007546001600160a01b038281169116145b8061091157506005546001600160a01b038281169116145b8061092957506006546001600160a01b038281169116145b6109455760405162461bcd60e51b81526004016102b290611158565b6001600160a01b0383166000908152600a60205260409020600101805461096b906111db565b80601f0160208091040260200160405190810160405280929190818152602001828054610997906111db565b80156109e45780601f106109b9576101008083540402835291602001916109e4565b820191906000526020600020905b8154815290600101906020018083116109c757829003601f168201915b505050505091505b50919050565b6002815111610a135760405162461bcd60e51b81526004016102b2906111ae565b610a1b610f25565b600080825260208083018490526001600160a01b038516825260099052604090208151815483929190829060ff1916600183818111156108a9576108a9611210565b6002815111610a7e5760405162461bcd60e51b81526004016102b2906111ae565b610a86610f25565b600080825260208083018490526001600160a01b0385168252600b9052604090208151815483929190829060ff1916600183818111156108a9576108a9611210565b60035433906001600160a01b03168114610af45760405162461bcd60e51b81526004016102b290611185565b6001600160a01b0382166000908152600b602052604081205460ff166001811115610b2157610b21611210565b14610b6e5760405162461bcd60e51b815260206004820181905260248201527f4e6f6d6573206661726d616369657320616d622065737461742022616c74612260448201526064016102b2565b6001600160a01b0382166000908152600b6020526040902080546001919060ff1916828061080b565b60035433906001600160a01b03168114610bc35760405162461bcd60e51b81526004016102b290611185565b6001600160a01b0382166000908152600a602052604081205460ff166001811115610bf057610bf0611210565b14610c3d5760405162461bcd60e51b815260206004820152601e60248201527f4e6f6d6573207573756172697320616d622065737461742022616c746122000060448201526064016102b2565b6001600160a01b0382166000908152600a6020526040902080546001919060ff1916828061080b565b60045460009033906001600160a01b0316811480610c9157506007546001600160a01b038281169116145b80610ca957506005546001600160a01b038281169116145b80610cc157506006546001600160a01b038281169116145b610cdd5760405162461bcd60e51b81526004016102b290611158565b6001600160a01b0383166000908152600a602052604090206001018054610d03906111db565b159050610d46576001600160a01b0383166000908152600a602052604081205460ff166001811115610d3757610d37611210565b1415610d4657600191506109ec565b50600092915050565b60045460009033906001600160a01b0316811480610d7a57506007546001600160a01b038281169116145b80610d9257506005546001600160a01b038281169116145b80610daa57506006546001600160a01b038281169116145b610dc65760405162461bcd60e51b81526004016102b290611158565b6001600160a01b0383166000908152600b602052604090206001018054610dec906111db565b159050610d46576001600160a01b0383166000908152600b602052604081205460ff166001811115610d3757610d37611210565b60045460009033906001600160a01b0316811480610e4b57506007546001600160a01b038281169116145b80610e6357506005546001600160a01b038281169116145b80610e7b57506006546001600160a01b038281169116145b610e975760405162461bcd60e51b81526004016102b290611158565b6001600160a01b03831660009081526009602052604090206001018054610ebd906111db565b159050610d46576001600160a01b03831660009081526009602052604081205460ff166001811115610d3757610d37611210565b610ee88061123d83390190565b6103d58061212583390190565b610677806124fa83390190565b610b5580612b7183390190565b60408051808201909152600081526060602082015290565b828054610f49906111db565b90600052602060002090601f016020900481019282610f6b5760008555610fb1565b82601f10610f8457805160ff1916838001178555610fb1565b82800160010185558215610fb1579182015b82811115610fb1578251825591602001919060010190610f96565b50610fbd929150610fc1565b5090565b5b80821115610fbd5760008155600101610fc2565b80356001600160a01b0381168114610fed57600080fd5b919050565b60006020828403121561100457600080fd5b61100d82610fd6565b9392505050565b6000806040838503121561102757600080fd5b61103083610fd6565b915060208301356001600160401b038082111561104c57600080fd5b818501915085601f83011261106057600080fd5b81358181111561107257611072611226565b604051601f8201601f19908116603f0116810190838211818310171561109a5761109a611226565b816040528281528860208487010111156110b357600080fd5b8260208601602083013760006020848301015280955050505050509250929050565b6001600160a01b0391909116815260200190565b6001600160a01b0392831681529116602082015260400190565b600060208083528351808285015260005b8181101561113057858101830151858201604001528201611114565b81811115611142576000604083870101525b50601f01601f1916929092016040019392505050565b6020808252601390820152724e6f6d657320534320646573706c616761747360681b604082015260600190565b6020808252600f908201526e4e6f6d6573206d696e69737465726960881b604082015260600190565b602080825260139082015272125b991a58d85c881b9bdb4818dbdb5c1b195d606a1b604082015260600190565b600181811c908216806111ef57607f821691505b602082108114156109ec57634e487b7160e01b600052602260045260246000fd5b634e487b7160e01b600052602160045260246000fd5b634e487b7160e01b600052604160045260246000fdfe608060405234801561001057600080fd5b50604051610ee8380380610ee883398101604081905261002f9161005e565b600080546001600160a01b039092166001600160a01b031992831681179091556001805490921617905561008e565b60006020828403121561007057600080fd5b81516001600160a01b038116811461008757600080fd5b9392505050565b610e4b8061009d6000396000f3fe608060405234801561001057600080fd5b506004361061006d5760003560e01c8063495673a2146100725780634ada9fdb1461009b5780636898993a146100b05780636cb69e27146100c357806370d93aaa146100e65780638719fedd146100fc578063be73c0041461010f575b600080fd5b610085610080366004610af1565b610122565b6040516100929190610c13565b60405180910390f35b6100ae6100a9366004610af1565b610237565b005b6100ae6100be366004610b13565b6103dc565b6100d66100d1366004610af1565b610686565b6040519015158152602001610092565b6100ee6107f1565b604051610092929190610cbd565b6100ae61010a366004610af1565b61090f565b6100ae61011d366004610af1565b61098e565b60035460609033906001600160a01b031681148061014d57506001546001600160a01b038281169116145b8061016557506002546001600160a01b038281169116145b61018a5760405162461bcd60e51b815260040161018190610c68565b60405180910390fd5b6001600160a01b038316600090815260046020526040902060010180546101b090610d4d565b80601f01602080910402602001604051908101604052809291908181526020018280546101dc90610d4d565b80156102295780601f106101fe57610100808354040283529160200191610229565b820191906000526020600020905b81548152906001019060200180831161020c57829003601f168201915b505050505091505b50919050565b600054604051637c8ac53b60e11b815233916001600160a01b03169063f9158a7690610267908490600401610bff565b60206040518083038186803b15801561027f57600080fd5b505afa158015610293573d6000803e3d6000fd5b505050506040513d601f19601f820116820180604052508101906102b79190610bdd565b6102d35760405162461bcd60e51b815260040161018190610c94565b6001600160a01b0382811660009081526004602052604090206003015416331461033b5760405162461bcd60e51b81526020600482015260196024820152784e6f6d657320686f73706974616c2070726f7069657461726960381b6044820152606401610181565b6001600160a01b0382166000908152600460209081526040808320805460ff60a01b1916600160a01b1790553383526005909152812080549161037d83610d36565b90915550506001600160a01b03821660009081526006602090815260408083205433845260059092529091206001018054829081106103be576103be610de9565b600091825260209091200180546001600160a01b0319169055505050565b600054604051637c8ac53b60e11b815233916001600160a01b03169063f9158a769061040c908490600401610bff565b60206040518083038186803b15801561042457600080fd5b505afa158015610438573d6000803e3d6000fd5b505050506040513d601f19601f8201168201806040525081019061045c9190610bdd565b6104785760405162461bcd60e51b815260040161018190610c94565b60088351116104b75760405162461bcd60e51b815260206004820152600b60248201526a496e6469636172206e6f6d60a81b6044820152606401610181565b6104c082610a0d565b60ff166009146105125760405162461bcd60e51b815260206004820152601d60248201527f4e756d20636f6c2e6c65676961742065732064652039207869667265730000006044820152606401610181565b6105446040805160a0810190915260008082526020820190815260606020820181905260006040830181905291015290565b600060208281018281526040808501889052606085018790523360808601526001600160a01b03898116855260049093529092208351815492166001600160a01b0319831681178255925184939192909183916001600160a81b03191617600160a01b8360018111156105b9576105b9610dd3565b0217905550604082015180516105d9916001840191602090910190610a3c565b5060608201516002820155608090910151600390910180546001600160a01b0319166001600160a01b0390921691909117905533600090815260056020526040812080549161062783610d82565b9091555050336000908152600560208181526040808420600190810180546001600160a01b039b909b16808752600685529286208b90559383528901835591835290912090950180546001600160a01b03191690951790945550505050565b60035460009033906001600160a01b03168114806106b157506001546001600160a01b038281169116145b806106c957506002546001600160a01b038281169116145b6106e55760405162461bcd60e51b815260040161018190610c68565b6001600160a01b0380841660009081526004602081905260408083206003015492549051637c8ac53b60e11b815292841693169163f9158a769161072b91859101610bff565b60206040518083038186803b15801561074357600080fd5b505afa158015610757573d6000803e3d6000fd5b505050506040513d601f19601f8201168201806040525081019061077b9190610bdd565b156107e7576001600160a01b038416600090815260046020526040902060020154156107e75760006001600160a01b038516600090815260046020526040902054600160a01b900460ff1660018111156107d7576107d7610dd3565b14156107e7576001925050610231565b5060009392505050565b60008054604051637c8ac53b60e11b815260609133916001600160a01b039091169063f9158a7690610827908490600401610bff565b60206040518083038186803b15801561083f57600080fd5b505afa158015610853573d6000803e3d6000fd5b505050506040513d601f19601f820116820180604052508101906108779190610bdd565b6108935760405162461bcd60e51b815260040161018190610c94565b3360009081526005602090815260409182902080546001909101805484518185028101850190955280855291939092909183918301828280156108ff57602002820191906000526020600020905b81546001600160a01b031681526001909101906020018083116108e1575b5050505050905092509250509091565b60035433906001600160a01b031681148061093757506001546001600160a01b038281169116145b8061094f57506002546001600160a01b038281169116145b61096b5760405162461bcd60e51b815260040161018190610c68565b50600380546001600160a01b0319166001600160a01b0392909216919091179055565b60035433906001600160a01b03168114806109b657506001546001600160a01b038281169116145b806109ce57506002546001600160a01b038281169116145b6109ea5760405162461bcd60e51b815260040161018190610c68565b50600280546001600160a01b0319166001600160a01b0392909216919091179055565b6000805b8215610a3657610a22600a84610d14565b925080610a2e81610d9d565b915050610a11565b92915050565b828054610a4890610d4d565b90600052602060002090601f016020900481019282610a6a5760008555610ab0565b82601f10610a8357805160ff1916838001178555610ab0565b82800160010185558215610ab0579182015b82811115610ab0578251825591602001919060010190610a95565b50610abc929150610ac0565b5090565b5b80821115610abc5760008155600101610ac1565b80356001600160a01b0381168114610aec57600080fd5b919050565b600060208284031215610b0357600080fd5b610b0c82610ad5565b9392505050565b600080600060608486031215610b2857600080fd5b610b3184610ad5565b925060208401356001600160401b0380821115610b4d57600080fd5b818601915086601f830112610b6157600080fd5b813581811115610b7357610b73610dff565b604051601f8201601f19908116603f01168101908382118183101715610b9b57610b9b610dff565b81604052828152896020848701011115610bb457600080fd5b826020860160208301376000602084830101528096505050505050604084013590509250925092565b600060208284031215610bef57600080fd5b81518015158114610b0c57600080fd5b6001600160a01b0391909116815260200190565b600060208083528351808285015260005b81811015610c4057858101830151858201604001528201610c24565b81811115610c52576000604083870101525b50601f01601f1916929092016040019392505050565b60208082526012908201527114d0c81cd95b99195c881b9bc81d985b1a5960721b604082015260600190565b6020808252600f908201526e4e6f6d657320686f73706974616c7360881b604082015260600190565b6000604082018483526020604081850152818551808452606086019150828701935060005b81811015610d075784516001600160a01b031683529383019391830191600101610ce2565b5090979650505050505050565b600082610d3157634e487b7160e01b600052601260045260246000fd5b500490565b600081610d4557610d45610dbd565b506000190190565b600181811c90821680610d6157607f821691505b6020821081141561023157634e487b7160e01b600052602260045260246000fd5b6000600019821415610d9657610d96610dbd565b5060010190565b600060ff821660ff811415610db457610db4610dbd565b60010192915050565b634e487b7160e01b600052601160045260246000fd5b634e487b7160e01b600052602160045260246000fd5b634e487b7160e01b600052603260045260246000fd5b634e487b7160e01b600052604160045260246000fdfea264697066735822122096f3ff727cffb14d889205fbdcc14483c1cb606b005f48e82ebd023b079da6bb64736f6c63430008070033608060405234801561001057600080fd5b506040516103d53803806103d583398101604081905261002f9161007c565b600080546001600160a01b039384166001600160a01b031991821617909155600180549290931691161790556100af565b80516001600160a01b038116811461007757600080fd5b919050565b6000806040838503121561008f57600080fd5b61009883610060565b91506100a660208401610060565b90509250929050565b610317806100be6000396000f3fe608060405234801561001057600080fd5b506004361061002b5760003560e01c8063e167d62614610030575b600080fd5b61004361003e36600461015d565b610045565b005b6001546040516322fde81760e01b81526001600160a01b03909116906322fde8179061008190899033908a908a908a908a908a90600401610265565b600060405180830381600087803b15801561009b57600080fd5b505af11580156100af573d6000803e3d6000fd5b50505050505050505050565b600082601f8301126100cc57600080fd5b81356001600160401b03808211156100e6576100e66102cb565b604051601f8301601f19908116603f0116810190828211818310171561010e5761010e6102cb565b8160405283815286602085880101111561012757600080fd5b836020870160208301376000602085830101528094505050505092915050565b803560ff8116811461015857600080fd5b919050565b60008060008060008060c0878903121561017657600080fd5b86356001600160a01b038116811461018d57600080fd5b955060208701356001600160401b03808211156101a957600080fd5b6101b58a838b016100bb565b965060408901359150808211156101cb57600080fd5b506101d889828a016100bb565b945050606087013561ffff811681146101f057600080fd5b92506101fe60808801610147565b915061020c60a08801610147565b90509295509295509295565b6000815180845260005b8181101561023e57602081850181015186830182015201610222565b81811115610250576000602083870101525b50601f01601f19169290920160200192915050565b6001600160a01b0388811682528716602082015260e06040820181905260009061029190830188610218565b82810360608401526102a38188610218565b61ffff969096166080840152505060ff92831660a0820152911660c090910152949350505050565b634e487b7160e01b600052604160045260246000fdfea2646970667358221220f8dd1efa4d3603c5ea2a7598816261055b7ca2c354587d89662474eb884ff9c364736f6c63430008070033608060405234801561001057600080fd5b5060405161067738038061067783398101604081905261002f91610089565b600280546001600160a01b039384166001600160a01b03199182168117909255600080548216909217909155600180549290931691161790556100bc565b80516001600160a01b038116811461008457600080fd5b919050565b6000806040838503121561009c57600080fd5b6100a58361006d565b91506100b36020840161006d565b90509250929050565b6105ac806100cb6000396000f3fe608060405234801561001057600080fd5b50600436106100365760003560e01c80633c0e0e611461003b5780639318a28314610068575b600080fd5b61004e610049366004610441565b610072565b60405161005f95949392919061049a565b60405180910390f35b6100706101bf565b005b600054604051637358610960e11b8152606091829182918291829133916001600160a01b039091169063e6b0c212906100af908490600401610486565b60206040518083038186803b1580156100c757600080fd5b505afa1580156100db573d6000803e3d6000fd5b505050506040513d601f19601f820116820180604052508101906100ff9190610347565b6101245760405162461bcd60e51b815260040161011b90610507565b60405180910390fd5b60015460405163c7514f7d60e01b8152600481018990523360248201526001600160a01b039091169063c7514f7d90604401600060405180830381600087803b15801561017057600080fd5b505af1158015610184573d6000803e3d6000fd5b505050506040513d6000823e601f3d908101601f191682016040526101ac9190810190610370565b939b929a50909850965090945092505050565b600054604051637358610960e11b815233916001600160a01b03169063e6b0c212906101ef908490600401610486565b60206040518083038186803b15801561020757600080fd5b505afa15801561021b573d6000803e3d6000fd5b505050506040513d601f19601f8201168201806040525081019061023f9190610347565b61025b5760405162461bcd60e51b815260040161011b90610507565b600154604051632ed22fd160e01b81526001600160a01b0390911690632ed22fd19061028b903390600401610486565b600060405180830381600087803b1580156102a557600080fd5b505af11580156102b9573d6000803e3d6000fd5b5050505050565b600082601f8301126102d157600080fd5b81516001600160401b03808211156102eb576102eb610560565b604051601f8301601f19908116603f0116810190828211818310171561031357610313610560565b8160405283815286602085880101111561032c57600080fd5b61033d846020830160208901610530565b9695505050505050565b60006020828403121561035957600080fd5b8151801515811461036957600080fd5b9392505050565b600080600080600060a0868803121561038857600080fd5b85516001600160401b038082111561039f57600080fd5b6103ab89838a016102c0565b965060208801519150808211156103c157600080fd5b6103cd89838a016102c0565b955060408801519150808211156103e357600080fd5b6103ef89838a016102c0565b9450606088015191508082111561040557600080fd5b61041189838a016102c0565b9350608088015191508082111561042757600080fd5b50610434888289016102c0565b9150509295509295909350565b60006020828403121561045357600080fd5b5035919050565b60008151808452610472816020860160208601610530565b601f01601f19169290920160200192915050565b6001600160a01b0391909116815260200190565b60a0815260006104ad60a083018861045a565b82810360208401526104bf818861045a565b905082810360408401526104d3818761045a565b905082810360608401526104e7818661045a565b905082810360808401526104fb818561045a565b98975050505050505050565b6020808252600f908201526e4e6f6d6573206661726d616369657360881b604082015260600190565b60005b8381101561054b578181015183820152602001610533565b8381111561055a576000848401525b50505050565b634e487b7160e01b600052604160045260246000fdfea2646970667358221220052876d69d2a5773b9e22a4b64986cb55ee13027b13ffb3437153d8ea0deca4364736f6c63430008070033608060405234801561001057600080fd5b50604051610b55380380610b5583398101604081905261002f9161007c565b600080546001600160a01b039384166001600160a01b031991821617909155600180549290931691161790556100af565b80516001600160a01b038116811461007757600080fd5b919050565b6000806040838503121561008f57600080fd5b61009883610060565b91506100a660208401610060565b90509250929050565b610a97806100be6000396000f3fe608060405234801561001057600080fd5b50600436106100575760003560e01c80632931add11461005c5780633c0e0e61146100855780634f15b8b5146100a757806381f1aad9146100bc578063b2392a1b146100d1575b600080fd5b61006f61006a36600461087e565b6100e4565b60405161007c9190610957565b60405180910390f35b61009861009336600461087e565b610215565b60405161007c9392919061096a565b6100af61034e565b60405161007c9190610913565b6100cf6100ca36600461087e565b610479565b005b6100cf6100df366004610897565b61057d565b600054604051636f2dcae360e11b815260609133916001600160a01b039091169063de5b95c6906101199084906004016108ff565b60206040518083038186803b15801561013157600080fd5b505afa158015610145573d6000803e3d6000fd5b505050506040513d601f19601f8201168201806040525081019061016991906107a1565b61018e5760405162461bcd60e51b8152600401610185906109ad565b60405180910390fd5b600154604051631d02a49f60e11b8152600481018590526001600160a01b0390911690633a05493e9060240160006040518083038186803b1580156101d257600080fd5b505afa1580156101e6573d6000803e3d6000fd5b505050506040513d6000823e601f3d908101601f1916820160405261020e91908101906107c3565b9392505050565b600054604051636f2dcae360e11b81526060918291829133916001600160a01b039091169063de5b95c69061024e9084906004016108ff565b60206040518083038186803b15801561026657600080fd5b505afa15801561027a573d6000803e3d6000fd5b505050506040513d601f19601f8201168201806040525081019061029e91906107a1565b6102ba5760405162461bcd60e51b8152600401610185906109ad565b600154604051632e1a647760e21b81526001600160a01b039091169063b86991dc906102ec90889033906004016109d4565b60006040518083038186803b15801561030457600080fd5b505afa158015610318573d6000803e3d6000fd5b505050506040513d6000823e601f3d908101601f1916820160405261034091908101906107f7565b935093509350509193909250565b600054604051636f2dcae360e11b815260609133916001600160a01b039091169063de5b95c6906103839084906004016108ff565b60206040518083038186803b15801561039b57600080fd5b505afa1580156103af573d6000803e3d6000fd5b505050506040513d601f19601f820116820180604052508101906103d391906107a1565b6103ef5760405162461bcd60e51b8152600401610185906109ad565b600154604051630d10857f60e11b81526001600160a01b0390911690631a210afe9061041f9033906004016108ff565b60006040518083038186803b15801561043757600080fd5b505afa15801561044b573d6000803e3d6000fd5b505050506040513d6000823e601f3d908101601f1916820160405261047391908101906106f5565b91505090565b600054604051636f2dcae360e11b815233916001600160a01b03169063de5b95c6906104a99084906004016108ff565b60206040518083038186803b1580156104c157600080fd5b505afa1580156104d5573d6000803e3d6000fd5b505050506040513d601f19601f820116820180604052508101906104f991906107a1565b6105155760405162461bcd60e51b8152600401610185906109ad565b60015460405163411e162760e01b81526001600160a01b039091169063411e16279061054790859033906004016109d4565b600060405180830381600087803b15801561056157600080fd5b505af1158015610575573d6000803e3d6000fd5b505050505050565b600054604051636f2dcae360e11b815233916001600160a01b03169063de5b95c6906105ad9084906004016108ff565b60206040518083038186803b1580156105c557600080fd5b505afa1580156105d9573d6000803e3d6000fd5b505050506040513d601f19601f820116820180604052508101906105fd91906107a1565b6106195760405162461bcd60e51b8152600401610185906109ad565b600154604051635d89cd6f60e11b8152600481018590523360248201526001600160a01b0384811660448301529091169063bb139ade90606401600060405180830381600087803b15801561066d57600080fd5b505af1158015610681573d6000803e3d6000fd5b50505050505050565b600082601f83011261069b57600080fd5b81516001600160401b038111156106b4576106b4610a4b565b6106c7601f8201601f19166020016109eb565b8181528460208386010111156106dc57600080fd5b6106ed826020830160208701610a1b565b949350505050565b6000602080838503121561070857600080fd5b82516001600160401b038082111561071f57600080fd5b818501915085601f83011261073357600080fd5b81518181111561074557610745610a4b565b8060051b91506107568483016109eb565b8181528481019084860184860187018a101561077157600080fd5b600095505b83861015610794578051835260019590950194918601918601610776565b5098975050505050505050565b6000602082840312156107b357600080fd5b8151801515811461020e57600080fd5b6000602082840312156107d557600080fd5b81516001600160401b038111156107eb57600080fd5b6106ed8482850161068a565b60008060006060848603121561080c57600080fd5b83516001600160401b038082111561082357600080fd5b61082f8783880161068a565b9450602086015191508082111561084557600080fd5b6108518783880161068a565b9350604086015191508082111561086757600080fd5b506108748682870161068a565b9150509250925092565b60006020828403121561089057600080fd5b5035919050565b600080604083850312156108aa57600080fd5b8235915060208301356001600160a01b03811681146108c857600080fd5b809150509250929050565b600081518084526108eb816020860160208601610a1b565b601f01601f19169290920160200192915050565b6001600160a01b0391909116815260200190565b6020808252825182820181905260009190848201906040850190845b8181101561094b5783518352928401929184019160010161092f565b50909695505050505050565b60208152600061020e60208301846108d3565b60608152600061097d60608301866108d3565b828103602084015261098f81866108d3565b905082810360408401526109a381856108d3565b9695505050505050565b6020808252600d908201526c4e6f6d6573207573756172697360981b604082015260600190565b9182526001600160a01b0316602082015260400190565b604051601f8201601f191681016001600160401b0381118282101715610a1357610a13610a4b565b604052919050565b60005b83811015610a36578181015183820152602001610a1e565b83811115610a45576000848401525b50505050565b634e487b7160e01b600052604160045260246000fdfea26469706673582212207209e5c329f8c19921c5797e5f55fbebe523abd9233c8b9c830543bb3fbcf96a64736f6c63430008070033a2646970667358221220f251a90b262baeee4371c945ce37fe4620a368efb7592aeae2d092ad18f39fbc64736f6c63430008070033",
  "linkReferences": {},
  "deployedLinkReferences": {}
}