{
  "_format": "hh-sol-artifact-1",
  "contractName": "Hospitals",
  "sourceName": "contracts/Hospitals.sol",
  "abi": [
    {
      "inputs": [
        {
          "internalType": "address",
          "name": "_contracteMinisteri",
          "type": "address"
        }
      ],
      "stateMutability": "nonpayable",
      "type": "constructor"
    },
    {
      "anonymous": false,
      "inputs": [
        {
          "indexed": false,
          "internalType": "address",
          "name": "addressMetge",
          "type": "address"
        },
        {
          "indexed": false,
          "internalType": "string",
          "name": "nomMetge",
          "type": "string"
        }
      ],
      "name": "eventAltaMetge",
      "type": "event"
    },
    {
      "anonymous": false,
      "inputs": [
        {
          "indexed": false,
          "internalType": "address",
          "name": "addressMetge",
          "type": "address"
        },
        {
          "indexed": false,
          "internalType": "string",
          "name": "nomMetge",
          "type": "string"
        }
      ],
      "name": "eventBaixaMetge",
      "type": "event"
    },
    {
      "inputs": [],
      "name": "CREAMETGE",
      "outputs": [],
      "stateMutability": "nonpayable",
      "type": "function"
    },
    {
      "inputs": [
        {
          "internalType": "address",
          "name": "_aMetge",
          "type": "address"
        }
      ],
      "name": "baixaMetge",
      "outputs": [],
      "stateMutability": "nonpayable",
      "type": "function"
    },
    {
      "inputs": [
        {
          "internalType": "address",
          "name": "_aMetge",
          "type": "address"
        },
        {
          "internalType": "string",
          "name": "_nom",
          "type": "string"
        },
        {
          "internalType": "uint256",
          "name": "_numColegiat",
          "type": "uint256"
        }
      ],
      "name": "creaMetge",
      "outputs": [],
      "stateMutability": "nonpayable",
      "type": "function"
    },
    {
      "inputs": [
        {
          "internalType": "address",
          "name": "_aMetge",
          "type": "address"
        }
      ],
      "name": "estatMetge",
      "outputs": [
        {
          "internalType": "bool",
          "name": "",
          "type": "bool"
        }
      ],
      "stateMutability": "view",
      "type": "function"
    },
    {
      "inputs": [
        {
          "internalType": "address",
          "name": "_idMetge",
          "type": "address"
        }
      ],
      "name": "nomMetge",
      "outputs": [
        {
          "internalType": "string",
          "name": "",
          "type": "string"
        }
      ],
      "stateMutability": "view",
      "type": "function"
    },
    {
      "inputs": [
        {
          "internalType": "address",
          "name": "_aMetges",
          "type": "address"
        }
      ],
      "name": "rebAddressContracteMetges",
      "outputs": [],
      "stateMutability": "nonpayable",
      "type": "function"
    },
    {
      "inputs": [
        {
          "internalType": "address",
          "name": "_aRecepta",
          "type": "address"
        }
      ],
      "name": "rebAddressContracteTokenRecepta",
      "outputs": [],
      "stateMutability": "nonpayable",
      "type": "function"
    },
    {
      "inputs": [],
      "name": "visualitzaPlantilla",
      "outputs": [
        {
          "internalType": "uint256",
          "name": "",
          "type": "uint256"
        },
        {
          "internalType": "address[]",
          "name": "",
          "type": "address[]"
        }
      ],
      "stateMutability": "view",
      "type": "function"
    }
  ],
  "bytecode": "0x608060405234801561001057600080fd5b5060405161114338038061114383398101604081905261002f9161005e565b600080546001600160a01b039092166001600160a01b031992831681179091556001805490921617905561008e565b60006020828403121561007057600080fd5b81516001600160a01b038116811461008757600080fd5b9392505050565b6110a68061009d6000396000f3fe608060405234801561001057600080fd5b50600436106100885760003560e01c80636cb69e271161005b5780636cb69e27146100e657806370d93aaa146101095780638719fedd1461011f578063be73c0041461013257600080fd5b80633b3ae18b1461008d578063495673a2146100975780634ada9fdb146100c05780636898993a146100d3575b600080fd5b610095610145565b005b6100aa6100a5366004610c67565b61018b565b6040516100b79190610ea8565b60405180910390f35b6100956100ce366004610c67565b6102c2565b6100956100e1366004610c89565b610538565b6100f96100f4366004610c67565b6107a3565b60405190151581526020016100b7565b61011161097c565b6040516100b7929190610f18565b61009561012d366004610c67565b610ae5565b610095610140366004610c67565b610b34565b61018973617f2e2fd72fd9d5503197092ac168c91465e7f2604051806040016040528060098152602001686e6f6d206d6574676560b81b81525063075bcd15610538565b565b60035460609033906001600160a01b031681146102155760405162461bcd60e51b815260206004820152603760248201527f4e6f6d657320656c7320636f6e7472616374657320646520746f6b656e73207060448201527f6f64656e2065786563757461206c612066756e63696f2e00000000000000000060648201526084015b60405180910390fd5b6001600160a01b0383166000908152600460205260409020600101805461023b90610fa8565b80601f016020809104026020016040519081016040528092919081815260200182805461026790610fa8565b80156102b45780601f10610289576101008083540402835291602001916102b4565b820191906000526020600020905b81548152906001019060200180831161029757829003601f168201915b505050505091505b50919050565b600054604051637c8ac53b60e11b81523360048201819052839290916001600160a01b039091169063f9158a769060240160206040518083038186803b15801561030b57600080fd5b505afa15801561031f573d6000803e3d6000fd5b505050506040513d601f19601f820116820180604052508101906103439190610d54565b6103ae5760405162461bcd60e51b815260206004820152603660248201527f4e6f6d657320656c7320686f73706974616c732076616c696461747320706f6460448201527532b71032bc32b1baba30b910363090333ab731b4b79760511b606482015260840161020c565b6001600160a01b038083166000908152600460205260409020600301548282169116146104435760405162461bcd60e51b815260206004820152603860248201527f4e6f6d6573206c27686f73706974616c2071756520686120637265617420656c60448201527f206d6574676520656c20706f74206d6f646966696361722e0000000000000000606482015260840161020c565b6001600160a01b0383166000908152600460209081526040808320805460ff60a01b1916600160a01b1790553383526005909152812080549161048583610f91565b90915550506001600160a01b03831660009081526006602090815260408083205433845260059092529091206001018054829081106104c6576104c6611044565b6000918252602080832090910180546001600160a01b03191690556001600160a01b03861682526004905260409081902090517fecfff8ae273df87d97eb650a0f3bde6adf5e795c28c73b524a2374650312b5859161052a91879160010190610def565b60405180910390a150505050565b60088251116105995760405162461bcd60e51b815260206004820152602760248201527f53276861206427696e646963617220756e206e6f6d20636f6d706c65742070656044820152666c206d6574676560c81b606482015260840161020c565b6105a281610b83565b60ff166009146106095760405162461bcd60e51b815260206004820152602c60248201527f456c206e756d65726f20646520636f6c2e6c656769617420686120646520746560448201526b6e697220392078696672657360a01b606482015260840161020c565b61063b6040805160a0810190915260008082526020820190815260606020820181905260006040830181905291015290565b600060208281018281526040808501879052606085018690523360808601526001600160a01b03888116855260049093529092208351815492166001600160a01b0319831681178255925184939192909183916001600160a81b03191617600160a01b8360018111156106b0576106b061102e565b0217905550604082015180516106d0916001840191602090910190610bb2565b5060608201516002820155608090910151600390910180546001600160a01b0319166001600160a01b0390921691909117905533600090815260056020526040812080549161071e83610fdd565b9091555050336000908152600560208181526040808420600190810180546001600160a01b038b168088526006865284882082905595855291820181558552919093200180546001600160a01b0319169091179055517f479f0a6864197d48e4ec2a1c8b765c7e42affc0b1b13db176a606f5718b033bf9061052a9086908690610dc3565b60035460009033906001600160a01b03168114806107ce57506001546001600160a01b038281169116145b806107e657506002546001600160a01b038281169116145b6108725760405162461bcd60e51b815260206004820152605160248201527f4e6f6d657320656c7320636f6e7472616374657320526563657074612c20566f60448201527f6c616e742c204d696e697374657269206f204d657467657320706f64656e20656064820152703c32b1baba3090363090333ab731b4b79760791b608482015260a40161020c565b6001600160a01b0383811660009081526004602081905260408083206003015492549051637c8ac53b60e11b81529284169183018290529092169063f9158a769060240160206040518083038186803b1580156108ce57600080fd5b505afa1580156108e2573d6000803e3d6000fd5b505050506040513d601f19601f820116820180604052508101906109069190610d54565b15610972576001600160a01b038416600090815260046020526040902060020154156109725760006001600160a01b038516600090815260046020526040902054600160a01b900460ff1660018111156109625761096261102e565b14156109725760019250506102bc565b5060009392505050565b60008054604051637c8ac53b60e11b8152336004820181905260609290916001600160a01b039091169063f9158a769060240160206040518083038186803b1580156109c757600080fd5b505afa1580156109db573d6000803e3d6000fd5b505050506040513d601f19601f820116820180604052508101906109ff9190610d54565b610a695760405162461bcd60e51b815260206004820152603560248201527f4e6f6d657320656c7320686f73706974616c732076616c696461747320706f6460448201527432b71032bc32b1baba3090363090333ab731b4b79760591b606482015260840161020c565b336000908152600560209081526040918290208054600190910180548451818502810185019095528085529193909290918391830182828015610ad557602002820191906000526020600020905b81546001600160a01b03168152600190910190602001808311610ab7575b5050505050905092509250509091565b60015433906001600160a01b03168114610b115760405162461bcd60e51b815260040161020c90610ebb565b50600380546001600160a01b0319166001600160a01b0392909216919091179055565b60015433906001600160a01b03168114610b605760405162461bcd60e51b815260040161020c90610ebb565b50600280546001600160a01b0319166001600160a01b0392909216919091179055565b6000805b8215610bac57610b98600a84610f6f565b925080610ba481610ff8565b915050610b87565b92915050565b828054610bbe90610fa8565b90600052602060002090601f016020900481019282610be05760008555610c26565b82601f10610bf957805160ff1916838001178555610c26565b82800160010185558215610c26579182015b82811115610c26578251825591602001919060010190610c0b565b50610c32929150610c36565b5090565b5b80821115610c325760008155600101610c37565b80356001600160a01b0381168114610c6257600080fd5b919050565b600060208284031215610c7957600080fd5b610c8282610c4b565b9392505050565b600080600060608486031215610c9e57600080fd5b610ca784610c4b565b9250602084013567ffffffffffffffff80821115610cc457600080fd5b818601915086601f830112610cd857600080fd5b813581811115610cea57610cea61105a565b604051601f8201601f19908116603f01168101908382118183101715610d1257610d1261105a565b81604052828152896020848701011115610d2b57600080fd5b826020860160208301376000602084830101528096505050505050604084013590509250925092565b600060208284031215610d6657600080fd5b81518015158114610c8257600080fd5b6000815180845260005b81811015610d9c57602081850181015186830182015201610d80565b81811115610dae576000602083870101525b50601f01601f19169290920160200192915050565b6001600160a01b0383168152604060208201819052600090610de790830184610d76565b949350505050565b60018060a01b0383168152600060206040818401526000845481600182811c915080831680610e1f57607f831692505b858310811415610e3d57634e487b7160e01b85526022600452602485fd5b6040880183905260608801818015610e5c5760018114610e6d57610e98565b60ff19861682528782019650610e98565b60008b81526020902060005b86811015610e9257815484820152908501908901610e79565b83019750505b50949a9950505050505050505050565b602081526000610c826020830184610d76565b60208082526037908201527f4e6f6d657320656c20636f6e7472616374652064656c204d696e69737465726960408201527f20706f742065786563757461206c612066756e63696f2e000000000000000000606082015260800190565b6000604082018483526020604081850152818551808452606086019150828701935060005b81811015610f625784516001600160a01b031683529383019391830191600101610f3d565b5090979650505050505050565b600082610f8c57634e487b7160e01b600052601260045260246000fd5b500490565b600081610fa057610fa0611018565b506000190190565b600181811c90821680610fbc57607f821691505b602082108114156102bc57634e487b7160e01b600052602260045260246000fd5b6000600019821415610ff157610ff1611018565b5060010190565b600060ff821660ff81141561100f5761100f611018565b60010192915050565b634e487b7160e01b600052601160045260246000fd5b634e487b7160e01b600052602160045260246000fd5b634e487b7160e01b600052603260045260246000fd5b634e487b7160e01b600052604160045260246000fdfea2646970667358221220be7f47ac887c0435e76469f43e6aaac3b35c8b431f7819fc9fbc5199db7b100064736f6c63430008070033",
  "linkReferences": {},
  "deployedLinkReferences": {}
}