{
  "_format": "hh-sol-artifact-1",
  "contractName": "Hospitals",
  "sourceName": "contracts/Hospitals.sol",
  "abi": [
    {
      "inputs": [
        {
          "internalType": "address",
          "name": "_contracteMinisteri",
          "type": "address"
        }
      ],
      "stateMutability": "nonpayable",
      "type": "constructor"
    },
    {
      "inputs": [
        {
          "internalType": "address",
          "name": "_aMetge",
          "type": "address"
        }
      ],
      "name": "baixaMetge",
      "outputs": [],
      "stateMutability": "nonpayable",
      "type": "function"
    },
    {
      "inputs": [
        {
          "internalType": "address",
          "name": "_aMetge",
          "type": "address"
        },
        {
          "internalType": "string",
          "name": "_nom",
          "type": "string"
        },
        {
          "internalType": "uint256",
          "name": "_numColegiat",
          "type": "uint256"
        }
      ],
      "name": "creaMetge",
      "outputs": [],
      "stateMutability": "nonpayable",
      "type": "function"
    },
    {
      "inputs": [
        {
          "internalType": "address",
          "name": "_aMetge",
          "type": "address"
        }
      ],
      "name": "estatMetge",
      "outputs": [
        {
          "internalType": "bool",
          "name": "",
          "type": "bool"
        }
      ],
      "stateMutability": "view",
      "type": "function"
    },
    {
      "inputs": [
        {
          "internalType": "address",
          "name": "_idMetge",
          "type": "address"
        }
      ],
      "name": "nomMetge",
      "outputs": [
        {
          "internalType": "string",
          "name": "",
          "type": "string"
        }
      ],
      "stateMutability": "view",
      "type": "function"
    },
    {
      "inputs": [
        {
          "internalType": "address",
          "name": "_aMetges",
          "type": "address"
        }
      ],
      "name": "rebAddressContracteMetges",
      "outputs": [],
      "stateMutability": "nonpayable",
      "type": "function"
    },
    {
      "inputs": [
        {
          "internalType": "address",
          "name": "_aRecepta",
          "type": "address"
        }
      ],
      "name": "rebAddressContracteTokenRecepta",
      "outputs": [],
      "stateMutability": "nonpayable",
      "type": "function"
    },
    {
      "inputs": [],
      "name": "visualitzaPlantilla",
      "outputs": [
        {
          "internalType": "address[]",
          "name": "",
          "type": "address[]"
        }
      ],
      "stateMutability": "view",
      "type": "function"
    }
  ],
  "bytecode": "0x608060405234801561001057600080fd5b50604051610ec5380380610ec583398101604081905261002f9161005e565b600080546001600160a01b039092166001600160a01b031992831681179091556001805490921617905561008e565b60006020828403121561007057600080fd5b81516001600160a01b038116811461008757600080fd5b9392505050565b610e288061009d6000396000f3fe608060405234801561001057600080fd5b506004361061006d5760003560e01c8063495673a2146100725780634ada9fdb1461009b5780636898993a146100b05780636cb69e27146100c357806370d93aaa146100e65780638719fedd146100fb578063be73c0041461010e575b600080fd5b610085610080366004610ad8565b610121565b6040516100929190610c47565b60405180910390f35b6100ae6100a9366004610ad8565b610236565b005b6100ae6100be366004610afa565b6103db565b6100d66100d1366004610ad8565b610685565b6040519015158152602001610092565b6100ee6107f0565b6040516100929190610bfa565b6100ae610109366004610ad8565b6108ff565b6100ae61011c366004610ad8565b61097e565b60035460609033906001600160a01b031681148061014c57506001546001600160a01b038281169116145b8061016457506002546001600160a01b038281169116145b6101895760405162461bcd60e51b815260040161018090610c9c565b60405180910390fd5b6001600160a01b038316600090815260046020526040902060010180546101af90610d2a565b80601f01602080910402602001604051908101604052809291908181526020018280546101db90610d2a565b80156102285780601f106101fd57610100808354040283529160200191610228565b820191906000526020600020905b81548152906001019060200180831161020b57829003601f168201915b505050505091505b50919050565b600054604051637c8ac53b60e11b815233916001600160a01b03169063f9158a7690610266908490600401610be6565b60206040518083038186803b15801561027e57600080fd5b505afa158015610292573d6000803e3d6000fd5b505050506040513d601f19601f820116820180604052508101906102b69190610bc4565b6102d25760405162461bcd60e51b815260040161018090610cc8565b6001600160a01b0382811660009081526004602052604090206003015416331461033a5760405162461bcd60e51b81526020600482015260196024820152784e6f6d657320686f73706974616c2070726f7069657461726960381b6044820152606401610180565b6001600160a01b0382166000908152600460209081526040808320805460ff60a01b1916600160a01b1790553383526005909152812080549161037c83610d13565b90915550506001600160a01b03821660009081526006602090815260408083205433845260059092529091206001018054829081106103bd576103bd610dc6565b600091825260209091200180546001600160a01b0319169055505050565b600054604051637c8ac53b60e11b815233916001600160a01b03169063f9158a769061040b908490600401610be6565b60206040518083038186803b15801561042357600080fd5b505afa158015610437573d6000803e3d6000fd5b505050506040513d601f19601f8201168201806040525081019061045b9190610bc4565b6104775760405162461bcd60e51b815260040161018090610cc8565b60088351116104b65760405162461bcd60e51b815260206004820152600b60248201526a496e6469636172206e6f6d60a81b6044820152606401610180565b6104bf826109fd565b60ff166009146105115760405162461bcd60e51b815260206004820152601d60248201527f4e756d20636f6c2e6c65676961742065732064652039207869667265730000006044820152606401610180565b6105436040805160a0810190915260008082526020820190815260606020820181905260006040830181905291015290565b600060208281018281526040808501889052606085018790523360808601526001600160a01b03898116855260049093529092208351815492166001600160a01b0319831681178255925184939192909183916001600160a81b03191617600160a01b8360018111156105b8576105b8610db0565b0217905550604082015180516105d8916001840191602090910190610a2c565b5060608201516002820155608090910151600390910180546001600160a01b0319166001600160a01b0390921691909117905533600090815260056020526040812080549161062683610d5f565b9091555050336000908152600560208181526040808420600190810180546001600160a01b039b909b16808752600685529286208b90559383528901835591835290912090950180546001600160a01b03191690951790945550505050565b60035460009033906001600160a01b03168114806106b057506001546001600160a01b038281169116145b806106c857506002546001600160a01b038281169116145b6106e45760405162461bcd60e51b815260040161018090610c9c565b6001600160a01b0380841660009081526004602081905260408083206003015492549051637c8ac53b60e11b815292841693169163f9158a769161072a91859101610be6565b60206040518083038186803b15801561074257600080fd5b505afa158015610756573d6000803e3d6000fd5b505050506040513d601f19601f8201168201806040525081019061077a9190610bc4565b156107e6576001600160a01b038416600090815260046020526040902060020154156107e65760006001600160a01b038516600090815260046020526040902054600160a01b900460ff1660018111156107d6576107d6610db0565b14156107e6576001925050610230565b5060009392505050565b600054604051637c8ac53b60e11b815260609133916001600160a01b039091169063f9158a7690610825908490600401610be6565b60206040518083038186803b15801561083d57600080fd5b505afa158015610851573d6000803e3d6000fd5b505050506040513d601f19601f820116820180604052508101906108759190610bc4565b6108915760405162461bcd60e51b815260040161018090610cc8565b33600090815260056020908152604091829020600101805483518184028101840190945280845290918301828280156108f357602002820191906000526020600020905b81546001600160a01b031681526001909101906020018083116108d5575b505050505091505b5090565b60035433906001600160a01b031681148061092757506001546001600160a01b038281169116145b8061093f57506002546001600160a01b038281169116145b61095b5760405162461bcd60e51b815260040161018090610c9c565b50600380546001600160a01b0319166001600160a01b0392909216919091179055565b60035433906001600160a01b03168114806109a657506001546001600160a01b038281169116145b806109be57506002546001600160a01b038281169116145b6109da5760405162461bcd60e51b815260040161018090610c9c565b50600280546001600160a01b0319166001600160a01b0392909216919091179055565b6000805b8215610a2657610a12600a84610cf1565b925080610a1e81610d7a565b915050610a01565b92915050565b828054610a3890610d2a565b90600052602060002090601f016020900481019282610a5a5760008555610aa0565b82601f10610a7357805160ff1916838001178555610aa0565b82800160010185558215610aa0579182015b82811115610aa0578251825591602001919060010190610a85565b506108fb9291505b808211156108fb5760008155600101610aa8565b80356001600160a01b0381168114610ad357600080fd5b919050565b600060208284031215610aea57600080fd5b610af382610abc565b9392505050565b600080600060608486031215610b0f57600080fd5b610b1884610abc565b925060208401356001600160401b0380821115610b3457600080fd5b818601915086601f830112610b4857600080fd5b813581811115610b5a57610b5a610ddc565b604051601f8201601f19908116603f01168101908382118183101715610b8257610b82610ddc565b81604052828152896020848701011115610b9b57600080fd5b826020860160208301376000602084830101528096505050505050604084013590509250925092565b600060208284031215610bd657600080fd5b81518015158114610af357600080fd5b6001600160a01b0391909116815260200190565b6020808252825182820181905260009190848201906040850190845b81811015610c3b5783516001600160a01b031683529284019291840191600101610c16565b50909695505050505050565b600060208083528351808285015260005b81811015610c7457858101830151858201604001528201610c58565b81811115610c86576000604083870101525b50601f01601f1916929092016040019392505050565b60208082526012908201527114d0c81cd95b99195c881b9bc81d985b1a5960721b604082015260600190565b6020808252600f908201526e4e6f6d657320686f73706974616c7360881b604082015260600190565b600082610d0e57634e487b7160e01b600052601260045260246000fd5b500490565b600081610d2257610d22610d9a565b506000190190565b600181811c90821680610d3e57607f821691505b6020821081141561023057634e487b7160e01b600052602260045260246000fd5b6000600019821415610d7357610d73610d9a565b5060010190565b600060ff821660ff811415610d9157610d91610d9a565b60010192915050565b634e487b7160e01b600052601160045260246000fd5b634e487b7160e01b600052602160045260246000fd5b634e487b7160e01b600052603260045260246000fd5b634e487b7160e01b600052604160045260246000fdfea264697066735822122029ef3cdb527a3e5741ec0be60ba21e53d1abdcda642a09810c6019438cd4058e64736f6c63430008070033",
  "linkReferences": {},
  "deployedLinkReferences": {}
}