{
  "_format": "hh-sol-artifact-1",
  "contractName": "DateTime",
  "sourceName": "contracts/DateTime.sol",
  "abi": [
    {
      "inputs": [
        {
          "internalType": "uint256",
          "name": "timestamp",
          "type": "uint256"
        }
      ],
      "name": "getDay",
      "outputs": [
        {
          "internalType": "uint8",
          "name": "",
          "type": "uint8"
        }
      ],
      "stateMutability": "pure",
      "type": "function"
    },
    {
      "inputs": [
        {
          "internalType": "uint8",
          "name": "month",
          "type": "uint8"
        },
        {
          "internalType": "uint16",
          "name": "year",
          "type": "uint16"
        }
      ],
      "name": "getDaysInMonth",
      "outputs": [
        {
          "internalType": "uint8",
          "name": "",
          "type": "uint8"
        }
      ],
      "stateMutability": "pure",
      "type": "function"
    },
    {
      "inputs": [
        {
          "internalType": "uint256",
          "name": "timestamp",
          "type": "uint256"
        }
      ],
      "name": "getHour",
      "outputs": [
        {
          "internalType": "uint8",
          "name": "",
          "type": "uint8"
        }
      ],
      "stateMutability": "pure",
      "type": "function"
    },
    {
      "inputs": [
        {
          "internalType": "uint256",
          "name": "timestamp",
          "type": "uint256"
        }
      ],
      "name": "getMinute",
      "outputs": [
        {
          "internalType": "uint8",
          "name": "",
          "type": "uint8"
        }
      ],
      "stateMutability": "pure",
      "type": "function"
    },
    {
      "inputs": [
        {
          "internalType": "uint256",
          "name": "timestamp",
          "type": "uint256"
        }
      ],
      "name": "getMonth",
      "outputs": [
        {
          "internalType": "uint8",
          "name": "",
          "type": "uint8"
        }
      ],
      "stateMutability": "pure",
      "type": "function"
    },
    {
      "inputs": [
        {
          "internalType": "uint256",
          "name": "timestamp",
          "type": "uint256"
        }
      ],
      "name": "getSecond",
      "outputs": [
        {
          "internalType": "uint8",
          "name": "",
          "type": "uint8"
        }
      ],
      "stateMutability": "pure",
      "type": "function"
    },
    {
      "inputs": [
        {
          "internalType": "uint256",
          "name": "timestamp",
          "type": "uint256"
        }
      ],
      "name": "getWeekday",
      "outputs": [
        {
          "internalType": "uint8",
          "name": "",
          "type": "uint8"
        }
      ],
      "stateMutability": "pure",
      "type": "function"
    },
    {
      "inputs": [
        {
          "internalType": "uint256",
          "name": "timestamp",
          "type": "uint256"
        }
      ],
      "name": "getYear",
      "outputs": [
        {
          "internalType": "uint16",
          "name": "",
          "type": "uint16"
        }
      ],
      "stateMutability": "pure",
      "type": "function"
    },
    {
      "inputs": [
        {
          "internalType": "uint16",
          "name": "year",
          "type": "uint16"
        }
      ],
      "name": "isLeapYear",
      "outputs": [
        {
          "internalType": "bool",
          "name": "",
          "type": "bool"
        }
      ],
      "stateMutability": "pure",
      "type": "function"
    },
    {
      "inputs": [
        {
          "internalType": "uint256",
          "name": "year",
          "type": "uint256"
        }
      ],
      "name": "leapYearsBefore",
      "outputs": [
        {
          "internalType": "uint256",
          "name": "",
          "type": "uint256"
        }
      ],
      "stateMutability": "pure",
      "type": "function"
    },
    {
      "inputs": [
        {
          "internalType": "uint16",
          "name": "year",
          "type": "uint16"
        },
        {
          "internalType": "uint8",
          "name": "month",
          "type": "uint8"
        },
        {
          "internalType": "uint8",
          "name": "day",
          "type": "uint8"
        },
        {
          "internalType": "uint8",
          "name": "hour",
          "type": "uint8"
        },
        {
          "internalType": "uint8",
          "name": "minute",
          "type": "uint8"
        }
      ],
      "name": "toTimestamp",
      "outputs": [
        {
          "internalType": "uint256",
          "name": "timestamp",
          "type": "uint256"
        }
      ],
      "stateMutability": "pure",
      "type": "function"
    },
    {
      "inputs": [
        {
          "internalType": "uint16",
          "name": "year",
          "type": "uint16"
        },
        {
          "internalType": "uint8",
          "name": "month",
          "type": "uint8"
        },
        {
          "internalType": "uint8",
          "name": "day",
          "type": "uint8"
        },
        {
          "internalType": "uint8",
          "name": "hour",
          "type": "uint8"
        }
      ],
      "name": "toTimestamp",
      "outputs": [
        {
          "internalType": "uint256",
          "name": "timestamp",
          "type": "uint256"
        }
      ],
      "stateMutability": "pure",
      "type": "function"
    },
    {
      "inputs": [
        {
          "internalType": "uint16",
          "name": "year",
          "type": "uint16"
        },
        {
          "internalType": "uint8",
          "name": "month",
          "type": "uint8"
        },
        {
          "internalType": "uint8",
          "name": "day",
          "type": "uint8"
        }
      ],
      "name": "toTimestamp",
      "outputs": [
        {
          "internalType": "uint256",
          "name": "timestamp",
          "type": "uint256"
        }
      ],
      "stateMutability": "pure",
      "type": "function"
    },
    {
      "inputs": [
        {
          "internalType": "uint16",
          "name": "year",
          "type": "uint16"
        },
        {
          "internalType": "uint8",
          "name": "month",
          "type": "uint8"
        },
        {
          "internalType": "uint8",
          "name": "day",
          "type": "uint8"
        },
        {
          "internalType": "uint8",
          "name": "hour",
          "type": "uint8"
        },
        {
          "internalType": "uint8",
          "name": "minute",
          "type": "uint8"
        },
        {
          "internalType": "uint8",
          "name": "second",
          "type": "uint8"
        }
      ],
      "name": "toTimestamp",
      "outputs": [
        {
          "internalType": "uint256",
          "name": "timestamp",
          "type": "uint256"
        }
      ],
      "stateMutability": "pure",
      "type": "function"
    }
  ],
  "bytecode": "0x610ca561003a600b82828239805160001a60731461002d57634e487b7160e01b600052600060045260246000fd5b30600052607381538281f3fe73000000000000000000000000000000000000000030146080604052600436106100c45760003560e01c80633e239e1a146100c95780634ac1ad78146100f357806362ba96871461010657806365c72840146101275780637f7918331461013a5780638aa001fc1461014d5780638c8d98a0146101605780639054bdec1461017357806392d6631314610186578063a324ad24146101ac578063a6f0e577146101bf578063b1999937146101e2578063b238ad0e146101f5578063fa93f88314610208575b600080fd5b6100dc6100d7366004610ac2565b61021b565b60405160ff90911681526020015b60405180910390f35b6100dc610101366004610ac2565b610245565b6101196101143660046109e9565b610261565b6040519081526020016100ea565b6100dc610135366004610ac2565b61027c565b610119610148366004610995565b610291565b6100dc61015b366004610ac2565b6102ab565b61011961016e366004610952565b6102b8565b610119610181366004610a4e565b6102d2565b610199610194366004610ac2565b610483565b60405161ffff90911681526020016100ea565b6100dc6101ba366004610ac2565b610573565b6101d26101cd366004610930565b610588565b60405190151581526020016100ea565b6101196101f0366004610ac2565b6105e7565b6100dc610203366004610adb565b61062c565b6100dc610216366004610ac2565b6106f3565b60006018603c61022b8185610b26565b6102359190610b26565b61023f9190610c19565b92915050565b600060076102566201518084610b26565b610235906004610b0e565b6000610272868686868660006102d2565b9695505050505050565b600061028782610701565b6040015192915050565b60006102a2858585856000806102d2565b95945050505050565b600061023f603c83610c19565b60006102ca84848460008060006102d2565b949350505050565b60006107b25b8761ffff168161ffff16101561032e576102f181610588565b1561030b576103046301e2850083610b0e565b915061031c565b6103196301e1338083610b0e565b91505b8061032681610bb6565b9150506102d8565b6103366108e9565b601f815261034389610588565b1561035457601d602082015261035c565b601c60208201525b601f60408201819052601e606083018190526080830182905260a0830181905260c0830182905260e0830182905261010083018190526101208301829052610140830152610160820152600191505b8760ff168261ffff16101561040d57806103c6600184610b59565b61ffff16600c81106103da576103da610c59565b60200201516103ef9060ff1662015180610b3a565b6103f99084610b0e565b92508161040581610bb6565b9250506103ab565b610418600188610b93565b6104289060ff1662015180610b3a565b6104329084610b0e565b925061044360ff8716610e10610b3a565b61044d9084610b0e565b925061045d60ff8616603c610b3a565b6104679084610b0e565b925061047660ff851684610b0e565b9998505050505050505050565b60008080806104966301e1338086610b26565b6104a2906107b2610b0e565b91506104af6107b26105e7565b6104bc8361ffff166105e7565b6104c69190610b7c565b90506104d6816301e28500610b3a565b6104e09084610b0e565b9250806104ef6107b284610b59565b61ffff166104fd9190610b7c565b61050b906301e13380610b3a565b6105159084610b0e565b92505b8483111561056b5761052e6101cd600184610b59565b15610548576105416301e2850084610b7c565b9250610559565b6105566301e1338084610b7c565b92505b610564600183610b59565b9150610518565b509392505050565b600061057e82610701565b6020015192915050565b6000610595600483610bf8565b61ffff16156105a657506000919050565b6105b1606483610bf8565b61ffff16156105c257506001919050565b6105ce61019083610bf8565b61ffff16156105df57506000919050565b506001919050565b60006105f4600183610b7c565b915061060261019083610b26565b61060d606484610b26565b610618600485610b26565b6106229190610b7c565b61023f9190610b0e565b60008260ff166001148061064357508260ff166003145b8061065157508260ff166005145b8061065f57508260ff166007145b8061066d57508260ff166008145b8061067b57508260ff16600a145b8061068957508260ff16600c145b156106965750601f61023f565b8260ff16600414806106ab57508260ff166006145b806106b957508260ff166009145b806106c757508260ff16600b145b156106d45750601e61023f565b6106dd82610588565b156106ea5750601d61023f565b50601c92915050565b6000603c6102358184610b26565b6040805160e081018252600080825260208201819052918101829052606081018290526080810182905260a0810182905260c0810182905290808061074585610483565b61ffff1684526107566107b26105e7565b84516107659061ffff166105e7565b61076f9190610b7c565b915061077f826301e28500610b3a565b6107899084610b0e565b9250816107b2856000015161079e9190610b59565b61ffff166107ac9190610b7c565b6107ba906301e13380610b3a565b6107c49084610b0e565b92506000600191505b600c8260ff1611610835576107e682866000015161062c565b6107f69060ff1662015180610b3a565b9050856108038583610b0e565b11156108175760ff82166020860152610835565b6108218185610b0e565b93508161082d81610bd8565b9250506107cd565b600191505b61084c8560200151866000015161062c565b60ff168260ff161161089b57856108668562015180610b0e565b111561087a5760ff8216604086015261089b565b6108876201518085610b0e565b93508161089381610bd8565b92505061083a565b6108a48661021b565b60ff1660608601526108b5866106f3565b60ff1660808601526108c6866102ab565b60ff1660a08601526108d786610245565b60ff1660c08601525092949350505050565b604051806101800160405280600c906020820280368337509192915050565b803561ffff8116811461091a57600080fd5b919050565b803560ff8116811461091a57600080fd5b60006020828403121561094257600080fd5b61094b82610908565b9392505050565b60008060006060848603121561096757600080fd5b61097084610908565b925061097e6020850161091f565b915061098c6040850161091f565b90509250925092565b600080600080608085870312156109ab57600080fd5b6109b485610908565b93506109c26020860161091f565b92506109d06040860161091f565b91506109de6060860161091f565b905092959194509250565b600080600080600060a08688031215610a0157600080fd5b610a0a86610908565b9450610a186020870161091f565b9350610a266040870161091f565b9250610a346060870161091f565b9150610a426080870161091f565b90509295509295909350565b60008060008060008060c08789031215610a6757600080fd5b610a7087610908565b9550610a7e6020880161091f565b9450610a8c6040880161091f565b9350610a9a6060880161091f565b9250610aa86080880161091f565b9150610ab660a0880161091f565b90509295509295509295565b600060208284031215610ad457600080fd5b5035919050565b60008060408385031215610aee57600080fd5b610af78361091f565b9150610b0560208401610908565b90509250929050565b60008219821115610b2157610b21610c2d565b500190565b600082610b3557610b35610c43565b500490565b6000816000190483118215151615610b5457610b54610c2d565b500290565b600061ffff83811690831681811015610b7457610b74610c2d565b039392505050565b600082821015610b8e57610b8e610c2d565b500390565b600060ff821660ff841680821015610bad57610bad610c2d565b90039392505050565b600061ffff80831681811415610bce57610bce610c2d565b6001019392505050565b600060ff821660ff811415610bef57610bef610c2d565b60010192915050565b600061ffff80841680610c0d57610c0d610c43565b92169190910692915050565b600082610c2857610c28610c43565b500690565b634e487b7160e01b600052601160045260246000fd5b634e487b7160e01b600052601260045260246000fd5b634e487b7160e01b600052603260045260246000fdfea26469706673582212205345c43c7b0b17e8d8a9f40bbc0ed7203e07422643f6b1a3ad13e6c7a310c67764736f6c63430008070033",
  "linkReferences": {},
  "deployedLinkReferences": {}
}