{
  "_format": "hh-sol-artifact-1",
  "contractName": "Metges",
  "sourceName": "contracts/Metges.sol",
  "abi": [
    {
      "inputs": [
        {
          "internalType": "address",
          "name": "_contracteHospitals",
          "type": "address"
        },
        {
          "internalType": "address",
          "name": "_aRecepta",
          "type": "address"
        }
      ],
      "stateMutability": "nonpayable",
      "type": "constructor"
    },
    {
      "inputs": [
        {
          "internalType": "address",
          "name": "_addressUsuari",
          "type": "address"
        },
        {
          "internalType": "string",
          "name": "_nomMedicament",
          "type": "string"
        },
        {
          "internalType": "string",
          "name": "_ium",
          "type": "string"
        },
        {
          "internalType": "uint16",
          "name": "_anyCaducitat",
          "type": "uint16"
        },
        {
          "internalType": "uint8",
          "name": "_mesCaducitat",
          "type": "uint8"
        },
        {
          "internalType": "uint8",
          "name": "_diaCaducitat",
          "type": "uint8"
        }
      ],
      "name": "creaRecepta",
      "outputs": [],
      "stateMutability": "nonpayable",
      "type": "function"
    }
  ],
  "bytecode": "0x608060405234801561001057600080fd5b506040516104ba3803806104ba83398101604081905261002f9161007c565b600080546001600160a01b039384166001600160a01b031991821617909155600180549290931691161790556100af565b80516001600160a01b038116811461007757600080fd5b919050565b6000806040838503121561008f57600080fd5b61009883610060565b91506100a660208401610060565b90509250929050565b6103fc806100be6000396000f3fe608060405234801561001057600080fd5b506004361061002b5760003560e01c8063e167d62614610030575b600080fd5b61004361003e366004610219565b610045565b005b600054604051636cb69e2760e01b81523360048201819052916001600160a01b031690636cb69e279060240160206040518083038186803b15801561008957600080fd5b505afa15801561009d573d6000803e3d6000fd5b505050506040513d601f19601f820116820180604052508101906100c191906102d4565b6101005760405162461bcd60e51b815260206004820152600c60248201526b4e6f6d6573206d657467657360a01b604482015260640160405180910390fd5b6001546040516322fde81760e01b81526001600160a01b03909116906322fde8179061013c908a9033908b908b908b908b908b9060040161034a565b600060405180830381600087803b15801561015657600080fd5b505af115801561016a573d6000803e3d6000fd5b5050505050505050505050565b600082601f83011261018857600080fd5b81356001600160401b03808211156101a2576101a26103b0565b604051601f8301601f19908116603f011681019082821181831017156101ca576101ca6103b0565b816040528381528660208588010111156101e357600080fd5b836020870160208301376000602085830101528094505050505092915050565b803560ff8116811461021457600080fd5b919050565b60008060008060008060c0878903121561023257600080fd5b86356001600160a01b038116811461024957600080fd5b955060208701356001600160401b038082111561026557600080fd5b6102718a838b01610177565b9650604089013591508082111561028757600080fd5b5061029489828a01610177565b945050606087013561ffff811681146102ac57600080fd5b92506102ba60808801610203565b91506102c860a08801610203565b90509295509295509295565b6000602082840312156102e657600080fd5b815180151581146102f657600080fd5b9392505050565b6000815180845260005b8181101561032357602081850181015186830182015201610307565b81811115610335576000602083870101525b50601f01601f19169290920160200192915050565b6001600160a01b0388811682528716602082015260e060408201819052600090610376908301886102fd565b828103606084015261038881886102fd565b61ffff969096166080840152505060ff92831660a0820152911660c090910152949350505050565b634e487b7160e01b600052604160045260246000fdfea2646970667358221220c1e48b606c61dd949acea3ce04ededd2894599cf0bd82c3a7f476c3c228efa0c64736f6c63430008070033",
  "linkReferences": {},
  "deployedLinkReferences": {}
}