{
  "_format": "hh-sol-artifact-1",
  "contractName": "Metges",
  "sourceName": "contracts/Metges.sol",
  "abi": [
    {
      "inputs": [
        {
          "internalType": "address",
          "name": "_contracteHospitals",
          "type": "address"
        },
        {
          "internalType": "address",
          "name": "_aRecepta",
          "type": "address"
        }
      ],
      "stateMutability": "nonpayable",
      "type": "constructor"
    },
    {
      "inputs": [],
      "name": "CREAEXEMPLERECEPTA",
      "outputs": [],
      "stateMutability": "nonpayable",
      "type": "function"
    },
    {
      "inputs": [
        {
          "internalType": "address",
          "name": "_addressUsuari",
          "type": "address"
        },
        {
          "internalType": "string",
          "name": "_nomMedicament",
          "type": "string"
        },
        {
          "internalType": "string",
          "name": "_ium",
          "type": "string"
        },
        {
          "internalType": "uint16",
          "name": "_anyCaducitat",
          "type": "uint16"
        },
        {
          "internalType": "uint8",
          "name": "_mesCaducitat",
          "type": "uint8"
        },
        {
          "internalType": "uint8",
          "name": "_diaCaducitat",
          "type": "uint8"
        }
      ],
      "name": "creaRecepta",
      "outputs": [],
      "stateMutability": "nonpayable",
      "type": "function"
    }
  ],
  "bytecode": "0x608060405234801561001057600080fd5b5060405161045938038061045983398101604081905261002f9161007c565b600080546001600160a01b039384166001600160a01b031991821617909155600180549290931691161790556100af565b80516001600160a01b038116811461007757600080fd5b919050565b6000806040838503121561008f57600080fd5b61009883610060565b91506100a660208401610060565b90509250929050565b61039b806100be6000396000f3fe608060405234801561001057600080fd5b50600436106100365760003560e01c806369977c221461003b578063e167d62614610045575b600080fd5b610043610058565b005b6100436100533660046101e0565b6100c7565b6100c57378731d3ca6b7e34ac0f824c42a7cc18a495cabab6040518060400160405280600a8152602001696e6f6d206661726d616360b01b8152506040518060400160405280600d81526020016c3132333435363738393031323360981b8152506107e66006601c6100c7565b565b6001546040516322fde81760e01b81526001600160a01b03909116906322fde8179061010390899033908a908a908a908a908a906004016102e9565b600060405180830381600087803b15801561011d57600080fd5b505af1158015610131573d6000803e3d6000fd5b50505050505050505050565b600082601f83011261014e57600080fd5b813567ffffffffffffffff808211156101695761016961034f565b604051601f8301601f19908116603f011681019082821181831017156101915761019161034f565b816040528381528660208588010111156101aa57600080fd5b836020870160208301376000602085830101528094505050505092915050565b803560ff811681146101db57600080fd5b919050565b60008060008060008060c087890312156101f957600080fd5b86356001600160a01b038116811461021057600080fd5b9550602087013567ffffffffffffffff8082111561022d57600080fd5b6102398a838b0161013d565b9650604089013591508082111561024f57600080fd5b5061025c89828a0161013d565b945050606087013561ffff8116811461027457600080fd5b9250610282608088016101ca565b915061029060a088016101ca565b90509295509295509295565b6000815180845260005b818110156102c2576020818501810151868301820152016102a6565b818111156102d4576000602083870101525b50601f01601f19169290920160200192915050565b6001600160a01b0388811682528716602082015260e0604082018190526000906103159083018861029c565b8281036060840152610327818861029c565b61ffff969096166080840152505060ff92831660a0820152911660c090910152949350505050565b634e487b7160e01b600052604160045260246000fdfea264697066735822122073ead0f709feea8225dc99bc8021c150bb177d94fb2a4136598f2dcd9bdaff5464736f6c63430008070033",
  "linkReferences": {},
  "deployedLinkReferences": {}
}