{
  "_format": "hh-sol-artifact-1",
  "contractName": "Recepta",
  "sourceName": "contracts/TokenRecepta.sol",
  "abi": [
    {
      "inputs": [],
      "stateMutability": "nonpayable",
      "type": "constructor"
    },
    {
      "anonymous": false,
      "inputs": [
        {
          "indexed": true,
          "internalType": "address",
          "name": "owner",
          "type": "address"
        },
        {
          "indexed": true,
          "internalType": "address",
          "name": "approved",
          "type": "address"
        },
        {
          "indexed": true,
          "internalType": "uint256",
          "name": "tokenId",
          "type": "uint256"
        }
      ],
      "name": "Approval",
      "type": "event"
    },
    {
      "anonymous": false,
      "inputs": [
        {
          "indexed": true,
          "internalType": "address",
          "name": "owner",
          "type": "address"
        },
        {
          "indexed": true,
          "internalType": "address",
          "name": "operator",
          "type": "address"
        },
        {
          "indexed": false,
          "internalType": "bool",
          "name": "approved",
          "type": "bool"
        }
      ],
      "name": "ApprovalForAll",
      "type": "event"
    },
    {
      "anonymous": false,
      "inputs": [
        {
          "indexed": true,
          "internalType": "address",
          "name": "previousOwner",
          "type": "address"
        },
        {
          "indexed": true,
          "internalType": "address",
          "name": "newOwner",
          "type": "address"
        }
      ],
      "name": "OwnershipTransferred",
      "type": "event"
    },
    {
      "anonymous": false,
      "inputs": [
        {
          "indexed": true,
          "internalType": "address",
          "name": "from",
          "type": "address"
        },
        {
          "indexed": true,
          "internalType": "address",
          "name": "to",
          "type": "address"
        },
        {
          "indexed": true,
          "internalType": "uint256",
          "name": "tokenId",
          "type": "uint256"
        }
      ],
      "name": "Transfer",
      "type": "event"
    },
    {
      "inputs": [
        {
          "internalType": "address",
          "name": "to",
          "type": "address"
        },
        {
          "internalType": "uint256",
          "name": "tokenId",
          "type": "uint256"
        }
      ],
      "name": "approve",
      "outputs": [],
      "stateMutability": "nonpayable",
      "type": "function"
    },
    {
      "inputs": [
        {
          "internalType": "address",
          "name": "owner",
          "type": "address"
        }
      ],
      "name": "balanceOf",
      "outputs": [
        {
          "internalType": "uint256",
          "name": "",
          "type": "uint256"
        }
      ],
      "stateMutability": "view",
      "type": "function"
    },
    {
      "inputs": [
        {
          "internalType": "address",
          "name": "_addressUsuari",
          "type": "address"
        },
        {
          "internalType": "address",
          "name": "_addressMetge",
          "type": "address"
        },
        {
          "internalType": "string",
          "name": "_nomMedicament",
          "type": "string"
        },
        {
          "internalType": "string",
          "name": "_ium",
          "type": "string"
        },
        {
          "internalType": "uint16",
          "name": "_anyCaducitat",
          "type": "uint16"
        },
        {
          "internalType": "uint8",
          "name": "_mesCaducitat",
          "type": "uint8"
        },
        {
          "internalType": "uint8",
          "name": "_diaCaducitat",
          "type": "uint8"
        }
      ],
      "name": "crearRecepta",
      "outputs": [],
      "stateMutability": "nonpayable",
      "type": "function"
    },
    {
      "inputs": [
        {
          "internalType": "uint256",
          "name": "_idRecepta",
          "type": "uint256"
        },
        {
          "internalType": "address",
          "name": "_adUsuari",
          "type": "address"
        },
        {
          "internalType": "address",
          "name": "_adFarmacia",
          "type": "address"
        }
      ],
      "name": "enviaRecepta",
      "outputs": [],
      "stateMutability": "nonpayable",
      "type": "function"
    },
    {
      "inputs": [
        {
          "internalType": "address",
          "name": "_adFarmacia",
          "type": "address"
        }
      ],
      "name": "enviaReceptesMinisteri",
      "outputs": [],
      "stateMutability": "nonpayable",
      "type": "function"
    },
    {
      "inputs": [
        {
          "internalType": "uint256",
          "name": "tokenId",
          "type": "uint256"
        }
      ],
      "name": "getApproved",
      "outputs": [
        {
          "internalType": "address",
          "name": "",
          "type": "address"
        }
      ],
      "stateMutability": "view",
      "type": "function"
    },
    {
      "inputs": [
        {
          "internalType": "address",
          "name": "owner",
          "type": "address"
        },
        {
          "internalType": "address",
          "name": "operator",
          "type": "address"
        }
      ],
      "name": "isApprovedForAll",
      "outputs": [
        {
          "internalType": "bool",
          "name": "",
          "type": "bool"
        }
      ],
      "stateMutability": "view",
      "type": "function"
    },
    {
      "inputs": [],
      "name": "name",
      "outputs": [
        {
          "internalType": "string",
          "name": "",
          "type": "string"
        }
      ],
      "stateMutability": "view",
      "type": "function"
    },
    {
      "inputs": [],
      "name": "owner",
      "outputs": [
        {
          "internalType": "address",
          "name": "",
          "type": "address"
        }
      ],
      "stateMutability": "view",
      "type": "function"
    },
    {
      "inputs": [
        {
          "internalType": "uint256",
          "name": "tokenId",
          "type": "uint256"
        }
      ],
      "name": "ownerOf",
      "outputs": [
        {
          "internalType": "address",
          "name": "",
          "type": "address"
        }
      ],
      "stateMutability": "view",
      "type": "function"
    },
    {
      "inputs": [
        {
          "internalType": "address",
          "name": "_aFarmacies",
          "type": "address"
        }
      ],
      "name": "rebAddressContracteFarmacies",
      "outputs": [],
      "stateMutability": "nonpayable",
      "type": "function"
    },
    {
      "inputs": [
        {
          "internalType": "address",
          "name": "_aMetges",
          "type": "address"
        }
      ],
      "name": "rebAddressContracteMetges",
      "outputs": [],
      "stateMutability": "nonpayable",
      "type": "function"
    },
    {
      "inputs": [
        {
          "internalType": "address",
          "name": "_aUsuaris",
          "type": "address"
        }
      ],
      "name": "rebAddressContracteUsuaris",
      "outputs": [],
      "stateMutability": "nonpayable",
      "type": "function"
    },
    {
      "inputs": [
        {
          "internalType": "address",
          "name": "_contracteMinisteri",
          "type": "address"
        },
        {
          "internalType": "address",
          "name": "_aHospitals",
          "type": "address"
        }
      ],
      "name": "rebAddressContractesMinisteriHospital",
      "outputs": [],
      "stateMutability": "nonpayable",
      "type": "function"
    },
    {
      "inputs": [
        {
          "internalType": "uint256",
          "name": "_idRecepta",
          "type": "uint256"
        },
        {
          "internalType": "address",
          "name": "_adUsuari",
          "type": "address"
        }
      ],
      "name": "rebutjaRecepta",
      "outputs": [],
      "stateMutability": "nonpayable",
      "type": "function"
    },
    {
      "inputs": [],
      "name": "renounceOwnership",
      "outputs": [],
      "stateMutability": "nonpayable",
      "type": "function"
    },
    {
      "inputs": [
        {
          "internalType": "uint256",
          "name": "_idRecepta",
          "type": "uint256"
        },
        {
          "internalType": "address",
          "name": "_adUsuari",
          "type": "address"
        }
      ],
      "name": "retornaDadesRecepta",
      "outputs": [
        {
          "internalType": "string",
          "name": "nomMetge",
          "type": "string"
        },
        {
          "internalType": "string",
          "name": "medicament",
          "type": "string"
        },
        {
          "internalType": "string",
          "name": "ium",
          "type": "string"
        }
      ],
      "stateMutability": "view",
      "type": "function"
    },
    {
      "inputs": [
        {
          "internalType": "uint256",
          "name": "_idRecepta",
          "type": "uint256"
        }
      ],
      "name": "retornaEstatRecepta",
      "outputs": [
        {
          "internalType": "string",
          "name": "",
          "type": "string"
        }
      ],
      "stateMutability": "view",
      "type": "function"
    },
    {
      "inputs": [
        {
          "internalType": "address",
          "name": "_adUsuari",
          "type": "address"
        }
      ],
      "name": "retornaIDsReceptes",
      "outputs": [
        {
          "internalType": "uint256[]",
          "name": "",
          "type": "uint256[]"
        }
      ],
      "stateMutability": "view",
      "type": "function"
    },
    {
      "inputs": [
        {
          "internalType": "address",
          "name": "from",
          "type": "address"
        },
        {
          "internalType": "address",
          "name": "to",
          "type": "address"
        },
        {
          "internalType": "uint256",
          "name": "tokenId",
          "type": "uint256"
        }
      ],
      "name": "safeTransferFrom",
      "outputs": [],
      "stateMutability": "nonpayable",
      "type": "function"
    },
    {
      "inputs": [
        {
          "internalType": "address",
          "name": "from",
          "type": "address"
        },
        {
          "internalType": "address",
          "name": "to",
          "type": "address"
        },
        {
          "internalType": "uint256",
          "name": "tokenId",
          "type": "uint256"
        },
        {
          "internalType": "bytes",
          "name": "_data",
          "type": "bytes"
        }
      ],
      "name": "safeTransferFrom",
      "outputs": [],
      "stateMutability": "nonpayable",
      "type": "function"
    },
    {
      "inputs": [
        {
          "internalType": "address",
          "name": "operator",
          "type": "address"
        },
        {
          "internalType": "bool",
          "name": "approved",
          "type": "bool"
        }
      ],
      "name": "setApprovalForAll",
      "outputs": [],
      "stateMutability": "nonpayable",
      "type": "function"
    },
    {
      "inputs": [
        {
          "internalType": "bytes4",
          "name": "interfaceId",
          "type": "bytes4"
        }
      ],
      "name": "supportsInterface",
      "outputs": [
        {
          "internalType": "bool",
          "name": "",
          "type": "bool"
        }
      ],
      "stateMutability": "view",
      "type": "function"
    },
    {
      "inputs": [],
      "name": "symbol",
      "outputs": [
        {
          "internalType": "string",
          "name": "",
          "type": "string"
        }
      ],
      "stateMutability": "view",
      "type": "function"
    },
    {
      "inputs": [
        {
          "internalType": "uint256",
          "name": "tokenId",
          "type": "uint256"
        }
      ],
      "name": "tokenURI",
      "outputs": [
        {
          "internalType": "string",
          "name": "",
          "type": "string"
        }
      ],
      "stateMutability": "view",
      "type": "function"
    },
    {
      "inputs": [
        {
          "internalType": "address",
          "name": "from",
          "type": "address"
        },
        {
          "internalType": "address",
          "name": "to",
          "type": "address"
        },
        {
          "internalType": "uint256",
          "name": "tokenId",
          "type": "uint256"
        }
      ],
      "name": "transferFrom",
      "outputs": [],
      "stateMutability": "nonpayable",
      "type": "function"
    },
    {
      "inputs": [
        {
          "internalType": "address",
          "name": "newOwner",
          "type": "address"
        }
      ],
      "name": "transferOwnership",
      "outputs": [],
      "stateMutability": "nonpayable",
      "type": "function"
    },
    {
      "inputs": [
        {
          "internalType": "uint256",
          "name": "_idRecepta",
          "type": "uint256"
        },
        {
          "internalType": "address",
          "name": "_adFarmacia",
          "type": "address"
        }
      ],
      "name": "visualitzaRecepta",
      "outputs": [
        {
          "internalType": "string",
          "name": "valida",
          "type": "string"
        },
        {
          "internalType": "string",
          "name": "nomUsuari",
          "type": "string"
        },
        {
          "internalType": "string",
          "name": "nomMetge",
          "type": "string"
        },
        {
          "internalType": "string",
          "name": "medicament",
          "type": "string"
        },
        {
          "internalType": "string",
          "name": "ium",
          "type": "string"
        }
      ],
      "stateMutability": "nonpayable",
      "type": "function"
    }
  ],
  "bytecode": "0x6080604052600c80546001600160a01b0319908116735735cff62509a9bab97df7c4c51d49556417063917909155600d80549091167392482ba45a4d2186dafb486b322c6d0b88410fe71790553480156200005957600080fd5b50604051806040016040528060078152602001665265636570746160c81b815250604051806040016040528060048152602001631490d41560e21b815250620000b1620000ab620000e560201b60201c565b620000e9565b8151620000c690600190602085019062000139565b508051620000dc90600290602084019062000139565b5050506200021c565b3390565b600080546001600160a01b038381166001600160a01b0319831681178455604051919092169283917f8be0079c531659141344cd1fd0a4f28419497f9722a3daafe3b4186f6b6457e09190a35050565b8280546200014790620001df565b90600052602060002090601f0160209004810192826200016b5760008555620001b6565b82601f106200018657805160ff1916838001178555620001b6565b82800160010185558215620001b6579182015b82811115620001b657825182559160200191906001019062000199565b50620001c4929150620001c8565b5090565b5b80821115620001c45760008155600101620001c9565b600181811c90821680620001f457607f821691505b602082108114156200021657634e487b7160e01b600052602260045260246000fd5b50919050565b613255806200022c6000396000f3fe608060405234801561001057600080fd5b50600436106101545760003560e01c806301ffc9a71461015957806306fdde0314610181578063081812fc14610196578063095ea7b3146101b65780631a210afe146101cb57806322fde817146101eb57806323b872dd146101fe5780632ed22fd1146102115780633a05493e14610224578063411e16271461023757806342842e0e1461024a5780636352211e1461025d57806370a0823114610270578063715018a6146102915780638da5cb5b1461029957806395d89b41146102a1578063a22cb465146102a9578063a2fc059b146102bc578063a88eda761461030a578063b86991dc1461031d578063b88d4fde1461033f578063bb139ade14610352578063be73c00414610365578063c7514f7d14610378578063c87b56dd1461039c578063e985e9c5146103af578063f04f334e146103c2578063f2fde38b146103d5575b600080fd5b61016c610167366004612c10565b6103e8565b60405190151581526020015b60405180910390f35b61018961043a565b6040516101789190612e41565b6101a96101a4366004612cc0565b6104cc565b6040516101789190612dac565b6101c96101c4366004612bc9565b610559565b005b6101de6101d93660046129ce565b61066a565b6040516101789190612dfd565b6101c96101f9366004612a1c565b61074d565b6101c961020c366004612adb565b610ae3565b6101c961021f3660046129ce565b610b14565b610189610232366004612cc0565b610cc0565b6101c9610245366004612cf2565b610e55565b6101c9610258366004612adb565b610fdb565b6101a961026b366004612cc0565b610ff6565b61028361027e3660046129ce565b61106d565b604051908152602001610178565b6101c96110f4565b6101a961112f565b61018961113e565b6101c96102b7366004612b92565b61114d565b6101c96102ca3660046129e9565b600e80546001600160a01b039384166001600160a01b03199182168117909255600f80549390941692811692909217909255600880549091169091179055565b6101c96103183660046129ce565b61115c565b61033061032b366004612cf2565b6111f3565b60405161017893929190612e54565b6101c961034d366004612b17565b6114e2565b6101c9610360366004612d15565b611514565b6101c96103733660046129ce565b61179f565b61038b610386366004612cf2565b611836565b604051610178959493929190612e8d565b6101896103aa366004612cc0565b611e8d565b61016c6103bd3660046129e9565b611f65565b6101c96103d03660046129ce565b611f93565b6101c96103e33660046129ce565b61202a565b60006001600160e01b031982166380ac58cd60e01b148061041957506001600160e01b03198216635b5e139f60e01b145b8061043457506301ffc9a760e01b6001600160e01b03198316145b92915050565b60606001805461044990613109565b80601f016020809104026020016040519081016040528092919081815260200182805461047590613109565b80156104c25780601f10610497576101008083540402835291602001916104c2565b820191906000526020600020905b8154815290600101906020018083116104a557829003601f168201915b5050505050905090565b60006104d7826120ca565b61053d5760405162461bcd60e51b815260206004820152602c60248201527f4552433732313a20617070726f76656420717565727920666f72206e6f6e657860448201526b34b9ba32b73a103a37b5b2b760a11b60648201526084015b60405180910390fd5b506000908152600560205260409020546001600160a01b031690565b600061056482610ff6565b9050806001600160a01b0316836001600160a01b031614156105d25760405162461bcd60e51b815260206004820152602160248201527f4552433732313a20617070726f76616c20746f2063757272656e74206f776e656044820152603960f91b6064820152608401610534565b336001600160a01b03821614806105ee57506105ee8133611f65565b61065b5760405162461bcd60e51b815260206004820152603860248201527f4552433732313a20617070726f76652063616c6c6572206973206e6f74206f776044820152771b995c881b9bdc88185c1c1c9bdd995908199bdc88185b1b60421b6064820152608401610534565b61066583836120e7565b505050565b60085460609033906001600160a01b031681148061069557506009546001600160a01b038281169116145b806106ad5750600b546001600160a01b038281169116145b806106c55750600a546001600160a01b038281169116145b6106e15760405162461bcd60e51b815260040161053490612fab565b6001600160a01b0383166000908152601160209081526040918290208054835181840281018401909452808452909183018282801561073f57602002820191906000526020600020905b81548152602001906001019080831161072b575b505050505091505b50919050565b60085433906001600160a01b031681148061077557506009546001600160a01b038281169116145b8061078d5750600b546001600160a01b038281169116145b806107a55750600a546001600160a01b038281169116145b6107c15760405162461bcd60e51b815260040161053490612fab565b60046107cb875190565b116108115760405162461bcd60e51b8152602060048201526016602482015275125b991a58d85c881b9bdb481b59591a58d85b595b9d60521b6044820152606401610534565b8451600d146108555760405162461bcd60e51b815260206004820152601060248201526f49554d2074652031332064696769747360801b6044820152606401610534565b6108a16040805160c0810190915280600081526020016000815260200160006001600160a01b0316815260200160006001600160a01b0316815260200160608152602001606081525090565b6108af600780546001019055565b60006108ba60075490565b60008352905061ffff8616158015906108d6575060008560ff16115b80156108e5575060008460ff16115b1561099d5773__$73785166eb94af412e1735ba7ee7be91af$__638c8d98a0878761091188600161308d565b6040516001600160e01b031960e086901b16815261ffff909316600484015260ff918216602484015216604482015260640160206040518083038186803b15801561095b57600080fd5b505af415801561096f573d6000803e3d6000fd5b505050506040513d601f19601f820116820180604052508101906109939190612cd9565b60208301526109a8565b637fffffff60208301525b6001600160a01b03808b16604080850191909152908a1660608401526080830189905260a0830188905260008281526010602052208251815484929190829060ff191660018360038111156109ff576109ff613199565b0217905550602082810151600183015560408301516002830180546001600160a01b039283166001600160a01b031991821617909155606085015160038501805491909316911617905560808301518051610a6092600485019201906128aa565b5060a08201518051610a7c9160058401916020909101906128aa565b50905050610a8e826040015182612155565b604091820180516001600160a01b039081166000908152601160208181528683205486845260128252878420559351909216815290825292832080546001810182559084529220909101555050505050505050565b610aed3382612275565b610b095760405162461bcd60e51b815260040161053490612fcd565b61066583838361233f565b60085433906001600160a01b0316811480610b3c57506009546001600160a01b038281169116145b80610b545750600b546001600160a01b038281169116145b80610b6c5750600a546001600160a01b038281169116145b610b885760405162461bcd60e51b815260040161053490612fab565b6001600160a01b038216600090815260116020908152604080832080548251818502810185019093528083529192909190830182828015610be857602002820191906000526020600020905b815481526020019060010190808311610bd4575b5050505050905060005b8151811015610cba57600260106000848481518110610c1357610c136131af565b60209081029190910181015182528101919091526040016000205460ff166003811115610c4257610c42613199565b1415610c8657610c8184600c60009054906101000a90046001600160a01b0316848481518110610c7457610c746131af565b6020026020010151610ae3565b610ca8565b610ca8828281518110610c9b57610c9b6131af565b60200260200101516124c9565b80610cb28161313e565b915050610bf2565b50505050565b60085460609033906001600160a01b0316811480610ceb57506009546001600160a01b038281169116145b80610d035750600b546001600160a01b038281169116145b80610d1b5750600a546001600160a01b038281169116145b610d375760405162461bcd60e51b815260040161053490612fab565b60008381526010602052604081205460ff166003811115610d5a57610d5a613199565b1415610d86576040518060400160405280600681526020016563726561646160d01b8152509150610747565b600160008481526010602052604090205460ff166003811115610dab57610dab613199565b1415610dd857604051806040016040528060078152602001661c195b99195b9d60ca1b8152509150610747565b600260008481526010602052604090205460ff166003811115610dfd57610dfd613199565b1415610e2c57604051806040016040528060098152602001687472616d697461646160b81b8152509150610747565b6040518060400160405280600981526020016872656275746a61646160b81b8152509150610747565b60085433906001600160a01b0316811480610e7d57506009546001600160a01b038281169116145b80610e955750600b546001600160a01b038281169116145b80610ead5750600a546001600160a01b038281169116145b610ec95760405162461bcd60e51b815260040161053490612fab565b816001600160a01b0316610edc84610ff6565b6001600160a01b031614610f025760405162461bcd60e51b815260040161053490612f4c565b60008381526010602052604081205460ff166003811115610f2557610f25613199565b14610f805760405162461bcd60e51b815260206004820152602560248201527f4e6f6d6573206c657320726563657074657320616d622065737461742022437260448201526432b0b2309160d91b6064820152608401610534565b6000838152601060209081526040808320805460ff1916600317905560128252808320546001600160a01b03861684526011909252909120805482908110610fca57610fca6131af565b600091825260208220015550505050565b610665838383604051806020016040528060008152506114e2565b6000818152600360205260408120546001600160a01b0316806104345760405162461bcd60e51b815260206004820152602960248201527f4552433732313a206f776e657220717565727920666f72206e6f6e657869737460448201526832b73a103a37b5b2b760b91b6064820152608401610534565b60006001600160a01b0382166110d85760405162461bcd60e51b815260206004820152602a60248201527f4552433732313a2062616c616e636520717565727920666f7220746865207a65604482015269726f206164647265737360b01b6064820152608401610534565b506001600160a01b031660009081526004602052604090205490565b336110fd61112f565b6001600160a01b0316146111235760405162461bcd60e51b815260040161053490612f76565b61112d6000612552565b565b6000546001600160a01b031690565b60606002805461044990613109565b6111583383836125a2565b5050565b60085433906001600160a01b031681148061118457506009546001600160a01b038281169116145b8061119c5750600b546001600160a01b038281169116145b806111b45750600a546001600160a01b038281169116145b6111d05760405162461bcd60e51b815260040161053490612fab565b50600a80546001600160a01b0319166001600160a01b0392909216919091179055565b6008546060908190819033906001600160a01b031681148061122257506009546001600160a01b038281169116145b8061123a5750600b546001600160a01b038281169116145b806112525750600a546001600160a01b038281169116145b61126e5760405162461bcd60e51b815260040161053490612fab565b846001600160a01b031661128187610ff6565b6001600160a01b0316146112a75760405162461bcd60e51b815260040161053490612f4c565b600086815260106020526040808220815160c081019092528054829060ff1660038111156112d7576112d7613199565b60038111156112e8576112e8613199565b81526001820154602082015260028201546001600160a01b039081166040830152600383015416606082015260048201805460809092019161132990613109565b80601f016020809104026020016040519081016040528092919081815260200182805461135590613109565b80156113a25780601f10611377576101008083540402835291602001916113a2565b820191906000526020600020905b81548152906001019060200180831161138557829003601f168201915b505050505081526020016005820180546113bb90613109565b80601f01602080910402602001604051908101604052809291908181526020018280546113e790613109565b80156114345780601f1061140957610100808354040283529160200191611434565b820191906000526020600020905b81548152906001019060200180831161141757829003601f168201915b505050919092525050600f5460608301516040516324ab39d160e11b81529394506001600160a01b039091169263495673a292506114759190600401612dac565b60006040518083038186803b15801561148d57600080fd5b505afa1580156114a1573d6000803e3d6000fd5b505050506040513d6000823e601f3d908101601f191682016040526114c99190810190612c4a565b81608001518260a0015194509450945050509250925092565b6114ec3383612275565b6115085760405162461bcd60e51b815260040161053490612fcd565b610cba8484848461266d565b60085433906001600160a01b031681148061153c57506009546001600160a01b038281169116145b806115545750600b546001600160a01b038281169116145b8061156c5750600a546001600160a01b038281169116145b6115885760405162461bcd60e51b815260040161053490612fab565b826001600160a01b031661159b85610ff6565b6001600160a01b0316146115c15760405162461bcd60e51b815260040161053490612f4c565b60008481526010602052604081205460ff1660038111156115e4576115e4613199565b1461163b5760405162461bcd60e51b815260206004820152602160248201527f4e6f6d657320726563657074657320616d6220657374617420224372656164616044820152601160f91b6064820152608401610534565b600e54604051637358610960e11b81526001600160a01b039091169063e6b0c2129061166b908590600401612dac565b60206040518083038186803b15801561168357600080fd5b505afa158015611697573d6000803e3d6000fd5b505050506040513d601f19601f820116820180604052508101906116bb9190612bf3565b6116f95760405162461bcd60e51b815260206004820152600f60248201526e4e6f6d6573206661726d616369657360881b6044820152606401610534565b611704838386610ae3565b6000848152601060209081526040808320805460ff1916600117905560128252808320546001600160a01b0387168452601190925290912080548290811061174e5761174e6131af565b600091825260208083209091018290556001600160a01b0390941681526011808552604080832080548985526012885291842082905591865260018101825590825293902090920193909355505050565b60085433906001600160a01b03168114806117c757506009546001600160a01b038281169116145b806117df5750600b546001600160a01b038281169116145b806117f75750600a546001600160a01b038281169116145b6118135760405162461bcd60e51b815260040161053490612fab565b50600980546001600160a01b0319166001600160a01b0392909216919091179055565b600854606090819081908190819033906001600160a01b031681148061186957506009546001600160a01b038281169116145b806118815750600b546001600160a01b038281169116145b806118995750600a546001600160a01b038281169116145b6118b55760405162461bcd60e51b815260040161053490612fab565b866001600160a01b03166118c889610ff6565b6001600160a01b03161461190f5760405162461bcd60e51b815260206004820152600e60248201526d4e6f2070726f706965746172696160901b6044820152606401610534565b600160008981526010602052604090205460ff16600381111561193457611934613199565b1461198c5760405162461bcd60e51b815260206004820152602260248201527f4e6f6d657320726563657074657320616d62206573746174202250656e64656e6044820152613a1160f11b6064820152608401610534565b600088815260106020526040808220815160c081019092528054829060ff1660038111156119bc576119bc613199565b60038111156119cd576119cd613199565b81526001820154602082015260028201546001600160a01b0390811660408301526003830154166060820152600482018054608090920191611a0e90613109565b80601f0160208091040260200160405190810160405280929190818152602001828054611a3a90613109565b8015611a875780601f10611a5c57610100808354040283529160200191611a87565b820191906000526020600020905b815481529060010190602001808311611a6a57829003601f168201915b50505050508152602001600582018054611aa090613109565b80601f0160208091040260200160405190810160405280929190818152602001828054611acc90613109565b8015611b195780601f10611aee57610100808354040283529160200191611b19565b820191906000526020600020905b815481529060010190602001808311611afc57829003601f168201915b5050509190925250505060008a815260106020526040902060010154909150421015611ce3576000898152601060209081526040808320805460ff191660021790556012825280832054848201516001600160a01b031684526011909252909120805482908110611b8c57611b8c6131af565b6000918252602082200155600e54604080840151905163670ff71360e01b81526001600160a01b039092169163670ff71391611bca91600401612dac565b60006040518083038186803b158015611be257600080fd5b505afa158015611bf6573d6000803e3d6000fd5b505050506040513d6000823e601f3d908101601f19168201604052611c1e9190810190612c4a565b600f5460608401516040516324ab39d160e11b81526001600160a01b039092169163495673a291611c5191600401612dac565b60006040518083038186803b158015611c6957600080fd5b505afa158015611c7d573d6000803e3d6000fd5b505050506040513d6000823e601f3d908101601f19168201604052611ca59190810190612c4a565b83608001518460a001516040518060400160405280600681526020016556616c69646160d01b81525093929190975097509750975097505050611e82565b6000898152601060209081526040808320805460ff191660031790556012825280832054848201516001600160a01b031684526011909252909120805482908110611d3057611d306131af565b6000918252602082200155600e54604080840151905163670ff71360e01b81526001600160a01b039092169163670ff71391611d6e91600401612dac565b60006040518083038186803b158015611d8657600080fd5b505afa158015611d9a573d6000803e3d6000fd5b505050506040513d6000823e601f3d908101601f19168201604052611dc29190810190612c4a565b600f5460608401516040516324ab39d160e11b81526001600160a01b039092169163495673a291611df591600401612dac565b60006040518083038186803b158015611e0d57600080fd5b505afa158015611e21573d6000803e3d6000fd5b505050506040513d6000823e601f3d908101601f19168201604052611e499190810190612c4a565b608084015160a090940151604080518082019091526008815267436164756361646160c01b60208201529a509198509650919450909250505b509295509295909350565b6060611e98826120ca565b611efc5760405162461bcd60e51b815260206004820152602f60248201527f4552433732314d657461646174613a2055524920717565727920666f72206e6f60448201526e3732bc34b9ba32b73a103a37b5b2b760891b6064820152608401610534565b6000611f1360408051602081019091526000815290565b90506000815111611f335760405180602001604052806000815250611f5e565b80611f3d846126a0565b604051602001611f4e929190612d7d565b6040516020818303038152906040525b9392505050565b6001600160a01b03918216600090815260066020908152604080832093909416825291909152205460ff1690565b60085433906001600160a01b0316811480611fbb57506009546001600160a01b038281169116145b80611fd35750600b546001600160a01b038281169116145b80611feb5750600a546001600160a01b038281169116145b6120075760405162461bcd60e51b815260040161053490612fab565b50600b80546001600160a01b0319166001600160a01b0392909216919091179055565b3361203361112f565b6001600160a01b0316146120595760405162461bcd60e51b815260040161053490612f76565b6001600160a01b0381166120be5760405162461bcd60e51b815260206004820152602660248201527f4f776e61626c653a206e6577206f776e657220697320746865207a65726f206160448201526564647265737360d01b6064820152608401610534565b6120c781612552565b50565b6000908152600360205260409020546001600160a01b0316151590565b600081815260056020526040902080546001600160a01b0319166001600160a01b038416908117909155819061211c82610ff6565b6001600160a01b03167f8c5be1e5ebec7d5bd14f71427d1e84f3dd0314c0f7b2291e5b200ac8c7c3b92560405160405180910390a45050565b6001600160a01b0382166121ab5760405162461bcd60e51b815260206004820181905260248201527f4552433732313a206d696e7420746f20746865207a65726f20616464726573736044820152606401610534565b6121b4816120ca565b156122005760405162461bcd60e51b815260206004820152601c60248201527b115490cdcc8c4e881d1bdad95b88185b1c9958591e481b5a5b9d195960221b6044820152606401610534565b6001600160a01b0382166000908152600460205260408120805460019290612229908490613075565b909155505060008181526003602052604080822080546001600160a01b0319166001600160a01b0386169081179091559051839290600080516020613200833981519152908290a45050565b6000612280826120ca565b6122e15760405162461bcd60e51b815260206004820152602c60248201527f4552433732313a206f70657261746f7220717565727920666f72206e6f6e657860448201526b34b9ba32b73a103a37b5b2b760a11b6064820152608401610534565b60006122ec83610ff6565b9050806001600160a01b0316846001600160a01b0316148061231357506123138185611f65565b806123375750836001600160a01b031661232c846104cc565b6001600160a01b0316145b949350505050565b826001600160a01b031661235282610ff6565b6001600160a01b0316146123b65760405162461bcd60e51b815260206004820152602560248201527f4552433732313a207472616e736665722066726f6d20696e636f72726563742060448201526437bbb732b960d91b6064820152608401610534565b6001600160a01b0382166124185760405162461bcd60e51b8152602060048201526024808201527f4552433732313a207472616e7366657220746f20746865207a65726f206164646044820152637265737360e01b6064820152608401610534565b6124236000826120e7565b6001600160a01b038316600090815260046020526040812080546001929061244c9084906130c6565b90915550506001600160a01b038216600090815260046020526040812080546001929061247a908490613075565b909155505060008181526003602052604080822080546001600160a01b0319166001600160a01b03868116918217909255915184939187169160008051602061320083398151915291a4505050565b60006124d482610ff6565b90506124e16000836120e7565b6001600160a01b038116600090815260046020526040812080546001929061250a9084906130c6565b909155505060008281526003602052604080822080546001600160a01b0319169055518391906001600160a01b03841690600080516020613200833981519152908390a45050565b600080546001600160a01b038381166001600160a01b0319831681178455604051919092169283917f8be0079c531659141344cd1fd0a4f28419497f9722a3daafe3b4186f6b6457e09190a35050565b816001600160a01b0316836001600160a01b031614156126005760405162461bcd60e51b815260206004820152601960248201527822a9219b99189d1030b8383937bb32903a379031b0b63632b960391b6044820152606401610534565b6001600160a01b03838116600081815260066020908152604080832094871680845294825291829020805460ff191686151590811790915591519182527f17307eab39ab6107e8899845ad3d59bd9653f200f220920489ca2b5937696c31910160405180910390a3505050565b61267884848461233f565b6126848484848461279d565b610cba5760405162461bcd60e51b815260040161053490612efa565b6060816126c45750506040805180820190915260018152600360fc1b602082015290565b8160005b81156126ee57806126d88161313e565b91506126e79050600a836130b2565b91506126c8565b6000816001600160401b03811115612708576127086131c5565b6040519080825280601f01601f191660200182016040528015612732576020820181803683370190505b5090505b8415612337576127476001836130c6565b9150612754600a86613159565b61275f906030613075565b60f81b818381518110612774576127746131af565b60200101906001600160f81b031916908160001a905350612796600a866130b2565b9450612736565b60006001600160a01b0384163b1561289f57604051630a85bd0160e11b81526001600160a01b0385169063150b7a02906127e1903390899088908890600401612dc0565b602060405180830381600087803b1580156127fb57600080fd5b505af192505050801561282b575060408051601f3d908101601f1916820190925261282891810190612c2d565b60015b612885573d808015612859576040519150601f19603f3d011682016040523d82523d6000602084013e61285e565b606091505b50805161287d5760405162461bcd60e51b815260040161053490612efa565b805181602001fd5b6001600160e01b031916630a85bd0160e11b149050612337565b506001949350505050565b8280546128b690613109565b90600052602060002090601f0160209004810192826128d8576000855561291e565b82601f106128f157805160ff191683800117855561291e565b8280016001018555821561291e579182015b8281111561291e578251825591602001919060010190612903565b5061292a92915061292e565b5090565b5b8082111561292a576000815560010161292f565b60006129566129518461304e565b61301e565b905082815283838301111561296a57600080fd5b828260208301376000602084830101529392505050565b80356001600160a01b038116811461299857600080fd5b919050565b600082601f8301126129ae57600080fd5b611f5e83833560208501612943565b803560ff8116811461299857600080fd5b6000602082840312156129e057600080fd5b611f5e82612981565b600080604083850312156129fc57600080fd5b612a0583612981565b9150612a1360208401612981565b90509250929050565b600080600080600080600060e0888a031215612a3757600080fd5b612a4088612981565b9650612a4e60208901612981565b955060408801356001600160401b0380821115612a6a57600080fd5b612a768b838c0161299d565b965060608a0135915080821115612a8c57600080fd5b50612a998a828b0161299d565b945050608088013561ffff81168114612ab157600080fd5b9250612abf60a089016129bd565b9150612acd60c089016129bd565b905092959891949750929550565b600080600060608486031215612af057600080fd5b612af984612981565b9250612b0760208501612981565b9150604084013590509250925092565b60008060008060808587031215612b2d57600080fd5b612b3685612981565b9350612b4460208601612981565b92506040850135915060608501356001600160401b03811115612b6657600080fd5b8501601f81018713612b7757600080fd5b612b8687823560208401612943565b91505092959194509250565b60008060408385031215612ba557600080fd5b612bae83612981565b91506020830135612bbe816131db565b809150509250929050565b60008060408385031215612bdc57600080fd5b612be583612981565b946020939093013593505050565b600060208284031215612c0557600080fd5b8151611f5e816131db565b600060208284031215612c2257600080fd5b8135611f5e816131e9565b600060208284031215612c3f57600080fd5b8151611f5e816131e9565b600060208284031215612c5c57600080fd5b81516001600160401b03811115612c7257600080fd5b8201601f81018413612c8357600080fd5b8051612c916129518261304e565b818152856020838501011115612ca657600080fd5b612cb78260208301602086016130dd565b95945050505050565b600060208284031215612cd257600080fd5b5035919050565b600060208284031215612ceb57600080fd5b5051919050565b60008060408385031215612d0557600080fd5b82359150612a1360208401612981565b600080600060608486031215612d2a57600080fd5b83359250612d3a60208501612981565b9150612d4860408501612981565b90509250925092565b60008151808452612d698160208601602086016130dd565b601f01601f19169290920160200192915050565b60008351612d8f8184602088016130dd565b835190830190612da38183602088016130dd565b01949350505050565b6001600160a01b0391909116815260200190565b6001600160a01b0385811682528416602082015260408101839052608060608201819052600090612df390830184612d51565b9695505050505050565b6020808252825182820181905260009190848201906040850190845b81811015612e3557835183529284019291840191600101612e19565b50909695505050505050565b602081526000611f5e6020830184612d51565b606081526000612e676060830186612d51565b8281036020840152612e798186612d51565b90508281036040840152612df38185612d51565b60a081526000612ea060a0830188612d51565b8281036020840152612eb28188612d51565b90508281036040840152612ec68187612d51565b90508281036060840152612eda8186612d51565b90508281036080840152612eee8185612d51565b98975050505050505050565b60208082526032908201527f4552433732313a207472616e7366657220746f206e6f6e20455243373231526560408201527131b2b4bb32b91034b6b83632b6b2b73a32b960711b606082015260800190565b60208082526010908201526f4e6f6d65732070726f7069657461726960801b604082015260600190565b6020808252818101527f4f776e61626c653a2063616c6c6572206973206e6f7420746865206f776e6572604082015260600190565b6020808252600890820152674e6f6d657320534360c01b604082015260600190565b60208082526031908201527f4552433732313a207472616e736665722063616c6c6572206973206e6f74206f6040820152701ddb995c881b9bdc88185c1c1c9bdd9959607a1b606082015260800190565b604051601f8201601f191681016001600160401b0381118282101715613046576130466131c5565b604052919050565b60006001600160401b03821115613067576130676131c5565b50601f01601f191660200190565b600082198211156130885761308861316d565b500190565b600060ff821660ff84168060ff038211156130aa576130aa61316d565b019392505050565b6000826130c1576130c1613183565b500490565b6000828210156130d8576130d861316d565b500390565b60005b838110156130f85781810151838201526020016130e0565b83811115610cba5750506000910152565b600181811c9082168061311d57607f821691505b6020821081141561074757634e487b7160e01b600052602260045260246000fd5b60006000198214156131525761315261316d565b5060010190565b60008261316857613168613183565b500690565b634e487b7160e01b600052601160045260246000fd5b634e487b7160e01b600052601260045260246000fd5b634e487b7160e01b600052602160045260246000fd5b634e487b7160e01b600052603260045260246000fd5b634e487b7160e01b600052604160045260246000fd5b80151581146120c757600080fd5b6001600160e01b0319811681146120c757600080fdfeddf252ad1be2c89b69c2b068fc378daa952ba7f163c4a11628f55a4df523b3efa2646970667358221220cd16d07d3c48adbbba61939d51341f519e22393c2bbd121dd3ccae47da5a3c8664736f6c63430008070033",
  "linkReferences": {
    "contracts/DateTime.sol": {
      "DateTime": [
        {
          "length": 20,
          "start": 2840
        }
      ]
    }
  },
  "deployedLinkReferences": {
    "contracts/DateTime.sol": {
      "DateTime": [
        {
          "length": 20,
          "start": 2284
        }
      ]
    }
  }
}