{
  "_format": "hh-sol-artifact-1",
  "contractName": "Recepta",
  "sourceName": "contracts/TokenRecepta.sol",
  "abi": [
    {
      "inputs": [
        {
          "internalType": "address",
          "name": "_addressMinisteri",
          "type": "address"
        },
        {
          "internalType": "address",
          "name": "_contracteMinisteri",
          "type": "address"
        },
        {
          "internalType": "address",
          "name": "_aHospitals",
          "type": "address"
        }
      ],
      "stateMutability": "nonpayable",
      "type": "constructor"
    },
    {
      "anonymous": false,
      "inputs": [
        {
          "indexed": true,
          "internalType": "address",
          "name": "owner",
          "type": "address"
        },
        {
          "indexed": true,
          "internalType": "address",
          "name": "approved",
          "type": "address"
        },
        {
          "indexed": true,
          "internalType": "uint256",
          "name": "tokenId",
          "type": "uint256"
        }
      ],
      "name": "Approval",
      "type": "event"
    },
    {
      "anonymous": false,
      "inputs": [
        {
          "indexed": true,
          "internalType": "address",
          "name": "owner",
          "type": "address"
        },
        {
          "indexed": true,
          "internalType": "address",
          "name": "operator",
          "type": "address"
        },
        {
          "indexed": false,
          "internalType": "bool",
          "name": "approved",
          "type": "bool"
        }
      ],
      "name": "ApprovalForAll",
      "type": "event"
    },
    {
      "anonymous": false,
      "inputs": [
        {
          "indexed": true,
          "internalType": "address",
          "name": "previousOwner",
          "type": "address"
        },
        {
          "indexed": true,
          "internalType": "address",
          "name": "newOwner",
          "type": "address"
        }
      ],
      "name": "OwnershipTransferred",
      "type": "event"
    },
    {
      "anonymous": false,
      "inputs": [
        {
          "indexed": true,
          "internalType": "address",
          "name": "from",
          "type": "address"
        },
        {
          "indexed": true,
          "internalType": "address",
          "name": "to",
          "type": "address"
        },
        {
          "indexed": true,
          "internalType": "uint256",
          "name": "tokenId",
          "type": "uint256"
        }
      ],
      "name": "Transfer",
      "type": "event"
    },
    {
      "anonymous": false,
      "inputs": [
        {
          "indexed": false,
          "internalType": "address",
          "name": "idUsuari",
          "type": "address"
        },
        {
          "indexed": false,
          "internalType": "address",
          "name": "idMetge",
          "type": "address"
        },
        {
          "indexed": false,
          "internalType": "uint256",
          "name": "idRecepta",
          "type": "uint256"
        },
        {
          "indexed": false,
          "internalType": "string",
          "name": "nomMedicament",
          "type": "string"
        }
      ],
      "name": "eventReceptaCreada",
      "type": "event"
    },
    {
      "anonymous": false,
      "inputs": [
        {
          "indexed": false,
          "internalType": "address",
          "name": "idUsuari",
          "type": "address"
        },
        {
          "indexed": false,
          "internalType": "address",
          "name": "idFarmacia",
          "type": "address"
        },
        {
          "indexed": false,
          "internalType": "uint256",
          "name": "idRecepta",
          "type": "uint256"
        }
      ],
      "name": "eventReceptaEnviada",
      "type": "event"
    },
    {
      "anonymous": false,
      "inputs": [
        {
          "indexed": false,
          "internalType": "address",
          "name": "idUsuari",
          "type": "address"
        },
        {
          "indexed": false,
          "internalType": "uint256",
          "name": "idRecepta",
          "type": "uint256"
        }
      ],
      "name": "eventReceptaRebutjada",
      "type": "event"
    },
    {
      "anonymous": false,
      "inputs": [
        {
          "indexed": false,
          "internalType": "address",
          "name": "idFarmacia",
          "type": "address"
        },
        {
          "indexed": false,
          "internalType": "uint256",
          "name": "idRecepta",
          "type": "uint256"
        }
      ],
      "name": "eventReceptaVisualitzada",
      "type": "event"
    },
    {
      "anonymous": false,
      "inputs": [
        {
          "indexed": false,
          "internalType": "address",
          "name": "idFarmacia",
          "type": "address"
        },
        {
          "indexed": false,
          "internalType": "uint256",
          "name": "idRecepta",
          "type": "uint256"
        }
      ],
      "name": "eventReceptaVisualitzadaIRebutjada",
      "type": "event"
    },
    {
      "inputs": [
        {
          "internalType": "address",
          "name": "to",
          "type": "address"
        },
        {
          "internalType": "uint256",
          "name": "tokenId",
          "type": "uint256"
        }
      ],
      "name": "approve",
      "outputs": [],
      "stateMutability": "nonpayable",
      "type": "function"
    },
    {
      "inputs": [
        {
          "internalType": "address",
          "name": "owner",
          "type": "address"
        }
      ],
      "name": "balanceOf",
      "outputs": [
        {
          "internalType": "uint256",
          "name": "",
          "type": "uint256"
        }
      ],
      "stateMutability": "view",
      "type": "function"
    },
    {
      "inputs": [
        {
          "internalType": "address",
          "name": "_addressUsuari",
          "type": "address"
        },
        {
          "internalType": "address",
          "name": "_addressMetge",
          "type": "address"
        },
        {
          "internalType": "string",
          "name": "_nomMedicament",
          "type": "string"
        },
        {
          "internalType": "string",
          "name": "_ium",
          "type": "string"
        },
        {
          "internalType": "uint16",
          "name": "_anyCaducitat",
          "type": "uint16"
        },
        {
          "internalType": "uint8",
          "name": "_mesCaducitat",
          "type": "uint8"
        },
        {
          "internalType": "uint8",
          "name": "_diaCaducitat",
          "type": "uint8"
        }
      ],
      "name": "crearRecepta",
      "outputs": [],
      "stateMutability": "nonpayable",
      "type": "function"
    },
    {
      "inputs": [
        {
          "internalType": "uint256",
          "name": "_idRecepta",
          "type": "uint256"
        },
        {
          "internalType": "address",
          "name": "_adUsuari",
          "type": "address"
        },
        {
          "internalType": "address",
          "name": "_adFarmacia",
          "type": "address"
        }
      ],
      "name": "enviaRecepta",
      "outputs": [],
      "stateMutability": "nonpayable",
      "type": "function"
    },
    {
      "inputs": [
        {
          "internalType": "address",
          "name": "_adFarmacia",
          "type": "address"
        }
      ],
      "name": "enviaReceptesMinisteri",
      "outputs": [],
      "stateMutability": "nonpayable",
      "type": "function"
    },
    {
      "inputs": [
        {
          "internalType": "uint256",
          "name": "tokenId",
          "type": "uint256"
        }
      ],
      "name": "getApproved",
      "outputs": [
        {
          "internalType": "address",
          "name": "",
          "type": "address"
        }
      ],
      "stateMutability": "view",
      "type": "function"
    },
    {
      "inputs": [
        {
          "internalType": "address",
          "name": "owner",
          "type": "address"
        },
        {
          "internalType": "address",
          "name": "operator",
          "type": "address"
        }
      ],
      "name": "isApprovedForAll",
      "outputs": [
        {
          "internalType": "bool",
          "name": "",
          "type": "bool"
        }
      ],
      "stateMutability": "view",
      "type": "function"
    },
    {
      "inputs": [],
      "name": "name",
      "outputs": [
        {
          "internalType": "string",
          "name": "",
          "type": "string"
        }
      ],
      "stateMutability": "view",
      "type": "function"
    },
    {
      "inputs": [],
      "name": "owner",
      "outputs": [
        {
          "internalType": "address",
          "name": "",
          "type": "address"
        }
      ],
      "stateMutability": "view",
      "type": "function"
    },
    {
      "inputs": [
        {
          "internalType": "uint256",
          "name": "tokenId",
          "type": "uint256"
        }
      ],
      "name": "ownerOf",
      "outputs": [
        {
          "internalType": "address",
          "name": "",
          "type": "address"
        }
      ],
      "stateMutability": "view",
      "type": "function"
    },
    {
      "inputs": [
        {
          "internalType": "address",
          "name": "_aFarmacies",
          "type": "address"
        }
      ],
      "name": "rebAddressContracteFarmacies",
      "outputs": [],
      "stateMutability": "nonpayable",
      "type": "function"
    },
    {
      "inputs": [
        {
          "internalType": "address",
          "name": "_aMetges",
          "type": "address"
        }
      ],
      "name": "rebAddressContracteMetges",
      "outputs": [],
      "stateMutability": "nonpayable",
      "type": "function"
    },
    {
      "inputs": [
        {
          "internalType": "address",
          "name": "_aUsuaris",
          "type": "address"
        }
      ],
      "name": "rebAddressContracteUsuaris",
      "outputs": [],
      "stateMutability": "nonpayable",
      "type": "function"
    },
    {
      "inputs": [
        {
          "internalType": "uint256",
          "name": "_idRecepta",
          "type": "uint256"
        },
        {
          "internalType": "address",
          "name": "_adUsuari",
          "type": "address"
        }
      ],
      "name": "rebutjaRecepta",
      "outputs": [],
      "stateMutability": "nonpayable",
      "type": "function"
    },
    {
      "inputs": [],
      "name": "renounceOwnership",
      "outputs": [],
      "stateMutability": "nonpayable",
      "type": "function"
    },
    {
      "inputs": [
        {
          "internalType": "uint256",
          "name": "_idRecepta",
          "type": "uint256"
        },
        {
          "internalType": "address",
          "name": "_adUsuari",
          "type": "address"
        }
      ],
      "name": "retornaDadesRecepta",
      "outputs": [
        {
          "internalType": "string",
          "name": "nomMetge",
          "type": "string"
        },
        {
          "internalType": "string",
          "name": "medicament",
          "type": "string"
        },
        {
          "internalType": "string",
          "name": "ium",
          "type": "string"
        }
      ],
      "stateMutability": "view",
      "type": "function"
    },
    {
      "inputs": [
        {
          "internalType": "uint256",
          "name": "_idRecepta",
          "type": "uint256"
        }
      ],
      "name": "retornaEstatRecepta",
      "outputs": [
        {
          "internalType": "string",
          "name": "",
          "type": "string"
        }
      ],
      "stateMutability": "view",
      "type": "function"
    },
    {
      "inputs": [
        {
          "internalType": "address",
          "name": "_adUsuari",
          "type": "address"
        }
      ],
      "name": "retornaIDsReceptes",
      "outputs": [
        {
          "internalType": "uint256[]",
          "name": "",
          "type": "uint256[]"
        }
      ],
      "stateMutability": "view",
      "type": "function"
    },
    {
      "inputs": [
        {
          "internalType": "address",
          "name": "from",
          "type": "address"
        },
        {
          "internalType": "address",
          "name": "to",
          "type": "address"
        },
        {
          "internalType": "uint256",
          "name": "tokenId",
          "type": "uint256"
        }
      ],
      "name": "safeTransferFrom",
      "outputs": [],
      "stateMutability": "nonpayable",
      "type": "function"
    },
    {
      "inputs": [
        {
          "internalType": "address",
          "name": "from",
          "type": "address"
        },
        {
          "internalType": "address",
          "name": "to",
          "type": "address"
        },
        {
          "internalType": "uint256",
          "name": "tokenId",
          "type": "uint256"
        },
        {
          "internalType": "bytes",
          "name": "_data",
          "type": "bytes"
        }
      ],
      "name": "safeTransferFrom",
      "outputs": [],
      "stateMutability": "nonpayable",
      "type": "function"
    },
    {
      "inputs": [
        {
          "internalType": "address",
          "name": "operator",
          "type": "address"
        },
        {
          "internalType": "bool",
          "name": "approved",
          "type": "bool"
        }
      ],
      "name": "setApprovalForAll",
      "outputs": [],
      "stateMutability": "nonpayable",
      "type": "function"
    },
    {
      "inputs": [
        {
          "internalType": "bytes4",
          "name": "interfaceId",
          "type": "bytes4"
        }
      ],
      "name": "supportsInterface",
      "outputs": [
        {
          "internalType": "bool",
          "name": "",
          "type": "bool"
        }
      ],
      "stateMutability": "view",
      "type": "function"
    },
    {
      "inputs": [],
      "name": "symbol",
      "outputs": [
        {
          "internalType": "string",
          "name": "",
          "type": "string"
        }
      ],
      "stateMutability": "view",
      "type": "function"
    },
    {
      "inputs": [
        {
          "internalType": "uint256",
          "name": "tokenId",
          "type": "uint256"
        }
      ],
      "name": "tokenURI",
      "outputs": [
        {
          "internalType": "string",
          "name": "",
          "type": "string"
        }
      ],
      "stateMutability": "view",
      "type": "function"
    },
    {
      "inputs": [
        {
          "internalType": "address",
          "name": "from",
          "type": "address"
        },
        {
          "internalType": "address",
          "name": "to",
          "type": "address"
        },
        {
          "internalType": "uint256",
          "name": "tokenId",
          "type": "uint256"
        }
      ],
      "name": "transferFrom",
      "outputs": [],
      "stateMutability": "nonpayable",
      "type": "function"
    },
    {
      "inputs": [
        {
          "internalType": "address",
          "name": "newOwner",
          "type": "address"
        }
      ],
      "name": "transferOwnership",
      "outputs": [],
      "stateMutability": "nonpayable",
      "type": "function"
    },
    {
      "inputs": [
        {
          "internalType": "uint256",
          "name": "_idRecepta",
          "type": "uint256"
        },
        {
          "internalType": "address",
          "name": "_adFarmacia",
          "type": "address"
        }
      ],
      "name": "visualitzaRecepta",
      "outputs": [
        {
          "internalType": "string",
          "name": "valida",
          "type": "string"
        },
        {
          "internalType": "string",
          "name": "nomUsuari",
          "type": "string"
        },
        {
          "internalType": "string",
          "name": "nomMetge",
          "type": "string"
        },
        {
          "internalType": "string",
          "name": "medicament",
          "type": "string"
        },
        {
          "internalType": "string",
          "name": "ium",
          "type": "string"
        }
      ],
      "stateMutability": "nonpayable",
      "type": "function"
    }
  ],
  "bytecode": "0x60806040523480156200001157600080fd5b506040516200354d3803806200354d833981016040819052620000349162000222565b604051806040016040528060078152602001665265636570746160c81b815250604051806040016040528060048152602001631490d41560e21b8152506200008b620000856200010b60201b60201c565b6200010f565b8151620000a09060019060208501906200015f565b508051620000b69060029060208401906200015f565b5050600d80546001600160a01b039485166001600160a01b03199182168117909255600e805494861694821694909417909355600880548416909117905550600c8054939092169216919091179055620002a9565b3390565b600080546001600160a01b038381166001600160a01b0319831681178455604051919092169283917f8be0079c531659141344cd1fd0a4f28419497f9722a3daafe3b4186f6b6457e09190a35050565b8280546200016d906200026c565b90600052602060002090601f016020900481019282620001915760008555620001dc565b82601f10620001ac57805160ff1916838001178555620001dc565b82800160010185558215620001dc579182015b82811115620001dc578251825591602001919060010190620001bf565b50620001ea929150620001ee565b5090565b5b80821115620001ea5760008155600101620001ef565b80516001600160a01b03811681146200021d57600080fd5b919050565b6000806000606084860312156200023857600080fd5b620002438462000205565b9250620002536020850162000205565b9150620002636040850162000205565b90509250925092565b600181811c908216806200028157607f821691505b60208210811415620002a357634e487b7160e01b600052602260045260246000fd5b50919050565b61329480620002b96000396000f3fe608060405234801561001057600080fd5b50600436106101a95760003560e01c8063715018a6116100f9578063bb139ade11610097578063c87b56dd11610071578063c87b56dd146103b7578063e985e9c5146103ca578063f04f334e14610406578063f2fde38b1461041957600080fd5b8063bb139ade1461036d578063be73c00414610380578063c7514f7d1461039357600080fd5b8063a22cb465116100d3578063a22cb46514610312578063a88eda7614610325578063b86991dc14610338578063b88d4fde1461035a57600080fd5b8063715018a6146102f15780638da5cb5b146102f957806395d89b411461030a57600080fd5b806323b872dd11610166578063411e162711610140578063411e16271461029757806342842e0e146102aa5780636352211e146102bd57806370a08231146102d057600080fd5b806323b872dd1461025e5780632ed22fd1146102715780633a05493e1461028457600080fd5b806301ffc9a7146101ae57806306fdde03146101d6578063081812fc146101eb578063095ea7b3146102165780631a210afe1461022b57806322fde8171461024b575b600080fd5b6101c16101bc366004612c27565b61042c565b60405190151581526020015b60405180910390f35b6101de61047e565b6040516101cd9190612e45565b6101fe6101f9366004612cd8565b610510565b6040516001600160a01b0390911681526020016101cd565b610229610224366004612be0565b6105aa565b005b61023e6102393660046129e3565b6106c0565b6040516101cd9190612e01565b610229610259366004612a31565b61075b565b61022961026c366004612af1565b610b42565b61022961027f3660046129e3565b610b73565b6101de610292366004612cd8565b610d2d565b6102296102a5366004612d0a565b610e7a565b6102296102b8366004612af1565b61100e565b6101fe6102cb366004612cd8565b611029565b6102e36102de3660046129e3565b6110a0565b6040519081526020016101cd565b610229611127565b6000546001600160a01b03166101fe565b6101de61118d565b610229610320366004612ba9565b61119c565b6102296103333660046129e3565b6111ab565b61034b610346366004612d0a565b6111fa565b6040516101cd93929190612e58565b610229610368366004612b2d565b6114eb565b61022961037b366004612d2d565b61151d565b61022961038e3660046129e3565b6117e6565b6103a66103a1366004612d0a565b611835565b6040516101cd959493929190612e91565b6101de6103c5366004612cd8565b611e82565b6101c16103d83660046129fe565b6001600160a01b03918216600090815260066020908152604080832093909416825291909152205460ff1690565b6102296104143660046129e3565b611f6a565b6102296104273660046129e3565b611fb9565b60006001600160e01b031982166380ac58cd60e01b148061045d57506001600160e01b03198216635b5e139f60e01b145b8061047857506301ffc9a760e01b6001600160e01b03198316145b92915050565b60606001805461048d90613168565b80601f01602080910402602001604051908101604052809291908181526020018280546104b990613168565b80156105065780601f106104db57610100808354040283529160200191610506565b820191906000526020600020905b8154815290600101906020018083116104e957829003601f168201915b5050505050905090565b6000818152600360205260408120546001600160a01b031661058e5760405162461bcd60e51b815260206004820152602c60248201527f4552433732313a20617070726f76656420717565727920666f72206e6f6e657860448201526b34b9ba32b73a103a37b5b2b760a11b60648201526084015b60405180910390fd5b506000908152600560205260409020546001600160a01b031690565b60006105b582611029565b9050806001600160a01b0316836001600160a01b031614156106235760405162461bcd60e51b815260206004820152602160248201527f4552433732313a20617070726f76616c20746f2063757272656e74206f776e656044820152603960f91b6064820152608401610585565b336001600160a01b038216148061063f575061063f81336103d8565b6106b15760405162461bcd60e51b815260206004820152603860248201527f4552433732313a20617070726f76652063616c6c6572206973206e6f74206f7760448201527f6e6572206e6f7220617070726f76656420666f7220616c6c00000000000000006064820152608401610585565b6106bb8383612084565b505050565b600b5460609033906001600160a01b031681146106ef5760405162461bcd60e51b815260040161058590613032565b6001600160a01b0383166000908152601060209081526040918290208054835181840281018401909452808452909183018282801561074d57602002820191906000526020600020905b815481526020019060010190808311610739575b505050505091505b50919050565b60095433906001600160a01b031681146107875760405162461bcd60e51b815260040161058590613032565b6004610791875190565b116108125760405162461bcd60e51b815260206004820152604560248201527f53276861206427696e646963617220756e206e6f6d206465206d65646963616d60448201527f656e74202864697374616e636961206d696e696d612064652035206361726163606482015264746572732960d81b608482015260a401610585565b8451600d146108725760405162461bcd60e51b815260206004820152602660248201527f456c20636f646920756e69632049554d2068612064652074656e69722031332060448201526564696769747360d01b6064820152608401610585565b6108be6040805160c0810190915280600081526020016000815260200160006001600160a01b0316815260200160006001600160a01b0316815260200160608152602001606081525090565b6108cc600780546001019055565b60006108d760075490565b60008352905061ffff8616158015906108f3575060008560ff16115b8015610902575060008460ff16115b156109ba5773__$73785166eb94af412e1735ba7ee7be91af$__638c8d98a0878761092e8860016130ec565b6040516001600160e01b031960e086901b16815261ffff909316600484015260ff918216602484015216604482015260640160206040518083038186803b15801561097857600080fd5b505af415801561098c573d6000803e3d6000fd5b505050506040513d601f19601f820116820180604052508101906109b09190612cf1565b60208301526109c5565b637fffffff60208301525b6001600160a01b03808b16604080850191909152908a1660608401526080830189905260a083018890526000828152600f602052208251815484929190829060ff19166001836003811115610a1c57610a1c6131f8565b0217905550602082810151600183015560408301516002830180546001600160a01b039283166001600160a01b031991821617909155606085015160038501805491909316911617905560808301518051610a7d92600485019201906128bf565b5060a08201518051610a999160058401916020909101906128bf565b50905050610aab8260400151826120f2565b604080830180516001600160a01b0390811660009081526010602081815285832054878452601182528684205584519093168252825283812080546001810182559082529190200183905551606084015191517ffca24d952cfca0b05b2f6468d1ac6dc9f680d1fa92a15d82e8273c21d56a12c292610b2e929185908d90612dc4565b60405180910390a150505050505050505050565b610b4c3382612234565b610b685760405162461bcd60e51b815260040161058590612fe1565b6106bb83838361232b565b600a5433906001600160a01b03168114610bf55760405162461bcd60e51b815260206004820152603e60248201527f4e6f6d657320656c20636f6e747261637465206465206c6573206661726d616360448201527f69657320706f742063726964617220617175657374612066756e63696f2e00006064820152608401610585565b6001600160a01b038216600090815260106020908152604080832080548251818502810185019093528083529192909190830182828015610c5557602002820191906000526020600020905b815481526020019060010190808311610c41575b5050505050905060005b8151811015610d27576002600f6000848481518110610c8057610c8061320e565b60209081029190910181015182528101919091526040016000205460ff166003811115610caf57610caf6131f8565b1415610cf357610cee84600c60009054906101000a90046001600160a01b0316848481518110610ce157610ce161320e565b6020026020010151610b42565b610d15565b610d15828281518110610d0857610d0861320e565b60200260200101516124c7565b80610d1f8161319d565b915050610c5f565b50505050565b600b5460609033906001600160a01b03168114610d5c5760405162461bcd60e51b815260040161058590613032565b6000838152600f602052604081205460ff166003811115610d7f57610d7f6131f8565b1415610dab576040518060400160405280600681526020016563726561646160d01b8152509150610755565b60016000848152600f602052604090205460ff166003811115610dd057610dd06131f8565b1415610dfd57604051806040016040528060078152602001661c195b99195b9d60ca1b8152509150610755565b60026000848152600f602052604090205460ff166003811115610e2257610e226131f8565b1415610e5157604051806040016040528060098152602001687472616d697461646160b81b8152509150610755565b6040518060400160405280600981526020016872656275746a61646160b81b8152509150610755565b818133816001600160a01b0316610e9084611029565b6001600160a01b031614610eb65760405162461bcd60e51b815260040161058590612f50565b600b546001600160a01b03828116911614610ee35760405162461bcd60e51b815260040161058590612f99565b6000858152600f602052604081205460ff166003811115610f0657610f066131f8565b14610f615760405162461bcd60e51b815260206004820152602560248201527f4e6f6d6573206c657320726563657074657320616d622065737461742022437260448201526432b0b2309160d91b6064820152608401610585565b6000858152600f60209081526040808320805460ff1916600317905560118252808320546001600160a01b03881684526010909252909120805482908110610fab57610fab61320e565b90600052602060002001600090557f095b52377ad9e2908b2c5c20d65e52fd55d9d43a6ab83b33c212824d44c390568587604051610ffe9291906001600160a01b03929092168252602082015260400190565b60405180910390a1505050505050565b6106bb838383604051806020016040528060008152506114eb565b6000818152600360205260408120546001600160a01b0316806104785760405162461bcd60e51b815260206004820152602960248201527f4552433732313a206f776e657220717565727920666f72206e6f6e657869737460448201526832b73a103a37b5b2b760b91b6064820152608401610585565b60006001600160a01b03821661110b5760405162461bcd60e51b815260206004820152602a60248201527f4552433732313a2062616c616e636520717565727920666f7220746865207a65604482015269726f206164647265737360b01b6064820152608401610585565b506001600160a01b031660009081526004602052604090205490565b6000546001600160a01b031633146111815760405162461bcd60e51b815260206004820181905260248201527f4f776e61626c653a2063616c6c6572206973206e6f7420746865206f776e65726044820152606401610585565b61118b6000612562565b565b60606002805461048d90613168565b6111a73383836125b2565b5050565b60085433906001600160a01b031681146111d75760405162461bcd60e51b815260040161058590613032565b50600a80546001600160a01b0319166001600160a01b0392909216919091179055565b600b546060908190819033906001600160a01b0316811461122d5760405162461bcd60e51b815260040161058590613032565b846001600160a01b031661124087611029565b6001600160a01b0316146112b45760405162461bcd60e51b815260206004820152603560248201527f4e6f6d657320656c2070726f7069657461726920706f74207665757265206c6560448201527473206461646573206465206c61207265636570746160581b6064820152608401610585565b6000868152600f6020526040808220815160c081019092528054829060ff1660038111156112e4576112e46131f8565b60038111156112f5576112f56131f8565b81526001820154602082015260028201546001600160a01b039081166040830152600383015416606082015260048201805460809092019161133690613168565b80601f016020809104026020016040519081016040528092919081815260200182805461136290613168565b80156113af5780601f10611384576101008083540402835291602001916113af565b820191906000526020600020905b81548152906001019060200180831161139257829003601f168201915b505050505081526020016005820180546113c890613168565b80601f01602080910402602001604051908101604052809291908181526020018280546113f490613168565b80156114415780601f1061141657610100808354040283529160200191611441565b820191906000526020600020905b81548152906001019060200180831161142457829003601f168201915b505050919092525050600e5460608301516040516324ab39d160e11b81526001600160a01b039182166004820152939450169163495673a2915060240160006040518083038186803b15801561149657600080fd5b505afa1580156114aa573d6000803e3d6000fd5b505050506040513d6000823e601f3d908101601f191682016040526114d29190810190612c61565b81608001518260a0015194509450945050509250925092565b6114f53383612234565b6115115760405162461bcd60e51b815260040161058590612fe1565b610d2784848484612681565b828233816001600160a01b031661153384611029565b6001600160a01b0316146115595760405162461bcd60e51b815260040161058590612f50565b600b546001600160a01b038281169116146115865760405162461bcd60e51b815260040161058590612f99565b6000868152600f602052604081205460ff1660038111156115a9576115a96131f8565b146116145760405162461bcd60e51b815260206004820152603560248201527f4e6f6d657320657320706f64656e20656e76696172206c65732072656365707460448201527432b99030b6b11032b9ba30ba101121b932b0b2309160591b6064820152608401610585565b600d54604051637358610960e11b81526001600160a01b0386811660048301529091169063e6b0c2129060240160206040518083038186803b15801561165957600080fd5b505afa15801561166d573d6000803e3d6000fd5b505050506040513d601f19601f820116820180604052508101906116919190612c0a565b6116fc5760405162461bcd60e51b815260206004820152603660248201527f4e6f6d657320657320706f64656e20656e7669617220656c7320746f6b656e736044820152752061206661726d61636965732076616c69646164657360501b6064820152608401610585565b611707858588610b42565b6000868152600f60209081526040808320805460ff1916600117905560118252808320546001600160a01b038916845260109092529091208054829081106117515761175161320e565b60009182526020808320919091018290556001600160a01b038781168084526010808452604080862080548e885260118752828820819055928652600183018155865294849020018b90558351918a168252918101919091529081018890527feb0bacd58049a440cc15c1dc8bea43072220b4e2b5d1e3febca8c15bb9d9dc369060600160405180910390a150505050505050565b60085433906001600160a01b031681146118125760405162461bcd60e51b815260040161058590613032565b50600980546001600160a01b0319166001600160a01b0392909216919091179055565b600a5460609081908190819081903390889088906001600160a01b031683146118b65760405162461bcd60e51b815260206004820152602d60248201527f4e6f6d6573206c6573206661726d616369657320706f64656e2065786563757460448201526c30b910363090333ab731b4b79760991b6064820152608401610585565b806001600160a01b03166118c983611029565b6001600160a01b0316146118ef5760405162461bcd60e51b815260040161058590612f50565b600160008b8152600f602052604090205460ff166003811115611914576119146131f8565b146119875760405162461bcd60e51b815260206004820152603b60248201527f4e6f6d6573206c657320726563657074657320616d622065737461742022506560448201527f6e64656e742220657320706f64656e2076697375616c69747a617200000000006064820152608401610585565b60008a8152600f6020526040808220815160c081019092528054829060ff1660038111156119b7576119b76131f8565b60038111156119c8576119c86131f8565b81526001820154602082015260028201546001600160a01b0390811660408301526003830154166060820152600482018054608090920191611a0990613168565b80601f0160208091040260200160405190810160405280929190818152602001828054611a3590613168565b8015611a825780601f10611a5757610100808354040283529160200191611a82565b820191906000526020600020905b815481529060010190602001808311611a6557829003601f168201915b50505050508152602001600582018054611a9b90613168565b80601f0160208091040260200160405190810160405280929190818152602001828054611ac790613168565b8015611b145780601f10611ae957610100808354040283529160200191611b14565b820191906000526020600020905b815481529060010190602001808311611af757829003601f168201915b5050509190925250505060008c8152600f6020526040902060010154909150421015611cda5760008b8152600f60209081526040808320805460ff191660021790556011825280832054848201516001600160a01b031684526010909252909120805482908110611b8757611b8761320e565b6000918252602082200155600d54604083810151905163670ff71360e01b81526001600160a01b03918216600482015291169063670ff7139060240160006040518083038186803b158015611bdb57600080fd5b505afa158015611bef573d6000803e3d6000fd5b505050506040513d6000823e601f3d908101601f19168201604052611c179190810190612c61565b600e5460608401516040516324ab39d160e11b81526001600160a01b03918216600482015291169063495673a29060240160006040518083038186803b158015611c6057600080fd5b505afa158015611c74573d6000803e3d6000fd5b505050506040513d6000823e601f3d908101601f19168201604052611c9c9190810190612c61565b83608001518460a001516040518060400160405280600681526020016556616c69646160d01b81525093929190995099509950995099505050611e75565b60008b8152600f60209081526040808320805460ff191660031790556011825280832054848201516001600160a01b031684526010909252909120805482908110611d2757611d2761320e565b6000918252602082200155600d54604083810151905163670ff71360e01b81526001600160a01b03918216600482015291169063670ff7139060240160006040518083038186803b158015611d7b57600080fd5b505afa158015611d8f573d6000803e3d6000fd5b505050506040513d6000823e601f3d908101601f19168201604052611db79190810190612c61565b600e5460608401516040516324ab39d160e11b81526001600160a01b03918216600482015291169063495673a29060240160006040518083038186803b158015611e0057600080fd5b505afa158015611e14573d6000803e3d6000fd5b505050506040513d6000823e601f3d908101601f19168201604052611e3c9190810190612c61565b608084015160a090940151604080518082019091526008815267436164756361646160c01b60208201529c50919a509850919650909450505b5050509295509295909350565b6000818152600360205260409020546060906001600160a01b0316611f015760405162461bcd60e51b815260206004820152602f60248201527f4552433732314d657461646174613a2055524920717565727920666f72206e6f60448201526e3732bc34b9ba32b73a103a37b5b2b760891b6064820152608401610585565b6000611f1860408051602081019091526000815290565b90506000815111611f385760405180602001604052806000815250611f63565b80611f42846126b4565b604051602001611f53929190612d95565b6040516020818303038152906040525b9392505050565b60085433906001600160a01b03168114611f965760405162461bcd60e51b815260040161058590613032565b50600b80546001600160a01b0319166001600160a01b0392909216919091179055565b6000546001600160a01b031633146120135760405162461bcd60e51b815260206004820181905260248201527f4f776e61626c653a2063616c6c6572206973206e6f7420746865206f776e65726044820152606401610585565b6001600160a01b0381166120785760405162461bcd60e51b815260206004820152602660248201527f4f776e61626c653a206e6577206f776e657220697320746865207a65726f206160448201526564647265737360d01b6064820152608401610585565b61208181612562565b50565b600081815260056020526040902080546001600160a01b0319166001600160a01b03841690811790915581906120b982611029565b6001600160a01b03167f8c5be1e5ebec7d5bd14f71427d1e84f3dd0314c0f7b2291e5b200ac8c7c3b92560405160405180910390a45050565b6001600160a01b0382166121485760405162461bcd60e51b815260206004820181905260248201527f4552433732313a206d696e7420746f20746865207a65726f20616464726573736044820152606401610585565b6000818152600360205260409020546001600160a01b0316156121ad5760405162461bcd60e51b815260206004820152601c60248201527f4552433732313a20746f6b656e20616c7265616479206d696e746564000000006044820152606401610585565b6001600160a01b03821660009081526004602052604081208054600192906121d69084906130d4565b909155505060008181526003602052604080822080546001600160a01b0319166001600160a01b03861690811790915590518392907fddf252ad1be2c89b69c2b068fc378daa952ba7f163c4a11628f55a4df523b3ef908290a45050565b6000818152600360205260408120546001600160a01b03166122ad5760405162461bcd60e51b815260206004820152602c60248201527f4552433732313a206f70657261746f7220717565727920666f72206e6f6e657860448201526b34b9ba32b73a103a37b5b2b760a11b6064820152608401610585565b60006122b883611029565b9050806001600160a01b0316846001600160a01b031614806122ff57506001600160a01b0380821660009081526006602090815260408083209388168352929052205460ff165b806123235750836001600160a01b031661231884610510565b6001600160a01b0316145b949350505050565b826001600160a01b031661233e82611029565b6001600160a01b0316146123a25760405162461bcd60e51b815260206004820152602560248201527f4552433732313a207472616e736665722066726f6d20696e636f72726563742060448201526437bbb732b960d91b6064820152608401610585565b6001600160a01b0382166124045760405162461bcd60e51b8152602060048201526024808201527f4552433732313a207472616e7366657220746f20746865207a65726f206164646044820152637265737360e01b6064820152608401610585565b61240f600082612084565b6001600160a01b0383166000908152600460205260408120805460019290612438908490613125565b90915550506001600160a01b03821660009081526004602052604081208054600192906124669084906130d4565b909155505060008181526003602052604080822080546001600160a01b0319166001600160a01b0386811691821790925591518493918716917fddf252ad1be2c89b69c2b068fc378daa952ba7f163c4a11628f55a4df523b3ef91a4505050565b60006124d282611029565b90506124df600083612084565b6001600160a01b0381166000908152600460205260408120805460019290612508908490613125565b909155505060008281526003602052604080822080546001600160a01b0319169055518391906001600160a01b038416907fddf252ad1be2c89b69c2b068fc378daa952ba7f163c4a11628f55a4df523b3ef908390a45050565b600080546001600160a01b038381166001600160a01b0319831681178455604051919092169283917f8be0079c531659141344cd1fd0a4f28419497f9722a3daafe3b4186f6b6457e09190a35050565b816001600160a01b0316836001600160a01b031614156126145760405162461bcd60e51b815260206004820152601960248201527f4552433732313a20617070726f766520746f2063616c6c6572000000000000006044820152606401610585565b6001600160a01b03838116600081815260066020908152604080832094871680845294825291829020805460ff191686151590811790915591519182527f17307eab39ab6107e8899845ad3d59bd9653f200f220920489ca2b5937696c31910160405180910390a3505050565b61268c84848461232b565b612698848484846127b2565b610d275760405162461bcd60e51b815260040161058590612efe565b6060816126d85750506040805180820190915260018152600360fc1b602082015290565b8160005b811561270257806126ec8161319d565b91506126fb9050600a83613111565b91506126dc565b60008167ffffffffffffffff81111561271d5761271d613224565b6040519080825280601f01601f191660200182016040528015612747576020820181803683370190505b5090505b84156123235761275c600183613125565b9150612769600a866131b8565b6127749060306130d4565b60f81b8183815181106127895761278961320e565b60200101906001600160f81b031916908160001a9053506127ab600a86613111565b945061274b565b60006001600160a01b0384163b156128b457604051630a85bd0160e11b81526001600160a01b0385169063150b7a02906127f6903390899088908890600401612dc4565b602060405180830381600087803b15801561281057600080fd5b505af1925050508015612840575060408051601f3d908101601f1916820190925261283d91810190612c44565b60015b61289a573d80801561286e576040519150601f19603f3d011682016040523d82523d6000602084013e612873565b606091505b5080516128925760405162461bcd60e51b815260040161058590612efe565b805181602001fd5b6001600160e01b031916630a85bd0160e11b149050612323565b506001949350505050565b8280546128cb90613168565b90600052602060002090601f0160209004810192826128ed5760008555612933565b82601f1061290657805160ff1916838001178555612933565b82800160010185558215612933579182015b82811115612933578251825591602001919060010190612918565b5061293f929150612943565b5090565b5b8082111561293f5760008155600101612944565b600061296b612966846130ac565b61307b565b905082815283838301111561297f57600080fd5b828260208301376000602084830101529392505050565b80356001600160a01b03811681146129ad57600080fd5b919050565b600082601f8301126129c357600080fd5b611f6383833560208501612958565b803560ff811681146129ad57600080fd5b6000602082840312156129f557600080fd5b611f6382612996565b60008060408385031215612a1157600080fd5b612a1a83612996565b9150612a2860208401612996565b90509250929050565b600080600080600080600060e0888a031215612a4c57600080fd5b612a5588612996565b9650612a6360208901612996565b9550604088013567ffffffffffffffff80821115612a8057600080fd5b612a8c8b838c016129b2565b965060608a0135915080821115612aa257600080fd5b50612aaf8a828b016129b2565b945050608088013561ffff81168114612ac757600080fd5b9250612ad560a089016129d2565b9150612ae360c089016129d2565b905092959891949750929550565b600080600060608486031215612b0657600080fd5b612b0f84612996565b9250612b1d60208501612996565b9150604084013590509250925092565b60008060008060808587031215612b4357600080fd5b612b4c85612996565b9350612b5a60208601612996565b925060408501359150606085013567ffffffffffffffff811115612b7d57600080fd5b8501601f81018713612b8e57600080fd5b612b9d87823560208401612958565b91505092959194509250565b60008060408385031215612bbc57600080fd5b612bc583612996565b91506020830135612bd58161323a565b809150509250929050565b60008060408385031215612bf357600080fd5b612bfc83612996565b946020939093013593505050565b600060208284031215612c1c57600080fd5b8151611f638161323a565b600060208284031215612c3957600080fd5b8135611f6381613248565b600060208284031215612c5657600080fd5b8151611f6381613248565b600060208284031215612c7357600080fd5b815167ffffffffffffffff811115612c8a57600080fd5b8201601f81018413612c9b57600080fd5b8051612ca9612966826130ac565b818152856020838501011115612cbe57600080fd5b612ccf82602083016020860161313c565b95945050505050565b600060208284031215612cea57600080fd5b5035919050565b600060208284031215612d0357600080fd5b5051919050565b60008060408385031215612d1d57600080fd5b82359150612a2860208401612996565b600080600060608486031215612d4257600080fd5b83359250612d5260208501612996565b9150612d6060408501612996565b90509250925092565b60008151808452612d8181602086016020860161313c565b601f01601f19169290920160200192915050565b60008351612da781846020880161313c565b835190830190612dbb81836020880161313c565b01949350505050565b6001600160a01b0385811682528416602082015260408101839052608060608201819052600090612df790830184612d69565b9695505050505050565b6020808252825182820181905260009190848201906040850190845b81811015612e3957835183529284019291840191600101612e1d565b50909695505050505050565b602081526000611f636020830184612d69565b606081526000612e6b6060830186612d69565b8281036020840152612e7d8186612d69565b90508281036040840152612df78185612d69565b60a081526000612ea460a0830188612d69565b8281036020840152612eb68188612d69565b90508281036040840152612eca8187612d69565b90508281036060840152612ede8186612d69565b90508281036080840152612ef28185612d69565b98975050505050505050565b60208082526032908201527f4552433732313a207472616e7366657220746f206e6f6e20455243373231526560408201527131b2b4bb32b91034b6b83632b6b2b73a32b960711b606082015260800190565b60208082526029908201527f4e6f6d657320656c2070726f706965746172692074652061636365732061206c6040820152683090333ab731b4b79760b91b606082015260800190565b60208082526028908201527f4e6f6d6573206c27534320557375617269732074652061636365732061206c6160408201526710333ab731b4b79760c11b606082015260800190565b60208082526031908201527f4552433732313a207472616e736665722063616c6c6572206973206e6f74206f6040820152701ddb995c881b9bdc88185c1c1c9bdd9959607a1b606082015260800190565b60208082526029908201527f4e6f2074656e6975207065726d69736f7320706572206578656375746172206c6040820152683090333ab731b4b79760b91b606082015260800190565b604051601f8201601f1916810167ffffffffffffffff811182821017156130a4576130a4613224565b604052919050565b600067ffffffffffffffff8211156130c6576130c6613224565b50601f01601f191660200190565b600082198211156130e7576130e76131cc565b500190565b600060ff821660ff84168060ff03821115613109576131096131cc565b019392505050565b600082613120576131206131e2565b500490565b600082821015613137576131376131cc565b500390565b60005b8381101561315757818101518382015260200161313f565b83811115610d275750506000910152565b600181811c9082168061317c57607f821691505b6020821081141561075557634e487b7160e01b600052602260045260246000fd5b60006000198214156131b1576131b16131cc565b5060010190565b6000826131c7576131c76131e2565b500690565b634e487b7160e01b600052601160045260246000fd5b634e487b7160e01b600052601260045260246000fd5b634e487b7160e01b600052602160045260246000fd5b634e487b7160e01b600052603260045260246000fd5b634e487b7160e01b600052604160045260246000fd5b801515811461208157600080fd5b6001600160e01b03198116811461208157600080fdfea2646970667358221220db2c340d338ec2752c6abf6d93ad4544176c628996908541aca3bc961c10d79564736f6c63430008070033",
  "linkReferences": {
    "contracts/DateTime.sol": {
      "DateTime": [
        {
          "length": 20,
          "start": 3010
        }
      ]
    }
  },
  "deployedLinkReferences": {
    "contracts/DateTime.sol": {
      "DateTime": [
        {
          "length": 20,
          "start": 2313
        }
      ]
    }
  }
}