{
  "_format": "hh-sol-artifact-1",
  "contractName": "Recepta",
  "sourceName": "contracts/TokenRecepta.sol",
  "abi": [
    {
      "inputs": [],
      "stateMutability": "nonpayable",
      "type": "constructor"
    },
    {
      "anonymous": false,
      "inputs": [
        {
          "indexed": true,
          "internalType": "address",
          "name": "owner",
          "type": "address"
        },
        {
          "indexed": true,
          "internalType": "address",
          "name": "approved",
          "type": "address"
        },
        {
          "indexed": true,
          "internalType": "uint256",
          "name": "tokenId",
          "type": "uint256"
        }
      ],
      "name": "Approval",
      "type": "event"
    },
    {
      "anonymous": false,
      "inputs": [
        {
          "indexed": true,
          "internalType": "address",
          "name": "owner",
          "type": "address"
        },
        {
          "indexed": true,
          "internalType": "address",
          "name": "operator",
          "type": "address"
        },
        {
          "indexed": false,
          "internalType": "bool",
          "name": "approved",
          "type": "bool"
        }
      ],
      "name": "ApprovalForAll",
      "type": "event"
    },
    {
      "anonymous": false,
      "inputs": [
        {
          "indexed": true,
          "internalType": "address",
          "name": "previousOwner",
          "type": "address"
        },
        {
          "indexed": true,
          "internalType": "address",
          "name": "newOwner",
          "type": "address"
        }
      ],
      "name": "OwnershipTransferred",
      "type": "event"
    },
    {
      "anonymous": false,
      "inputs": [
        {
          "indexed": true,
          "internalType": "address",
          "name": "from",
          "type": "address"
        },
        {
          "indexed": true,
          "internalType": "address",
          "name": "to",
          "type": "address"
        },
        {
          "indexed": true,
          "internalType": "uint256",
          "name": "tokenId",
          "type": "uint256"
        }
      ],
      "name": "Transfer",
      "type": "event"
    },
    {
      "inputs": [
        {
          "internalType": "address",
          "name": "to",
          "type": "address"
        },
        {
          "internalType": "uint256",
          "name": "tokenId",
          "type": "uint256"
        }
      ],
      "name": "approve",
      "outputs": [],
      "stateMutability": "nonpayable",
      "type": "function"
    },
    {
      "inputs": [
        {
          "internalType": "address",
          "name": "owner",
          "type": "address"
        }
      ],
      "name": "balanceOf",
      "outputs": [
        {
          "internalType": "uint256",
          "name": "",
          "type": "uint256"
        }
      ],
      "stateMutability": "view",
      "type": "function"
    },
    {
      "inputs": [
        {
          "internalType": "uint256",
          "name": "_idRecepta",
          "type": "uint256"
        },
        {
          "internalType": "address",
          "name": "_adFarmacia",
          "type": "address"
        }
      ],
      "name": "canviaEstatRecepta",
      "outputs": [],
      "stateMutability": "nonpayable",
      "type": "function"
    },
    {
      "inputs": [
        {
          "internalType": "address",
          "name": "_addressUsuari",
          "type": "address"
        },
        {
          "internalType": "address",
          "name": "_addressMetge",
          "type": "address"
        },
        {
          "internalType": "string",
          "name": "_nomMedicament",
          "type": "string"
        },
        {
          "internalType": "string",
          "name": "_ium",
          "type": "string"
        },
        {
          "internalType": "uint16",
          "name": "_anyCaducitat",
          "type": "uint16"
        },
        {
          "internalType": "uint8",
          "name": "_mesCaducitat",
          "type": "uint8"
        },
        {
          "internalType": "uint8",
          "name": "_diaCaducitat",
          "type": "uint8"
        }
      ],
      "name": "crearRecepta",
      "outputs": [],
      "stateMutability": "nonpayable",
      "type": "function"
    },
    {
      "inputs": [
        {
          "internalType": "uint256",
          "name": "_idRecepta",
          "type": "uint256"
        },
        {
          "internalType": "address",
          "name": "_adUsuari",
          "type": "address"
        },
        {
          "internalType": "address",
          "name": "_adFarmacia",
          "type": "address"
        }
      ],
      "name": "enviaRecepta",
      "outputs": [],
      "stateMutability": "nonpayable",
      "type": "function"
    },
    {
      "inputs": [
        {
          "internalType": "address",
          "name": "_adFarmacia",
          "type": "address"
        }
      ],
      "name": "enviaReceptesMinisteri",
      "outputs": [],
      "stateMutability": "nonpayable",
      "type": "function"
    },
    {
      "inputs": [
        {
          "internalType": "uint256",
          "name": "tokenId",
          "type": "uint256"
        }
      ],
      "name": "getApproved",
      "outputs": [
        {
          "internalType": "address",
          "name": "",
          "type": "address"
        }
      ],
      "stateMutability": "view",
      "type": "function"
    },
    {
      "inputs": [
        {
          "internalType": "address",
          "name": "owner",
          "type": "address"
        },
        {
          "internalType": "address",
          "name": "operator",
          "type": "address"
        }
      ],
      "name": "isApprovedForAll",
      "outputs": [
        {
          "internalType": "bool",
          "name": "",
          "type": "bool"
        }
      ],
      "stateMutability": "view",
      "type": "function"
    },
    {
      "inputs": [],
      "name": "name",
      "outputs": [
        {
          "internalType": "string",
          "name": "",
          "type": "string"
        }
      ],
      "stateMutability": "view",
      "type": "function"
    },
    {
      "inputs": [],
      "name": "owner",
      "outputs": [
        {
          "internalType": "address",
          "name": "",
          "type": "address"
        }
      ],
      "stateMutability": "view",
      "type": "function"
    },
    {
      "inputs": [
        {
          "internalType": "uint256",
          "name": "tokenId",
          "type": "uint256"
        }
      ],
      "name": "ownerOf",
      "outputs": [
        {
          "internalType": "address",
          "name": "",
          "type": "address"
        }
      ],
      "stateMutability": "view",
      "type": "function"
    },
    {
      "inputs": [
        {
          "internalType": "address",
          "name": "_aFarmacies",
          "type": "address"
        }
      ],
      "name": "rebAddressContracteFarmacies",
      "outputs": [],
      "stateMutability": "nonpayable",
      "type": "function"
    },
    {
      "inputs": [
        {
          "internalType": "address",
          "name": "_aMetges",
          "type": "address"
        }
      ],
      "name": "rebAddressContracteMetges",
      "outputs": [],
      "stateMutability": "nonpayable",
      "type": "function"
    },
    {
      "inputs": [
        {
          "internalType": "address",
          "name": "_aUsuaris",
          "type": "address"
        }
      ],
      "name": "rebAddressContracteUsuaris",
      "outputs": [],
      "stateMutability": "nonpayable",
      "type": "function"
    },
    {
      "inputs": [
        {
          "internalType": "address",
          "name": "_contracteMinisteri",
          "type": "address"
        },
        {
          "internalType": "address",
          "name": "_aHospitals",
          "type": "address"
        }
      ],
      "name": "rebAddressContractesMinisteriHospital",
      "outputs": [],
      "stateMutability": "nonpayable",
      "type": "function"
    },
    {
      "inputs": [
        {
          "internalType": "uint256",
          "name": "_idRecepta",
          "type": "uint256"
        },
        {
          "internalType": "address",
          "name": "_adUsuari",
          "type": "address"
        }
      ],
      "name": "rebutjaRecepta",
      "outputs": [],
      "stateMutability": "nonpayable",
      "type": "function"
    },
    {
      "inputs": [],
      "name": "renounceOwnership",
      "outputs": [],
      "stateMutability": "nonpayable",
      "type": "function"
    },
    {
      "inputs": [
        {
          "internalType": "uint256",
          "name": "_idRecepta",
          "type": "uint256"
        },
        {
          "internalType": "address",
          "name": "_adUsuari",
          "type": "address"
        }
      ],
      "name": "retornaDadesRecepta",
      "outputs": [
        {
          "internalType": "string",
          "name": "nomMetge",
          "type": "string"
        },
        {
          "internalType": "string",
          "name": "medicament",
          "type": "string"
        },
        {
          "internalType": "string",
          "name": "ium",
          "type": "string"
        }
      ],
      "stateMutability": "view",
      "type": "function"
    },
    {
      "inputs": [
        {
          "internalType": "uint256",
          "name": "_idRecepta",
          "type": "uint256"
        }
      ],
      "name": "retornaEstatRecepta",
      "outputs": [
        {
          "internalType": "string",
          "name": "",
          "type": "string"
        }
      ],
      "stateMutability": "view",
      "type": "function"
    },
    {
      "inputs": [
        {
          "internalType": "address",
          "name": "_adUsuari",
          "type": "address"
        }
      ],
      "name": "retornaIDsReceptes",
      "outputs": [
        {
          "internalType": "uint256[]",
          "name": "",
          "type": "uint256[]"
        }
      ],
      "stateMutability": "view",
      "type": "function"
    },
    {
      "inputs": [
        {
          "internalType": "address",
          "name": "from",
          "type": "address"
        },
        {
          "internalType": "address",
          "name": "to",
          "type": "address"
        },
        {
          "internalType": "uint256",
          "name": "tokenId",
          "type": "uint256"
        }
      ],
      "name": "safeTransferFrom",
      "outputs": [],
      "stateMutability": "nonpayable",
      "type": "function"
    },
    {
      "inputs": [
        {
          "internalType": "address",
          "name": "from",
          "type": "address"
        },
        {
          "internalType": "address",
          "name": "to",
          "type": "address"
        },
        {
          "internalType": "uint256",
          "name": "tokenId",
          "type": "uint256"
        },
        {
          "internalType": "bytes",
          "name": "_data",
          "type": "bytes"
        }
      ],
      "name": "safeTransferFrom",
      "outputs": [],
      "stateMutability": "nonpayable",
      "type": "function"
    },
    {
      "inputs": [
        {
          "internalType": "address",
          "name": "operator",
          "type": "address"
        },
        {
          "internalType": "bool",
          "name": "approved",
          "type": "bool"
        }
      ],
      "name": "setApprovalForAll",
      "outputs": [],
      "stateMutability": "nonpayable",
      "type": "function"
    },
    {
      "inputs": [
        {
          "internalType": "bytes4",
          "name": "interfaceId",
          "type": "bytes4"
        }
      ],
      "name": "supportsInterface",
      "outputs": [
        {
          "internalType": "bool",
          "name": "",
          "type": "bool"
        }
      ],
      "stateMutability": "view",
      "type": "function"
    },
    {
      "inputs": [],
      "name": "symbol",
      "outputs": [
        {
          "internalType": "string",
          "name": "",
          "type": "string"
        }
      ],
      "stateMutability": "view",
      "type": "function"
    },
    {
      "inputs": [
        {
          "internalType": "uint256",
          "name": "tokenId",
          "type": "uint256"
        }
      ],
      "name": "tokenURI",
      "outputs": [
        {
          "internalType": "string",
          "name": "",
          "type": "string"
        }
      ],
      "stateMutability": "view",
      "type": "function"
    },
    {
      "inputs": [
        {
          "internalType": "address",
          "name": "from",
          "type": "address"
        },
        {
          "internalType": "address",
          "name": "to",
          "type": "address"
        },
        {
          "internalType": "uint256",
          "name": "tokenId",
          "type": "uint256"
        }
      ],
      "name": "transferFrom",
      "outputs": [],
      "stateMutability": "nonpayable",
      "type": "function"
    },
    {
      "inputs": [
        {
          "internalType": "address",
          "name": "newOwner",
          "type": "address"
        }
      ],
      "name": "transferOwnership",
      "outputs": [],
      "stateMutability": "nonpayable",
      "type": "function"
    },
    {
      "inputs": [
        {
          "internalType": "uint256",
          "name": "_idRecepta",
          "type": "uint256"
        },
        {
          "internalType": "address",
          "name": "_adFarmacia",
          "type": "address"
        }
      ],
      "name": "visualitzaRecepta",
      "outputs": [
        {
          "internalType": "string",
          "name": "valida",
          "type": "string"
        },
        {
          "internalType": "string",
          "name": "nomUsuari",
          "type": "string"
        },
        {
          "internalType": "string",
          "name": "nomMetge",
          "type": "string"
        },
        {
          "internalType": "string",
          "name": "medicament",
          "type": "string"
        },
        {
          "internalType": "string",
          "name": "ium",
          "type": "string"
        }
      ],
      "stateMutability": "view",
      "type": "function"
    }
  ],
  "bytecode": "0x6080604052600c80546001600160a01b0319908116735735cff62509a9bab97df7c4c51d49556417063917909155600d80549091167392482ba45a4d2186dafb486b322c6d0b88410fe71790553480156200005957600080fd5b50604051806040016040528060078152602001665265636570746160c81b815250604051806040016040528060048152602001631490d41560e21b815250620000b1620000ab620000e560201b60201c565b620000e9565b8151620000c690600190602085019062000139565b508051620000dc90600290602084019062000139565b5050506200021c565b3390565b600080546001600160a01b038381166001600160a01b0319831681178455604051919092169283917f8be0079c531659141344cd1fd0a4f28419497f9722a3daafe3b4186f6b6457e09190a35050565b8280546200014790620001df565b90600052602060002090601f0160209004810192826200016b5760008555620001b6565b82601f106200018657805160ff1916838001178555620001b6565b82800160010185558215620001b6579182015b82811115620001b657825182559160200191906001019062000199565b50620001c4929150620001c8565b5090565b5b80821115620001c45760008155600101620001c9565b600181811c90821680620001f457607f821691505b602082108114156200021657634e487b7160e01b600052602260045260246000fd5b50919050565b61354c806200022c6000396000f3fe608060405234801561001057600080fd5b506004361061015f5760003560e01c806301ffc9a71461016457806306fdde031461018c578063081812fc146101a1578063095ea7b3146101c15780631a210afe146101d657806322fde817146101f657806323b872dd146102095780632ed22fd11461021c5780633a05493e1461022f578063411e16271461024257806342842e0e146102555780636352211e1461026857806370a082311461027b578063715018a61461029c5780638da5cb5b146102a457806395d89b41146102ac578063a22cb465146102b4578063a2fc059b146102c7578063a88eda7614610315578063b86991dc14610328578063b88d4fde1461034a578063bb139ade1461035d578063be73c00414610370578063c7514f7d14610383578063c87b56dd146103a7578063cdec5d40146103ba578063e985e9c5146103cd578063f04f334e146103e0578063f2fde38b146103f3575b600080fd5b610177610172366004612edf565b610406565b60405190151581526020015b60405180910390f35b610194610458565b6040516101839190613110565b6101b46101af366004612f8f565b6104ea565b604051610183919061307b565b6101d46101cf366004612e98565b610577565b005b6101e96101e4366004612c9d565b610688565b60405161018391906130cc565b6101d4610204366004612ceb565b61076b565b6101d4610217366004612daa565b610b01565b6101d461022a366004612c9d565b610b32565b61019461023d366004612f8f565b610da1565b6101d4610250366004612fc1565b610f36565b6101d4610263366004612daa565b6110bc565b6101b4610276366004612f8f565b6110d7565b61028e610289366004612c9d565b61114e565b604051908152602001610183565b6101d46111d5565b6101b4611210565b61019461121f565b6101d46102c2366004612e61565b61122e565b6101d46102d5366004612cb8565b600e80546001600160a01b039384166001600160a01b03199182168117909255600f80549390941692811692909217909255600880549091169091179055565b6101d4610323366004612c9d565b61123d565b61033b610336366004612fc1565b6112d4565b60405161018393929190613123565b6101d4610358366004612de6565b6115c3565b6101d461036b366004612fe4565b6115f5565b6101d461037e366004612c9d565b611880565b610396610391366004612fc1565b611917565b60405161018395949392919061315c565b6101946103b5366004612f8f565b611fdf565b6101d46103c8366004612fc1565b6120b7565b6101776103db366004612cb8565b612234565b6101d46103ee366004612c9d565b612262565b6101d4610401366004612c9d565b6122f9565b60006001600160e01b031982166380ac58cd60e01b148061043757506001600160e01b03198216635b5e139f60e01b145b8061045257506301ffc9a760e01b6001600160e01b03198316145b92915050565b60606001805461046790613400565b80601f016020809104026020016040519081016040528092919081815260200182805461049390613400565b80156104e05780601f106104b5576101008083540402835291602001916104e0565b820191906000526020600020905b8154815290600101906020018083116104c357829003601f168201915b5050505050905090565b60006104f582612399565b61055b5760405162461bcd60e51b815260206004820152602c60248201527f4552433732313a20617070726f76656420717565727920666f72206e6f6e657860448201526b34b9ba32b73a103a37b5b2b760a11b60648201526084015b60405180910390fd5b506000908152600560205260409020546001600160a01b031690565b6000610582826110d7565b9050806001600160a01b0316836001600160a01b031614156105f05760405162461bcd60e51b815260206004820152602160248201527f4552433732313a20617070726f76616c20746f2063757272656e74206f776e656044820152603960f91b6064820152608401610552565b336001600160a01b038216148061060c575061060c8133612234565b6106795760405162461bcd60e51b815260206004820152603860248201527f4552433732313a20617070726f76652063616c6c6572206973206e6f74206f776044820152771b995c881b9bdc88185c1c1c9bdd995908199bdc88185b1b60421b6064820152608401610552565b61068383836123b6565b505050565b60085460609033906001600160a01b03168114806106b357506009546001600160a01b038281169116145b806106cb5750600b546001600160a01b038281169116145b806106e35750600a546001600160a01b038281169116145b6106ff5760405162461bcd60e51b8152600401610552906132a2565b6001600160a01b0383166000908152601160209081526040918290208054835181840281018401909452808452909183018282801561075d57602002820191906000526020600020905b815481526020019060010190808311610749575b505050505091505b50919050565b60085433906001600160a01b031681148061079357506009546001600160a01b038281169116145b806107ab5750600b546001600160a01b038281169116145b806107c35750600a546001600160a01b038281169116145b6107df5760405162461bcd60e51b8152600401610552906132a2565b60046107e9875190565b1161082f5760405162461bcd60e51b8152602060048201526016602482015275125b991a58d85c881b9bdb481b59591a58d85b595b9d60521b6044820152606401610552565b8451600d146108735760405162461bcd60e51b815260206004820152601060248201526f49554d2074652031332064696769747360801b6044820152606401610552565b6108bf6040805160c0810190915280600081526020016000815260200160006001600160a01b0316815260200160006001600160a01b0316815260200160608152602001606081525090565b6108cd600780546001019055565b60006108d860075490565b60008352905061ffff8616158015906108f4575060008560ff16115b8015610903575060008460ff16115b156109bb5773__$73785166eb94af412e1735ba7ee7be91af$__638c8d98a0878761092f886001613384565b6040516001600160e01b031960e086901b16815261ffff909316600484015260ff918216602484015216604482015260640160206040518083038186803b15801561097957600080fd5b505af415801561098d573d6000803e3d6000fd5b505050506040513d601f19601f820116820180604052508101906109b19190612fa8565b60208301526109c6565b637fffffff60208301525b6001600160a01b03808b16604080850191909152908a1660608401526080830189905260a0830188905260008281526010602052208251815484929190829060ff19166001836003811115610a1d57610a1d613490565b0217905550602082810151600183015560408301516002830180546001600160a01b039283166001600160a01b031991821617909155606085015160038501805491909316911617905560808301518051610a7e9260048501920190612b79565b5060a08201518051610a9a916005840191602090910190612b79565b50905050610aac826040015182612424565b604091820180516001600160a01b039081166000908152601160208181528683205486845260128252878420559351909216815290825292832080546001810182559084529220909101555050505050505050565b610b0b3382612544565b610b275760405162461bcd60e51b8152600401610552906132c4565b61068383838361260e565b60085433906001600160a01b0316811480610b5a57506009546001600160a01b038281169116145b80610b725750600b546001600160a01b038281169116145b80610b8a5750600a546001600160a01b038281169116145b610ba65760405162461bcd60e51b8152600401610552906132a2565b6001600160a01b038216600090815260116020908152604080832080548251818502810185019093528083529192909190830182828015610c0657602002820191906000526020600020905b815481526020019060010190808311610bf2575b5050505050905060005b8151811015610d9b57600260106000848481518110610c3157610c316134a6565b60209081029190910181015182528101919091526040016000205460ff166003811115610c6057610c60613490565b1415610ca457610c9f84600c60009054906101000a90046001600160a01b0316848481518110610c9257610c926134a6565b6020026020010151610b01565b610d13565b600360106000848481518110610cbc57610cbc6134a6565b60209081029190910181015182528101919091526040016000205460ff166003811115610ceb57610ceb613490565b1415610d1357610d13828281518110610d0657610d066134a6565b6020026020010151612798565b600060126000848481518110610d2b57610d2b6134a6565b6020026020010151815260200190815260200160002054905060116000866001600160a01b03166001600160a01b031681526020019081526020016000206000018181548110610d7d57610d7d6134a6565b60009182526020822001555080610d9381613435565b915050610c10565b50505050565b60085460609033906001600160a01b0316811480610dcc57506009546001600160a01b038281169116145b80610de45750600b546001600160a01b038281169116145b80610dfc5750600a546001600160a01b038281169116145b610e185760405162461bcd60e51b8152600401610552906132a2565b60008381526010602052604081205460ff166003811115610e3b57610e3b613490565b1415610e67576040518060400160405280600681526020016563726561646160d01b8152509150610765565b600160008481526010602052604090205460ff166003811115610e8c57610e8c613490565b1415610eb957604051806040016040528060078152602001661c195b99195b9d60ca1b8152509150610765565b600260008481526010602052604090205460ff166003811115610ede57610ede613490565b1415610f0d57604051806040016040528060098152602001687472616d697461646160b81b8152509150610765565b6040518060400160405280600981526020016872656275746a61646160b81b8152509150610765565b60085433906001600160a01b0316811480610f5e57506009546001600160a01b038281169116145b80610f765750600b546001600160a01b038281169116145b80610f8e5750600a546001600160a01b038281169116145b610faa5760405162461bcd60e51b8152600401610552906132a2565b816001600160a01b0316610fbd846110d7565b6001600160a01b031614610fe35760405162461bcd60e51b815260040161055290613243565b60008381526010602052604081205460ff16600381111561100657611006613490565b146110615760405162461bcd60e51b815260206004820152602560248201527f4e6f6d6573206c657320726563657074657320616d622065737461742022437260448201526432b0b2309160d91b6064820152608401610552565b6000838152601060209081526040808320805460ff1916600317905560128252808320546001600160a01b038616845260119092529091208054829081106110ab576110ab6134a6565b600091825260208220015550505050565b610683838383604051806020016040528060008152506115c3565b6000818152600360205260408120546001600160a01b0316806104525760405162461bcd60e51b815260206004820152602960248201527f4552433732313a206f776e657220717565727920666f72206e6f6e657869737460448201526832b73a103a37b5b2b760b91b6064820152608401610552565b60006001600160a01b0382166111b95760405162461bcd60e51b815260206004820152602a60248201527f4552433732313a2062616c616e636520717565727920666f7220746865207a65604482015269726f206164647265737360b01b6064820152608401610552565b506001600160a01b031660009081526004602052604090205490565b336111de611210565b6001600160a01b0316146112045760405162461bcd60e51b81526004016105529061326d565b61120e6000612821565b565b6000546001600160a01b031690565b60606002805461046790613400565b611239338383612871565b5050565b60085433906001600160a01b031681148061126557506009546001600160a01b038281169116145b8061127d5750600b546001600160a01b038281169116145b806112955750600a546001600160a01b038281169116145b6112b15760405162461bcd60e51b8152600401610552906132a2565b50600a80546001600160a01b0319166001600160a01b0392909216919091179055565b6008546060908190819033906001600160a01b031681148061130357506009546001600160a01b038281169116145b8061131b5750600b546001600160a01b038281169116145b806113335750600a546001600160a01b038281169116145b61134f5760405162461bcd60e51b8152600401610552906132a2565b846001600160a01b0316611362876110d7565b6001600160a01b0316146113885760405162461bcd60e51b815260040161055290613243565b600086815260106020526040808220815160c081019092528054829060ff1660038111156113b8576113b8613490565b60038111156113c9576113c9613490565b81526001820154602082015260028201546001600160a01b039081166040830152600383015416606082015260048201805460809092019161140a90613400565b80601f016020809104026020016040519081016040528092919081815260200182805461143690613400565b80156114835780601f1061145857610100808354040283529160200191611483565b820191906000526020600020905b81548152906001019060200180831161146657829003601f168201915b5050505050815260200160058201805461149c90613400565b80601f01602080910402602001604051908101604052809291908181526020018280546114c890613400565b80156115155780601f106114ea57610100808354040283529160200191611515565b820191906000526020600020905b8154815290600101906020018083116114f857829003601f168201915b505050919092525050600f5460608301516040516324ab39d160e11b81529394506001600160a01b039091169263495673a29250611556919060040161307b565b60006040518083038186803b15801561156e57600080fd5b505afa158015611582573d6000803e3d6000fd5b505050506040513d6000823e601f3d908101601f191682016040526115aa9190810190612f19565b81608001518260a0015194509450945050509250925092565b6115cd3383612544565b6115e95760405162461bcd60e51b8152600401610552906132c4565b610d9b8484848461293c565b60085433906001600160a01b031681148061161d57506009546001600160a01b038281169116145b806116355750600b546001600160a01b038281169116145b8061164d5750600a546001600160a01b038281169116145b6116695760405162461bcd60e51b8152600401610552906132a2565b826001600160a01b031661167c856110d7565b6001600160a01b0316146116a25760405162461bcd60e51b815260040161055290613243565b60008481526010602052604081205460ff1660038111156116c5576116c5613490565b1461171c5760405162461bcd60e51b815260206004820152602160248201527f4e6f6d657320726563657074657320616d6220657374617420224372656164616044820152601160f91b6064820152608401610552565b600e54604051637358610960e11b81526001600160a01b039091169063e6b0c2129061174c90859060040161307b565b60206040518083038186803b15801561176457600080fd5b505afa158015611778573d6000803e3d6000fd5b505050506040513d601f19601f8201168201806040525081019061179c9190612ec2565b6117da5760405162461bcd60e51b815260206004820152600f60248201526e4e6f6d6573206661726d616369657360881b6044820152606401610552565b6117e5838386610b01565b6000848152601060209081526040808320805460ff1916600117905560128252808320546001600160a01b0387168452601190925290912080548290811061182f5761182f6134a6565b600091825260208083209091018290556001600160a01b0390941681526011808552604080832080548985526012885291842082905591865260018101825590825293902090920193909355505050565b60085433906001600160a01b03168114806118a857506009546001600160a01b038281169116145b806118c05750600b546001600160a01b038281169116145b806118d85750600a546001600160a01b038281169116145b6118f45760405162461bcd60e51b8152600401610552906132a2565b50600980546001600160a01b0319166001600160a01b0392909216919091179055565b600854606090819081908190819033906001600160a01b031681148061194a57506009546001600160a01b038281169116145b806119625750600b546001600160a01b038281169116145b8061197a5750600a546001600160a01b038281169116145b6119965760405162461bcd60e51b8152600401610552906132a2565b866001600160a01b03166119a9896110d7565b6001600160a01b0316146119cf5760405162461bcd60e51b81526004016105529061321b565b600088815260106020526040808220815160c081019092528054829060ff1660038111156119ff576119ff613490565b6003811115611a1057611a10613490565b81526001820154602082015260028201546001600160a01b0390811660408301526003830154166060820152600482018054608090920191611a5190613400565b80601f0160208091040260200160405190810160405280929190818152602001828054611a7d90613400565b8015611aca5780601f10611a9f57610100808354040283529160200191611aca565b820191906000526020600020905b815481529060010190602001808311611aad57829003601f168201915b50505050508152602001600582018054611ae390613400565b80601f0160208091040260200160405190810160405280929190818152602001828054611b0f90613400565b8015611b5c5780601f10611b3157610100808354040283529160200191611b5c565b820191906000526020600020905b815481529060010190602001808311611b3f57829003601f168201915b505050505081525050905060016003811115611b7a57611b7a613490565b60008a81526010602052604090205460ff166003811115611b9d57611b9d613490565b1415611ceb57600e54604080830151905163670ff71360e01b81526001600160a01b039092169163670ff71391611bd69160040161307b565b60006040518083038186803b158015611bee57600080fd5b505afa158015611c02573d6000803e3d6000fd5b505050506040513d6000823e601f3d908101601f19168201604052611c2a9190810190612f19565b600f5460608301516040516324ab39d160e11b81526001600160a01b039092169163495673a291611c5d9160040161307b565b60006040518083038186803b158015611c7557600080fd5b505afa158015611c89573d6000803e3d6000fd5b505050506040513d6000823e601f3d908101601f19168201604052611cb19190810190612f19565b608083015160a09093015160408051808201909152600781526614195b99195b9d60ca1b6020820152995091975095509093509150611fd4565b600260008a81526010602052604090205460ff166003811115611d1057611d10613490565b1415611e5d57600e54604080830151905163670ff71360e01b81526001600160a01b039092169163670ff71391611d499160040161307b565b60006040518083038186803b158015611d6157600080fd5b505afa158015611d75573d6000803e3d6000fd5b505050506040513d6000823e601f3d908101601f19168201604052611d9d9190810190612f19565b600f5460608301516040516324ab39d160e11b81526001600160a01b039092169163495673a291611dd09160040161307b565b60006040518083038186803b158015611de857600080fd5b505afa158015611dfc573d6000803e3d6000fd5b505050506040513d6000823e601f3d908101601f19168201604052611e249190810190612f19565b608083015160a09093015160408051808201909152600681526556616c69646160d01b6020820152995091975095509093509150611fd4565b600360008a81526010602052604090205460ff166003811115611e8257611e82613490565b1415611fd257600e54604080830151905163670ff71360e01b81526001600160a01b039092169163670ff71391611ebb9160040161307b565b60006040518083038186803b158015611ed357600080fd5b505afa158015611ee7573d6000803e3d6000fd5b505050506040513d6000823e601f3d908101601f19168201604052611f0f9190810190612f19565b600f5460608301516040516324ab39d160e11b81526001600160a01b039092169163495673a291611f429160040161307b565b60006040518083038186803b158015611f5a57600080fd5b505afa158015611f6e573d6000803e3d6000fd5b505050506040513d6000823e601f3d908101601f19168201604052611f969190810190612f19565b608083015160a09093015160408051808201909152600981526852656275746a61646160b81b6020820152995091975095509093509150611fd4565b505b509295509295909350565b6060611fea82612399565b61204e5760405162461bcd60e51b815260206004820152602f60248201527f4552433732314d657461646174613a2055524920717565727920666f72206e6f60448201526e3732bc34b9ba32b73a103a37b5b2b760891b6064820152608401610552565b600061206560408051602081019091526000815290565b9050600081511161208557604051806020016040528060008152506120b0565b8061208f8461296f565b6040516020016120a092919061304c565b6040516020818303038152906040525b9392505050565b60085433906001600160a01b03168114806120df57506009546001600160a01b038281169116145b806120f75750600b546001600160a01b038281169116145b8061210f5750600a546001600160a01b038281169116145b61212b5760405162461bcd60e51b8152600401610552906132a2565b816001600160a01b031661213e846110d7565b6001600160a01b0316146121645760405162461bcd60e51b81526004016105529061321b565b600160008481526010602052604090205460ff16600381111561218957612189613490565b146121e15760405162461bcd60e51b815260206004820152602260248201527f4e6f6d657320726563657074657320616d62206573746174202250656e64656e6044820152613a1160f11b6064820152608401610552565b6000838152601060205260409020600101544210156122175750506000908152601060205260409020805460ff19166002179055565b50506000908152601060205260409020805460ff19166003179055565b6001600160a01b03918216600090815260066020908152604080832093909416825291909152205460ff1690565b60085433906001600160a01b031681148061228a57506009546001600160a01b038281169116145b806122a25750600b546001600160a01b038281169116145b806122ba5750600a546001600160a01b038281169116145b6122d65760405162461bcd60e51b8152600401610552906132a2565b50600b80546001600160a01b0319166001600160a01b0392909216919091179055565b33612302611210565b6001600160a01b0316146123285760405162461bcd60e51b81526004016105529061326d565b6001600160a01b03811661238d5760405162461bcd60e51b815260206004820152602660248201527f4f776e61626c653a206e6577206f776e657220697320746865207a65726f206160448201526564647265737360d01b6064820152608401610552565b61239681612821565b50565b6000908152600360205260409020546001600160a01b0316151590565b600081815260056020526040902080546001600160a01b0319166001600160a01b03841690811790915581906123eb826110d7565b6001600160a01b03167f8c5be1e5ebec7d5bd14f71427d1e84f3dd0314c0f7b2291e5b200ac8c7c3b92560405160405180910390a45050565b6001600160a01b03821661247a5760405162461bcd60e51b815260206004820181905260248201527f4552433732313a206d696e7420746f20746865207a65726f20616464726573736044820152606401610552565b61248381612399565b156124cf5760405162461bcd60e51b815260206004820152601c60248201527b115490cdcc8c4e881d1bdad95b88185b1c9958591e481b5a5b9d195960221b6044820152606401610552565b6001600160a01b03821660009081526004602052604081208054600192906124f890849061336c565b909155505060008181526003602052604080822080546001600160a01b0319166001600160a01b03861690811790915590518392906000805160206134f7833981519152908290a45050565b600061254f82612399565b6125b05760405162461bcd60e51b815260206004820152602c60248201527f4552433732313a206f70657261746f7220717565727920666f72206e6f6e657860448201526b34b9ba32b73a103a37b5b2b760a11b6064820152608401610552565b60006125bb836110d7565b9050806001600160a01b0316846001600160a01b031614806125e257506125e28185612234565b806126065750836001600160a01b03166125fb846104ea565b6001600160a01b0316145b949350505050565b826001600160a01b0316612621826110d7565b6001600160a01b0316146126855760405162461bcd60e51b815260206004820152602560248201527f4552433732313a207472616e736665722066726f6d20696e636f72726563742060448201526437bbb732b960d91b6064820152608401610552565b6001600160a01b0382166126e75760405162461bcd60e51b8152602060048201526024808201527f4552433732313a207472616e7366657220746f20746865207a65726f206164646044820152637265737360e01b6064820152608401610552565b6126f26000826123b6565b6001600160a01b038316600090815260046020526040812080546001929061271b9084906133bd565b90915550506001600160a01b038216600090815260046020526040812080546001929061274990849061336c565b909155505060008181526003602052604080822080546001600160a01b0319166001600160a01b0386811691821790925591518493918716916000805160206134f783398151915291a4505050565b60006127a3826110d7565b90506127b06000836123b6565b6001600160a01b03811660009081526004602052604081208054600192906127d99084906133bd565b909155505060008281526003602052604080822080546001600160a01b0319169055518391906001600160a01b038416906000805160206134f7833981519152908390a45050565b600080546001600160a01b038381166001600160a01b0319831681178455604051919092169283917f8be0079c531659141344cd1fd0a4f28419497f9722a3daafe3b4186f6b6457e09190a35050565b816001600160a01b0316836001600160a01b031614156128cf5760405162461bcd60e51b815260206004820152601960248201527822a9219b99189d1030b8383937bb32903a379031b0b63632b960391b6044820152606401610552565b6001600160a01b03838116600081815260066020908152604080832094871680845294825291829020805460ff191686151590811790915591519182527f17307eab39ab6107e8899845ad3d59bd9653f200f220920489ca2b5937696c31910160405180910390a3505050565b61294784848461260e565b61295384848484612a6c565b610d9b5760405162461bcd60e51b8152600401610552906131c9565b6060816129935750506040805180820190915260018152600360fc1b602082015290565b8160005b81156129bd57806129a781613435565b91506129b69050600a836133a9565b9150612997565b6000816001600160401b038111156129d7576129d76134bc565b6040519080825280601f01601f191660200182016040528015612a01576020820181803683370190505b5090505b841561260657612a166001836133bd565b9150612a23600a86613450565b612a2e90603061336c565b60f81b818381518110612a4357612a436134a6565b60200101906001600160f81b031916908160001a905350612a65600a866133a9565b9450612a05565b60006001600160a01b0384163b15612b6e57604051630a85bd0160e11b81526001600160a01b0385169063150b7a0290612ab090339089908890889060040161308f565b602060405180830381600087803b158015612aca57600080fd5b505af1925050508015612afa575060408051601f3d908101601f19168201909252612af791810190612efc565b60015b612b54573d808015612b28576040519150601f19603f3d011682016040523d82523d6000602084013e612b2d565b606091505b508051612b4c5760405162461bcd60e51b8152600401610552906131c9565b805181602001fd5b6001600160e01b031916630a85bd0160e11b149050612606565b506001949350505050565b828054612b8590613400565b90600052602060002090601f016020900481019282612ba75760008555612bed565b82601f10612bc057805160ff1916838001178555612bed565b82800160010185558215612bed579182015b82811115612bed578251825591602001919060010190612bd2565b50612bf9929150612bfd565b5090565b5b80821115612bf95760008155600101612bfe565b6000612c25612c2084613345565b613315565b9050828152838383011115612c3957600080fd5b828260208301376000602084830101529392505050565b80356001600160a01b0381168114612c6757600080fd5b919050565b600082601f830112612c7d57600080fd5b6120b083833560208501612c12565b803560ff81168114612c6757600080fd5b600060208284031215612caf57600080fd5b6120b082612c50565b60008060408385031215612ccb57600080fd5b612cd483612c50565b9150612ce260208401612c50565b90509250929050565b600080600080600080600060e0888a031215612d0657600080fd5b612d0f88612c50565b9650612d1d60208901612c50565b955060408801356001600160401b0380821115612d3957600080fd5b612d458b838c01612c6c565b965060608a0135915080821115612d5b57600080fd5b50612d688a828b01612c6c565b945050608088013561ffff81168114612d8057600080fd5b9250612d8e60a08901612c8c565b9150612d9c60c08901612c8c565b905092959891949750929550565b600080600060608486031215612dbf57600080fd5b612dc884612c50565b9250612dd660208501612c50565b9150604084013590509250925092565b60008060008060808587031215612dfc57600080fd5b612e0585612c50565b9350612e1360208601612c50565b92506040850135915060608501356001600160401b03811115612e3557600080fd5b8501601f81018713612e4657600080fd5b612e5587823560208401612c12565b91505092959194509250565b60008060408385031215612e7457600080fd5b612e7d83612c50565b91506020830135612e8d816134d2565b809150509250929050565b60008060408385031215612eab57600080fd5b612eb483612c50565b946020939093013593505050565b600060208284031215612ed457600080fd5b81516120b0816134d2565b600060208284031215612ef157600080fd5b81356120b0816134e0565b600060208284031215612f0e57600080fd5b81516120b0816134e0565b600060208284031215612f2b57600080fd5b81516001600160401b03811115612f4157600080fd5b8201601f81018413612f5257600080fd5b8051612f60612c2082613345565b818152856020838501011115612f7557600080fd5b612f868260208301602086016133d4565b95945050505050565b600060208284031215612fa157600080fd5b5035919050565b600060208284031215612fba57600080fd5b5051919050565b60008060408385031215612fd457600080fd5b82359150612ce260208401612c50565b600080600060608486031215612ff957600080fd5b8335925061300960208501612c50565b915061301760408501612c50565b90509250925092565b600081518084526130388160208601602086016133d4565b601f01601f19169290920160200192915050565b6000835161305e8184602088016133d4565b8351908301906130728183602088016133d4565b01949350505050565b6001600160a01b0391909116815260200190565b6001600160a01b03858116825284166020820152604081018390526080606082018190526000906130c290830184613020565b9695505050505050565b6020808252825182820181905260009190848201906040850190845b81811015613104578351835292840192918401916001016130e8565b50909695505050505050565b6020815260006120b06020830184613020565b6060815260006131366060830186613020565b82810360208401526131488186613020565b905082810360408401526130c28185613020565b60a08152600061316f60a0830188613020565b82810360208401526131818188613020565b905082810360408401526131958187613020565b905082810360608401526131a98186613020565b905082810360808401526131bd8185613020565b98975050505050505050565b60208082526032908201527f4552433732313a207472616e7366657220746f206e6f6e20455243373231526560408201527131b2b4bb32b91034b6b83632b6b2b73a32b960711b606082015260800190565b6020808252600e908201526d4e6f2070726f706965746172696160901b604082015260600190565b60208082526010908201526f4e6f6d65732070726f7069657461726960801b604082015260600190565b6020808252818101527f4f776e61626c653a2063616c6c6572206973206e6f7420746865206f776e6572604082015260600190565b6020808252600890820152674e6f6d657320534360c01b604082015260600190565b60208082526031908201527f4552433732313a207472616e736665722063616c6c6572206973206e6f74206f6040820152701ddb995c881b9bdc88185c1c1c9bdd9959607a1b606082015260800190565b604051601f8201601f191681016001600160401b038111828210171561333d5761333d6134bc565b604052919050565b60006001600160401b0382111561335e5761335e6134bc565b50601f01601f191660200190565b6000821982111561337f5761337f613464565b500190565b600060ff821660ff84168060ff038211156133a1576133a1613464565b019392505050565b6000826133b8576133b861347a565b500490565b6000828210156133cf576133cf613464565b500390565b60005b838110156133ef5781810151838201526020016133d7565b83811115610d9b5750506000910152565b600181811c9082168061341457607f821691505b6020821081141561076557634e487b7160e01b600052602260045260246000fd5b600060001982141561344957613449613464565b5060010190565b60008261345f5761345f61347a565b500690565b634e487b7160e01b600052601160045260246000fd5b634e487b7160e01b600052601260045260246000fd5b634e487b7160e01b600052602160045260246000fd5b634e487b7160e01b600052603260045260246000fd5b634e487b7160e01b600052604160045260246000fd5b801515811461239657600080fd5b6001600160e01b03198116811461239657600080fdfeddf252ad1be2c89b69c2b068fc378daa952ba7f163c4a11628f55a4df523b3efa26469706673582212203b34653152a9e6739434572c069d1de50f6dd1c136e91e55e034989aa861f9a664736f6c63430008070033",
  "linkReferences": {
    "contracts/DateTime.sol": {
      "DateTime": [
        {
          "length": 20,
          "start": 2870
        }
      ]
    }
  },
  "deployedLinkReferences": {
    "contracts/DateTime.sol": {
      "DateTime": [
        {
          "length": 20,
          "start": 2314
        }
      ]
    }
  }
}